{
	"contracts/IntToRoman.sol": {
		"IntToRoma": {
			"abi": [
				{
					"inputs": [],
					"stateMutability": "nonpayable",
					"type": "constructor"
				},
				{
					"inputs": [
						{
							"internalType": "uint256",
							"name": "num",
							"type": "uint256"
						}
					],
					"name": "intToRoma",
					"outputs": [
						{
							"internalType": "string",
							"name": "",
							"type": "string"
						}
					],
					"stateMutability": "view",
					"type": "function"
				}
			],
			"devdoc": {
				"kind": "dev",
				"methods": {},
				"version": 1
			},
			"evm": {
				"assembly": "    /* \"contracts/IntToRoman.sol\":57:1069  contract IntToRoma {... */\n  mstore(0x40, 0x80)\n    /* \"contracts/IntToRoman.sol\":125:244  constructor() {... */\n  callvalue\n  dup1\n  iszero\n  tag_1\n  jumpi\n  revert(0x00, 0x00)\ntag_1:\n  pop\n    /* \"contracts/IntToRoman.sol\":149:185  ones  = [bytes1(\"I\"), \"X\", \"C\", \"M\"] */\n  mload(0x40)\n  dup1\n  0x80\n  add\n  0x40\n  mstore\n  dup1\n    /* \"contracts/IntToRoman.sol\":158:169  bytes1(\"I\") */\n  0x4900000000000000000000000000000000000000000000000000000000000000\n    /* \"contracts/IntToRoman.sol\":149:185  ones  = [bytes1(\"I\"), \"X\", \"C\", \"M\"] */\n  not(0xffffffffffffffffffffffffffffffffffffffffffffffffffffffffffffff)\n  and\n  not(0xffffffffffffffffffffffffffffffffffffffffffffffffffffffffffffff)\n  and\n  dup2\n  mstore\n  0x20\n  add\n  and(not(0xffffffffffffffffffffffffffffffffffffffffffffffffffffffffffffff), 0x5800000000000000000000000000000000000000000000000000000000000000)\n  dup2\n  mstore\n  0x20\n  add\n  and(not(0xffffffffffffffffffffffffffffffffffffffffffffffffffffffffffffff), 0x4300000000000000000000000000000000000000000000000000000000000000)\n  dup2\n  mstore\n  0x20\n  add\n  and(not(0xffffffffffffffffffffffffffffffffffffffffffffffffffffffffffffff), 0x4d00000000000000000000000000000000000000000000000000000000000000)\n  dup2\n  mstore\n  pop\n    /* \"contracts/IntToRoman.sol\":149:153  ones */\n  0x00\n    /* \"contracts/IntToRoman.sol\":149:185  ones  = [bytes1(\"I\"), \"X\", \"C\", \"M\"] */\n  swap1\n  0x04\n  tag_4\n  swap3\n  swap2\n  swap1\n  tag_5\n  jump\t// in\ntag_4:\n  pop\n    /* \"contracts/IntToRoman.sol\":195:237  fives = [bytes1(\"V\"), \"L\", \"D\", bytes1(0)] */\n  mload(0x40)\n  dup1\n  0x80\n  add\n  0x40\n  mstore\n  dup1\n    /* \"contracts/IntToRoman.sol\":204:215  bytes1(\"V\") */\n  0x5600000000000000000000000000000000000000000000000000000000000000\n    /* \"contracts/IntToRoman.sol\":195:237  fives = [bytes1(\"V\"), \"L\", \"D\", bytes1(0)] */\n  not(0xffffffffffffffffffffffffffffffffffffffffffffffffffffffffffffff)\n  and\n  not(0xffffffffffffffffffffffffffffffffffffffffffffffffffffffffffffff)\n  and\n  dup2\n  mstore\n  0x20\n  add\n  and(not(0xffffffffffffffffffffffffffffffffffffffffffffffffffffffffffffff), 0x4c00000000000000000000000000000000000000000000000000000000000000)\n  dup2\n  mstore\n  0x20\n  add\n  and(not(0xffffffffffffffffffffffffffffffffffffffffffffffffffffffffffffff), 0x4400000000000000000000000000000000000000000000000000000000000000)\n  dup2\n  mstore\n  0x20\n  add\n    /* \"contracts/IntToRoman.sol\":234:235  0 */\n  0x00\n    /* \"contracts/IntToRoman.sol\":227:236  bytes1(0) */\n  0xf8\n  shl\n    /* \"contracts/IntToRoman.sol\":195:237  fives = [bytes1(\"V\"), \"L\", \"D\", bytes1(0)] */\n  not(0xffffffffffffffffffffffffffffffffffffffffffffffffffffffffffffff)\n  and\n  not(0xffffffffffffffffffffffffffffffffffffffffffffffffffffffffffffff)\n  and\n  dup2\n  mstore\n  pop\n    /* \"contracts/IntToRoman.sol\":195:200  fives */\n  0x01\n    /* \"contracts/IntToRoman.sol\":195:237  fives = [bytes1(\"V\"), \"L\", \"D\", bytes1(0)] */\n  swap1\n  0x04\n  tag_6\n  swap3\n  swap2\n  swap1\n  tag_5\n  jump\t// in\ntag_6:\n  pop\n    /* \"contracts/IntToRoman.sol\":57:1069  contract IntToRoma {... */\n  jump(tag_7)\ntag_5:\n  dup3\n  add(0x1f, 0x04)\n  0x20\n  swap1\n  div\n  dup2\n  add\n  swap3\n  dup3\n  iszero\n  tag_8\n  jumpi\n  swap2\n  0x20\n  mul\n  dup3\n  add\n  0x00\ntag_9:\n  dup4\n  dup3\n  gt\n  iszero\n  tag_10\n  jumpi\n  dup4\n  mload\n  dup4\n  dup3\n  0x0100\n  exp\n  dup2\n  sload\n  dup2\n  0xff\n  mul\n  not\n  and\n  swap1\n  dup4\n  0xf8\n  shr\n  mul\n  or\n  swap1\n  sstore\n  pop\n  swap3\n  0x20\n  add\n  swap3\n  0x01\n  add\n  0x20\n  dup2\n  0x00\n  add\n  div\n  swap3\n  dup4\n  add\n  swap3\n  0x01\n  sub\n  mul\n  jump(tag_9)\ntag_10:\n  dup1\n  iszero\n  tag_11\n  jumpi\n  dup3\n  dup2\n  0x0100\n  exp\n  dup2\n  sload\n  swap1\n  0xff\n  mul\n  not\n  and\n  swap1\n  sstore\n  0x01\n  add\n  0x20\n  dup2\n  0x00\n  add\n  div\n  swap3\n  dup4\n  add\n  swap3\n  0x01\n  sub\n  mul\n  jump(tag_10)\ntag_11:\n  pop\ntag_8:\n  pop\n  swap1\n  pop\n  tag_12\n  swap2\n  swap1\n  tag_13\n  jump\t// in\ntag_12:\n  pop\n  swap1\n  jump\t// out\ntag_13:\ntag_14:\n  dup1\n  dup3\n  gt\n  iszero\n  tag_15\n  jumpi\n  0x00\n  dup2\n  0x00\n  swap1\n  sstore\n  pop\n  0x01\n  add\n  jump(tag_14)\ntag_15:\n  pop\n  swap1\n  jump\t// out\ntag_7:\n  dataSize(sub_0)\n  dup1\n  dataOffset(sub_0)\n  0x00\n  codecopy\n  0x00\n  return\nstop\n\nsub_0: assembly {\n        /* \"contracts/IntToRoman.sol\":57:1069  contract IntToRoma {... */\n      mstore(0x40, 0x80)\n      callvalue\n      dup1\n      iszero\n      tag_1\n      jumpi\n      revert(0x00, 0x00)\n    tag_1:\n      pop\n      jumpi(tag_2, lt(calldatasize, 0x04))\n      shr(0xe0, calldataload(0x00))\n      dup1\n      0x1ae1e404\n      eq\n      tag_3\n      jumpi\n    tag_2:\n      revert(0x00, 0x00)\n        /* \"contracts/IntToRoman.sol\":250:1067  function intToRoma (uint num)  public view returns (string memory){... */\n    tag_3:\n      tag_4\n      0x04\n      dup1\n      calldatasize\n      sub\n      dup2\n      add\n      swap1\n      tag_5\n      swap2\n      swap1\n      tag_6\n      jump\t// in\n    tag_5:\n      tag_7\n      jump\t// in\n    tag_4:\n      mload(0x40)\n      tag_8\n      swap2\n      swap1\n      tag_9\n      jump\t// in\n    tag_8:\n      mload(0x40)\n      dup1\n      swap2\n      sub\n      swap1\n      return\n    tag_7:\n        /* \"contracts/IntToRoman.sol\":302:315  string memory */\n      0x60\n        /* \"contracts/IntToRoman.sol\":326:342  bytes memory buf */\n      dup1\n        /* \"contracts/IntToRoman.sol\":352:358  uint i */\n      0x00\n        /* \"contracts/IntToRoman.sol\":361:362  0 */\n      0x00\n        /* \"contracts/IntToRoman.sol\":352:362  uint i = 0 */\n      swap1\n      pop\n        /* \"contracts/IntToRoman.sol\":372:1033  while (num > 0) {... */\n    tag_11:\n        /* \"contracts/IntToRoman.sol\":385:386  0 */\n      0x00\n        /* \"contracts/IntToRoman.sol\":379:382  num */\n      dup5\n        /* \"contracts/IntToRoman.sol\":379:386  num > 0 */\n      gt\n        /* \"contracts/IntToRoman.sol\":372:1033  while (num > 0) {... */\n      iszero\n      tag_12\n      jumpi\n        /* \"contracts/IntToRoman.sol\":402:410  uint val */\n      0x00\n        /* \"contracts/IntToRoman.sol\":419:421  10 */\n      0x0a\n        /* \"contracts/IntToRoman.sol\":413:416  num */\n      dup6\n        /* \"contracts/IntToRoman.sol\":413:421  num % 10 */\n      tag_13\n      swap2\n      swap1\n      tag_14\n      jump\t// in\n    tag_13:\n        /* \"contracts/IntToRoman.sol\":402:421  uint val = num % 10 */\n      swap1\n      pop\n        /* \"contracts/IntToRoman.sol\":435:445  bytes1 one */\n      0x00\n        /* \"contracts/IntToRoman.sol\":448:452  ones */\n      0x00\n        /* \"contracts/IntToRoman.sol\":453:454  i */\n      dup4\n        /* \"contracts/IntToRoman.sol\":448:455  ones[i] */\n      0x04\n      dup2\n      lt\n      tag_15\n      jumpi\n      tag_16\n      tag_17\n      jump\t// in\n    tag_16:\n    tag_15:\n      0x20\n      swap2\n      dup3\n      dup3\n      div\n      add\n      swap2\n      swap1\n      mod\n      swap1\n      sload\n      swap1\n      0x0100\n      exp\n      swap1\n      div\n      0xf8\n      shl\n        /* \"contracts/IntToRoman.sol\":435:455  bytes1 one = ones[i] */\n      swap1\n      pop\n        /* \"contracts/IntToRoman.sol\":469:480  bytes1 five */\n      0x00\n        /* \"contracts/IntToRoman.sol\":483:488  fives */\n      0x01\n        /* \"contracts/IntToRoman.sol\":489:490  i */\n      dup5\n        /* \"contracts/IntToRoman.sol\":483:491  fives[i] */\n      0x04\n      dup2\n      lt\n      tag_19\n      jumpi\n      tag_20\n      tag_17\n      jump\t// in\n    tag_20:\n    tag_19:\n      0x20\n      swap2\n      dup3\n      dup3\n      div\n      add\n      swap2\n      swap1\n      mod\n      swap1\n      sload\n      swap1\n      0x0100\n      exp\n      swap1\n      div\n      0xf8\n      shl\n        /* \"contracts/IntToRoman.sol\":469:491  bytes1 five = fives[i] */\n      swap1\n      pop\n        /* \"contracts/IntToRoman.sol\":520:521  4 */\n      0x04\n        /* \"contracts/IntToRoman.sol\":515:516  5 */\n      0x05\n        /* \"contracts/IntToRoman.sol\":509:512  val */\n      dup5\n        /* \"contracts/IntToRoman.sol\":509:516  val % 5 */\n      tag_22\n      swap2\n      swap1\n      tag_14\n      jump\t// in\n    tag_22:\n        /* \"contracts/IntToRoman.sol\":509:521  val % 5 != 4 */\n      eq\n        /* \"contracts/IntToRoman.sol\":505:983  if (val % 5 != 4) {... */\n      tag_23\n      jumpi\n        /* \"contracts/IntToRoman.sol\":546:556  uint count */\n      0x00\n        /* \"contracts/IntToRoman.sol\":559:560  0 */\n      0x00\n        /* \"contracts/IntToRoman.sol\":546:560  uint count = 0 */\n      swap1\n      pop\n        /* \"contracts/IntToRoman.sol\":541:661  for (uint count = 0; count < val % 5; count++) {... */\n    tag_24:\n        /* \"contracts/IntToRoman.sol\":576:577  5 */\n      0x05\n        /* \"contracts/IntToRoman.sol\":570:573  val */\n      dup5\n        /* \"contracts/IntToRoman.sol\":570:577  val % 5 */\n      tag_27\n      swap2\n      swap1\n      tag_14\n      jump\t// in\n    tag_27:\n        /* \"contracts/IntToRoman.sol\":562:567  count */\n      dup2\n        /* \"contracts/IntToRoman.sol\":562:577  count < val % 5 */\n      lt\n        /* \"contracts/IntToRoman.sol\":541:661  for (uint count = 0; count < val % 5; count++) {... */\n      iszero\n      tag_25\n      jumpi\n        /* \"contracts/IntToRoman.sol\":633:636  one */\n      dup3\n        /* \"contracts/IntToRoman.sol\":638:641  buf */\n      dup7\n        /* \"contracts/IntToRoman.sol\":616:642  abi.encodePacked(one, buf) */\n      add(0x20, mload(0x40))\n      tag_28\n      swap3\n      swap2\n      swap1\n      tag_29\n      jump\t// in\n    tag_28:\n      mload(0x40)\n      0x20\n      dup2\n      dup4\n      sub\n      sub\n      dup2\n      mstore\n      swap1\n      0x40\n      mstore\n        /* \"contracts/IntToRoman.sol\":610:642  buf = abi.encodePacked(one, buf) */\n      swap6\n      pop\n        /* \"contracts/IntToRoman.sol\":579:586  count++ */\n      dup1\n      dup1\n      0x01\n      add\n      swap2\n      pop\n      pop\n        /* \"contracts/IntToRoman.sol\":541:661  for (uint count = 0; count < val % 5; count++) {... */\n      jump(tag_24)\n    tag_25:\n      pop\n        /* \"contracts/IntToRoman.sol\":689:690  5 */\n      0x05\n        /* \"contracts/IntToRoman.sol\":682:685  val */\n      dup4\n        /* \"contracts/IntToRoman.sol\":682:690  val >= 5 */\n      lt\n        /* \"contracts/IntToRoman.sol\":678:766  if (val >= 5) {... */\n      tag_30\n      jumpi\n        /* \"contracts/IntToRoman.sol\":737:741  five */\n      dup1\n        /* \"contracts/IntToRoman.sol\":743:746  buf */\n      dup6\n        /* \"contracts/IntToRoman.sol\":720:747  abi.encodePacked(five, buf) */\n      add(0x20, mload(0x40))\n      tag_31\n      swap3\n      swap2\n      swap1\n      tag_29\n      jump\t// in\n    tag_31:\n      mload(0x40)\n      0x20\n      dup2\n      dup4\n      sub\n      sub\n      dup2\n      mstore\n      swap1\n      0x40\n      mstore\n        /* \"contracts/IntToRoman.sol\":714:747  buf = abi.encodePacked(five, buf) */\n      swap5\n      pop\n        /* \"contracts/IntToRoman.sol\":678:766  if (val >= 5) {... */\n    tag_30:\n        /* \"contracts/IntToRoman.sol\":505:983  if (val % 5 != 4) {... */\n      jump(tag_32)\n    tag_23:\n        /* \"contracts/IntToRoman.sol\":797:798  4 */\n      0x04\n        /* \"contracts/IntToRoman.sol\":790:793  val */\n      dup4\n        /* \"contracts/IntToRoman.sol\":790:798  val == 4 */\n      sub\n        /* \"contracts/IntToRoman.sol\":786:983  if (val == 4) {... */\n      tag_33\n      jumpi\n        /* \"contracts/IntToRoman.sol\":841:844  one */\n      dup2\n        /* \"contracts/IntToRoman.sol\":846:850  five */\n      dup2\n        /* \"contracts/IntToRoman.sol\":852:855  buf */\n      dup7\n        /* \"contracts/IntToRoman.sol\":824:856  abi.encodePacked(one, five, buf) */\n      add(0x20, mload(0x40))\n      tag_34\n      swap4\n      swap3\n      swap2\n      swap1\n      tag_35\n      jump\t// in\n    tag_34:\n      mload(0x40)\n      0x20\n      dup2\n      dup4\n      sub\n      sub\n      dup2\n      mstore\n      swap1\n      0x40\n      mstore\n        /* \"contracts/IntToRoman.sol\":818:856  buf = abi.encodePacked(one, five, buf) */\n      swap5\n      pop\n        /* \"contracts/IntToRoman.sol\":786:983  if (val == 4) {... */\n      jump(tag_36)\n    tag_33:\n        /* \"contracts/IntToRoman.sol\":948:951  one */\n      dup2\n        /* \"contracts/IntToRoman.sol\":953:957  ones */\n      0x00\n        /* \"contracts/IntToRoman.sol\":960:961  1 */\n      0x01\n        /* \"contracts/IntToRoman.sol\":958:959  i */\n      dup7\n        /* \"contracts/IntToRoman.sol\":958:961  i+1 */\n      tag_37\n      swap2\n      swap1\n      tag_38\n      jump\t// in\n    tag_37:\n        /* \"contracts/IntToRoman.sol\":953:962  ones[i+1] */\n      0x04\n      dup2\n      lt\n      tag_39\n      jumpi\n      tag_40\n      tag_17\n      jump\t// in\n    tag_40:\n    tag_39:\n      0x20\n      swap2\n      dup3\n      dup3\n      div\n      add\n      swap2\n      swap1\n      mod\n      swap1\n      sload\n      swap1\n      0x0100\n      exp\n      swap1\n      div\n      0xf8\n      shl\n        /* \"contracts/IntToRoman.sol\":964:967  buf */\n      dup7\n        /* \"contracts/IntToRoman.sol\":931:968  abi.encodePacked(one, ones[i+1], buf) */\n      add(0x20, mload(0x40))\n      tag_42\n      swap4\n      swap3\n      swap2\n      swap1\n      tag_35\n      jump\t// in\n    tag_42:\n      mload(0x40)\n      0x20\n      dup2\n      dup4\n      sub\n      sub\n      dup2\n      mstore\n      swap1\n      0x40\n      mstore\n        /* \"contracts/IntToRoman.sol\":925:968  buf = abi.encodePacked(one, ones[i+1], buf) */\n      swap5\n      pop\n        /* \"contracts/IntToRoman.sol\":786:983  if (val == 4) {... */\n    tag_36:\n        /* \"contracts/IntToRoman.sol\":505:983  if (val % 5 != 4) {... */\n    tag_32:\n        /* \"contracts/IntToRoman.sol\":1003:1005  10 */\n      0x0a\n        /* \"contracts/IntToRoman.sol\":996:1005  num /= 10 */\n      dup8\n      tag_43\n      swap2\n      swap1\n      tag_44\n      jump\t// in\n    tag_43:\n      swap7\n      pop\n        /* \"contracts/IntToRoman.sol\":1019:1022  i++ */\n      dup4\n      dup1\n      tag_45\n      swap1\n      tag_46\n      jump\t// in\n    tag_45:\n      swap5\n      pop\n      pop\n        /* \"contracts/IntToRoman.sol\":388:1033  {... */\n      pop\n      pop\n      pop\n        /* \"contracts/IntToRoman.sol\":372:1033  while (num > 0) {... */\n      jump(tag_11)\n    tag_12:\n        /* \"contracts/IntToRoman.sol\":1056:1059  buf */\n      dup2\n        /* \"contracts/IntToRoman.sol\":1042:1060  return string(buf) */\n      swap3\n      pop\n      pop\n      pop\n        /* \"contracts/IntToRoman.sol\":250:1067  function intToRoma (uint num)  public view returns (string memory){... */\n      swap2\n      swap1\n      pop\n      jump\t// out\n        /* \"#utility.yul\":88:205   */\n    tag_48:\n        /* \"#utility.yul\":197:198   */\n      0x00\n        /* \"#utility.yul\":194:195   */\n      0x00\n        /* \"#utility.yul\":187:199   */\n      revert\n        /* \"#utility.yul\":334:411   */\n    tag_50:\n        /* \"#utility.yul\":371:378   */\n      0x00\n        /* \"#utility.yul\":400:405   */\n      dup2\n        /* \"#utility.yul\":389:405   */\n      swap1\n      pop\n        /* \"#utility.yul\":334:411   */\n      swap2\n      swap1\n      pop\n      jump\t// out\n        /* \"#utility.yul\":417:539   */\n    tag_51:\n        /* \"#utility.yul\":490:514   */\n      tag_72\n        /* \"#utility.yul\":508:513   */\n      dup2\n        /* \"#utility.yul\":490:514   */\n      tag_50\n      jump\t// in\n    tag_72:\n        /* \"#utility.yul\":483:488   */\n      dup2\n        /* \"#utility.yul\":480:515   */\n      eq\n        /* \"#utility.yul\":470:533   */\n      tag_73\n      jumpi\n        /* \"#utility.yul\":529:530   */\n      0x00\n        /* \"#utility.yul\":526:527   */\n      0x00\n        /* \"#utility.yul\":519:531   */\n      revert\n        /* \"#utility.yul\":470:533   */\n    tag_73:\n        /* \"#utility.yul\":417:539   */\n      pop\n      jump\t// out\n        /* \"#utility.yul\":545:684   */\n    tag_52:\n        /* \"#utility.yul\":591:596   */\n      0x00\n        /* \"#utility.yul\":629:635   */\n      dup2\n        /* \"#utility.yul\":616:636   */\n      calldataload\n        /* \"#utility.yul\":607:636   */\n      swap1\n      pop\n        /* \"#utility.yul\":645:678   */\n      tag_75\n        /* \"#utility.yul\":672:677   */\n      dup2\n        /* \"#utility.yul\":645:678   */\n      tag_51\n      jump\t// in\n    tag_75:\n        /* \"#utility.yul\":545:684   */\n      swap3\n      swap2\n      pop\n      pop\n      jump\t// out\n        /* \"#utility.yul\":690:1019   */\n    tag_6:\n        /* \"#utility.yul\":749:755   */\n      0x00\n        /* \"#utility.yul\":798:800   */\n      0x20\n        /* \"#utility.yul\":786:795   */\n      dup3\n        /* \"#utility.yul\":777:784   */\n      dup5\n        /* \"#utility.yul\":773:796   */\n      sub\n        /* \"#utility.yul\":769:801   */\n      slt\n        /* \"#utility.yul\":766:885   */\n      iszero\n      tag_77\n      jumpi\n        /* \"#utility.yul\":804:883   */\n      tag_78\n      tag_48\n      jump\t// in\n    tag_78:\n        /* \"#utility.yul\":766:885   */\n    tag_77:\n        /* \"#utility.yul\":924:925   */\n      0x00\n        /* \"#utility.yul\":949:1002   */\n      tag_79\n        /* \"#utility.yul\":994:1001   */\n      dup5\n        /* \"#utility.yul\":985:991   */\n      dup3\n        /* \"#utility.yul\":974:983   */\n      dup6\n        /* \"#utility.yul\":970:992   */\n      add\n        /* \"#utility.yul\":949:1002   */\n      tag_52\n      jump\t// in\n    tag_79:\n        /* \"#utility.yul\":939:1002   */\n      swap2\n      pop\n        /* \"#utility.yul\":895:1012   */\n      pop\n        /* \"#utility.yul\":690:1019   */\n      swap3\n      swap2\n      pop\n      pop\n      jump\t// out\n        /* \"#utility.yul\":1025:1124   */\n    tag_53:\n        /* \"#utility.yul\":1077:1083   */\n      0x00\n        /* \"#utility.yul\":1111:1116   */\n      dup2\n        /* \"#utility.yul\":1105:1117   */\n      mload\n        /* \"#utility.yul\":1095:1117   */\n      swap1\n      pop\n        /* \"#utility.yul\":1025:1124   */\n      swap2\n      swap1\n      pop\n      jump\t// out\n        /* \"#utility.yul\":1130:1299   */\n    tag_54:\n        /* \"#utility.yul\":1214:1225   */\n      0x00\n        /* \"#utility.yul\":1248:1254   */\n      dup3\n        /* \"#utility.yul\":1243:1246   */\n      dup3\n        /* \"#utility.yul\":1236:1255   */\n      mstore\n        /* \"#utility.yul\":1288:1292   */\n      0x20\n        /* \"#utility.yul\":1283:1286   */\n      dup3\n        /* \"#utility.yul\":1279:1293   */\n      add\n        /* \"#utility.yul\":1264:1293   */\n      swap1\n      pop\n        /* \"#utility.yul\":1130:1299   */\n      swap3\n      swap2\n      pop\n      pop\n      jump\t// out\n        /* \"#utility.yul\":1305:1444   */\n    tag_55:\n        /* \"#utility.yul\":1394:1400   */\n      dup3\n        /* \"#utility.yul\":1389:1392   */\n      dup2\n        /* \"#utility.yul\":1384:1387   */\n      dup4\n        /* \"#utility.yul\":1378:1401   */\n      mcopy\n        /* \"#utility.yul\":1435:1436   */\n      0x00\n        /* \"#utility.yul\":1426:1432   */\n      dup4\n        /* \"#utility.yul\":1421:1424   */\n      dup4\n        /* \"#utility.yul\":1417:1433   */\n      add\n        /* \"#utility.yul\":1410:1437   */\n      mstore\n        /* \"#utility.yul\":1305:1444   */\n      pop\n      pop\n      pop\n      jump\t// out\n        /* \"#utility.yul\":1450:1552   */\n    tag_56:\n        /* \"#utility.yul\":1491:1497   */\n      0x00\n        /* \"#utility.yul\":1542:1544   */\n      0x1f\n        /* \"#utility.yul\":1538:1545   */\n      not\n        /* \"#utility.yul\":1533:1535   */\n      0x1f\n        /* \"#utility.yul\":1526:1531   */\n      dup4\n        /* \"#utility.yul\":1522:1536   */\n      add\n        /* \"#utility.yul\":1518:1546   */\n      and\n        /* \"#utility.yul\":1508:1546   */\n      swap1\n      pop\n        /* \"#utility.yul\":1450:1552   */\n      swap2\n      swap1\n      pop\n      jump\t// out\n        /* \"#utility.yul\":1558:1935   */\n    tag_57:\n        /* \"#utility.yul\":1646:1649   */\n      0x00\n        /* \"#utility.yul\":1674:1713   */\n      tag_85\n        /* \"#utility.yul\":1707:1712   */\n      dup3\n        /* \"#utility.yul\":1674:1713   */\n      tag_53\n      jump\t// in\n    tag_85:\n        /* \"#utility.yul\":1729:1800   */\n      tag_86\n        /* \"#utility.yul\":1793:1799   */\n      dup2\n        /* \"#utility.yul\":1788:1791   */\n      dup6\n        /* \"#utility.yul\":1729:1800   */\n      tag_54\n      jump\t// in\n    tag_86:\n        /* \"#utility.yul\":1722:1800   */\n      swap4\n      pop\n        /* \"#utility.yul\":1809:1874   */\n      tag_87\n        /* \"#utility.yul\":1867:1873   */\n      dup2\n        /* \"#utility.yul\":1862:1865   */\n      dup6\n        /* \"#utility.yul\":1855:1859   */\n      0x20\n        /* \"#utility.yul\":1848:1853   */\n      dup7\n        /* \"#utility.yul\":1844:1860   */\n      add\n        /* \"#utility.yul\":1809:1874   */\n      tag_55\n      jump\t// in\n    tag_87:\n        /* \"#utility.yul\":1899:1928   */\n      tag_88\n        /* \"#utility.yul\":1921:1927   */\n      dup2\n        /* \"#utility.yul\":1899:1928   */\n      tag_56\n      jump\t// in\n    tag_88:\n        /* \"#utility.yul\":1894:1897   */\n      dup5\n        /* \"#utility.yul\":1890:1929   */\n      add\n        /* \"#utility.yul\":1883:1929   */\n      swap2\n      pop\n        /* \"#utility.yul\":1650:1935   */\n      pop\n        /* \"#utility.yul\":1558:1935   */\n      swap3\n      swap2\n      pop\n      pop\n      jump\t// out\n        /* \"#utility.yul\":1941:2254   */\n    tag_9:\n        /* \"#utility.yul\":2054:2058   */\n      0x00\n        /* \"#utility.yul\":2092:2094   */\n      0x20\n        /* \"#utility.yul\":2081:2090   */\n      dup3\n        /* \"#utility.yul\":2077:2095   */\n      add\n        /* \"#utility.yul\":2069:2095   */\n      swap1\n      pop\n        /* \"#utility.yul\":2141:2150   */\n      dup2\n        /* \"#utility.yul\":2135:2139   */\n      dup2\n        /* \"#utility.yul\":2131:2151   */\n      sub\n        /* \"#utility.yul\":2127:2128   */\n      0x00\n        /* \"#utility.yul\":2116:2125   */\n      dup4\n        /* \"#utility.yul\":2112:2129   */\n      add\n        /* \"#utility.yul\":2105:2152   */\n      mstore\n        /* \"#utility.yul\":2169:2247   */\n      tag_90\n        /* \"#utility.yul\":2242:2246   */\n      dup2\n        /* \"#utility.yul\":2233:2239   */\n      dup5\n        /* \"#utility.yul\":2169:2247   */\n      tag_57\n      jump\t// in\n    tag_90:\n        /* \"#utility.yul\":2161:2247   */\n      swap1\n      pop\n        /* \"#utility.yul\":1941:2254   */\n      swap3\n      swap2\n      pop\n      pop\n      jump\t// out\n        /* \"#utility.yul\":2260:2440   */\n    tag_58:\n        /* \"#utility.yul\":2308:2385   */\n      0x4e487b7100000000000000000000000000000000000000000000000000000000\n        /* \"#utility.yul\":2305:2306   */\n      0x00\n        /* \"#utility.yul\":2298:2386   */\n      mstore\n        /* \"#utility.yul\":2405:2409   */\n      0x12\n        /* \"#utility.yul\":2402:2403   */\n      0x04\n        /* \"#utility.yul\":2395:2410   */\n      mstore\n        /* \"#utility.yul\":2429:2433   */\n      0x24\n        /* \"#utility.yul\":2426:2427   */\n      0x00\n        /* \"#utility.yul\":2419:2434   */\n      revert\n        /* \"#utility.yul\":2446:2622   */\n    tag_14:\n        /* \"#utility.yul\":2478:2479   */\n      0x00\n        /* \"#utility.yul\":2495:2515   */\n      tag_93\n        /* \"#utility.yul\":2513:2514   */\n      dup3\n        /* \"#utility.yul\":2495:2515   */\n      tag_50\n      jump\t// in\n    tag_93:\n        /* \"#utility.yul\":2490:2515   */\n      swap2\n      pop\n        /* \"#utility.yul\":2529:2549   */\n      tag_94\n        /* \"#utility.yul\":2547:2548   */\n      dup4\n        /* \"#utility.yul\":2529:2549   */\n      tag_50\n      jump\t// in\n    tag_94:\n        /* \"#utility.yul\":2524:2549   */\n      swap3\n      pop\n        /* \"#utility.yul\":2568:2569   */\n      dup3\n        /* \"#utility.yul\":2558:2593   */\n      tag_95\n      jumpi\n        /* \"#utility.yul\":2573:2591   */\n      tag_96\n      tag_58\n      jump\t// in\n    tag_96:\n        /* \"#utility.yul\":2558:2593   */\n    tag_95:\n        /* \"#utility.yul\":2614:2615   */\n      dup3\n        /* \"#utility.yul\":2611:2612   */\n      dup3\n        /* \"#utility.yul\":2607:2616   */\n      mod\n        /* \"#utility.yul\":2602:2616   */\n      swap1\n      pop\n        /* \"#utility.yul\":2446:2622   */\n      swap3\n      swap2\n      pop\n      pop\n      jump\t// out\n        /* \"#utility.yul\":2628:2808   */\n    tag_17:\n        /* \"#utility.yul\":2676:2753   */\n      0x4e487b7100000000000000000000000000000000000000000000000000000000\n        /* \"#utility.yul\":2673:2674   */\n      0x00\n        /* \"#utility.yul\":2666:2754   */\n      mstore\n        /* \"#utility.yul\":2773:2777   */\n      0x32\n        /* \"#utility.yul\":2770:2771   */\n      0x04\n        /* \"#utility.yul\":2763:2778   */\n      mstore\n        /* \"#utility.yul\":2797:2801   */\n      0x24\n        /* \"#utility.yul\":2794:2795   */\n      0x00\n        /* \"#utility.yul\":2787:2802   */\n      revert\n        /* \"#utility.yul\":2814:2963   */\n    tag_59:\n        /* \"#utility.yul\":2850:2857   */\n      0x00\n        /* \"#utility.yul\":2890:2956   */\n      0xff00000000000000000000000000000000000000000000000000000000000000\n        /* \"#utility.yul\":2883:2888   */\n      dup3\n        /* \"#utility.yul\":2879:2957   */\n      and\n        /* \"#utility.yul\":2868:2957   */\n      swap1\n      pop\n        /* \"#utility.yul\":2814:2963   */\n      swap2\n      swap1\n      pop\n      jump\t// out\n        /* \"#utility.yul\":2969:3047   */\n    tag_60:\n        /* \"#utility.yul\":3007:3014   */\n      0x00\n        /* \"#utility.yul\":3036:3041   */\n      dup2\n        /* \"#utility.yul\":3025:3041   */\n      swap1\n      pop\n        /* \"#utility.yul\":2969:3047   */\n      swap2\n      swap1\n      pop\n      jump\t// out\n        /* \"#utility.yul\":3053:3206   */\n    tag_61:\n        /* \"#utility.yul\":3156:3199   */\n      tag_101\n        /* \"#utility.yul\":3175:3198   */\n      tag_102\n        /* \"#utility.yul\":3192:3197   */\n      dup3\n        /* \"#utility.yul\":3175:3198   */\n      tag_59\n      jump\t// in\n    tag_102:\n        /* \"#utility.yul\":3156:3199   */\n      tag_60\n      jump\t// in\n    tag_101:\n        /* \"#utility.yul\":3151:3154   */\n      dup3\n        /* \"#utility.yul\":3144:3200   */\n      mstore\n        /* \"#utility.yul\":3053:3206   */\n      pop\n      pop\n      jump\t// out\n        /* \"#utility.yul\":3212:3310   */\n    tag_62:\n        /* \"#utility.yul\":3263:3269   */\n      0x00\n        /* \"#utility.yul\":3297:3302   */\n      dup2\n        /* \"#utility.yul\":3291:3303   */\n      mload\n        /* \"#utility.yul\":3281:3303   */\n      swap1\n      pop\n        /* \"#utility.yul\":3212:3310   */\n      swap2\n      swap1\n      pop\n      jump\t// out\n        /* \"#utility.yul\":3316:3463   */\n    tag_63:\n        /* \"#utility.yul\":3417:3428   */\n      0x00\n        /* \"#utility.yul\":3454:3457   */\n      dup2\n        /* \"#utility.yul\":3439:3457   */\n      swap1\n      pop\n        /* \"#utility.yul\":3316:3463   */\n      swap3\n      swap2\n      pop\n      pop\n      jump\t// out\n        /* \"#utility.yul\":3469:3855   */\n    tag_64:\n        /* \"#utility.yul\":3573:3576   */\n      0x00\n        /* \"#utility.yul\":3601:3639   */\n      tag_106\n        /* \"#utility.yul\":3633:3638   */\n      dup3\n        /* \"#utility.yul\":3601:3639   */\n      tag_62\n      jump\t// in\n    tag_106:\n        /* \"#utility.yul\":3655:3743   */\n      tag_107\n        /* \"#utility.yul\":3736:3742   */\n      dup2\n        /* \"#utility.yul\":3731:3734   */\n      dup6\n        /* \"#utility.yul\":3655:3743   */\n      tag_63\n      jump\t// in\n    tag_107:\n        /* \"#utility.yul\":3648:3743   */\n      swap4\n      pop\n        /* \"#utility.yul\":3752:3817   */\n      tag_108\n        /* \"#utility.yul\":3810:3816   */\n      dup2\n        /* \"#utility.yul\":3805:3808   */\n      dup6\n        /* \"#utility.yul\":3798:3802   */\n      0x20\n        /* \"#utility.yul\":3791:3796   */\n      dup7\n        /* \"#utility.yul\":3787:3803   */\n      add\n        /* \"#utility.yul\":3752:3817   */\n      tag_55\n      jump\t// in\n    tag_108:\n        /* \"#utility.yul\":3842:3848   */\n      dup1\n        /* \"#utility.yul\":3837:3840   */\n      dup5\n        /* \"#utility.yul\":3833:3849   */\n      add\n        /* \"#utility.yul\":3826:3849   */\n      swap2\n      pop\n        /* \"#utility.yul\":3577:3855   */\n      pop\n        /* \"#utility.yul\":3469:3855   */\n      swap3\n      swap2\n      pop\n      pop\n      jump\t// out\n        /* \"#utility.yul\":3861:4268   */\n    tag_29:\n        /* \"#utility.yul\":4017:4020   */\n      0x00\n        /* \"#utility.yul\":4032:4105   */\n      tag_110\n        /* \"#utility.yul\":4101:4104   */\n      dup3\n        /* \"#utility.yul\":4092:4098   */\n      dup6\n        /* \"#utility.yul\":4032:4105   */\n      tag_61\n      jump\t// in\n    tag_110:\n        /* \"#utility.yul\":4130:4131   */\n      0x01\n        /* \"#utility.yul\":4125:4128   */\n      dup3\n        /* \"#utility.yul\":4121:4132   */\n      add\n        /* \"#utility.yul\":4114:4132   */\n      swap2\n      pop\n        /* \"#utility.yul\":4149:4242   */\n      tag_111\n        /* \"#utility.yul\":4238:4241   */\n      dup3\n        /* \"#utility.yul\":4229:4235   */\n      dup5\n        /* \"#utility.yul\":4149:4242   */\n      tag_64\n      jump\t// in\n    tag_111:\n        /* \"#utility.yul\":4142:4242   */\n      swap2\n      pop\n        /* \"#utility.yul\":4259:4262   */\n      dup2\n        /* \"#utility.yul\":4252:4262   */\n      swap1\n      pop\n        /* \"#utility.yul\":3861:4268   */\n      swap4\n      swap3\n      pop\n      pop\n      pop\n      jump\t// out\n        /* \"#utility.yul\":4274:4817   */\n    tag_35:\n        /* \"#utility.yul\":4456:4459   */\n      0x00\n        /* \"#utility.yul\":4471:4544   */\n      tag_113\n        /* \"#utility.yul\":4540:4543   */\n      dup3\n        /* \"#utility.yul\":4531:4537   */\n      dup7\n        /* \"#utility.yul\":4471:4544   */\n      tag_61\n      jump\t// in\n    tag_113:\n        /* \"#utility.yul\":4569:4570   */\n      0x01\n        /* \"#utility.yul\":4564:4567   */\n      dup3\n        /* \"#utility.yul\":4560:4571   */\n      add\n        /* \"#utility.yul\":4553:4571   */\n      swap2\n      pop\n        /* \"#utility.yul\":4581:4654   */\n      tag_114\n        /* \"#utility.yul\":4650:4653   */\n      dup3\n        /* \"#utility.yul\":4641:4647   */\n      dup6\n        /* \"#utility.yul\":4581:4654   */\n      tag_61\n      jump\t// in\n    tag_114:\n        /* \"#utility.yul\":4679:4680   */\n      0x01\n        /* \"#utility.yul\":4674:4677   */\n      dup3\n        /* \"#utility.yul\":4670:4681   */\n      add\n        /* \"#utility.yul\":4663:4681   */\n      swap2\n      pop\n        /* \"#utility.yul\":4698:4791   */\n      tag_115\n        /* \"#utility.yul\":4787:4790   */\n      dup3\n        /* \"#utility.yul\":4778:4784   */\n      dup5\n        /* \"#utility.yul\":4698:4791   */\n      tag_64\n      jump\t// in\n    tag_115:\n        /* \"#utility.yul\":4691:4791   */\n      swap2\n      pop\n        /* \"#utility.yul\":4808:4811   */\n      dup2\n        /* \"#utility.yul\":4801:4811   */\n      swap1\n      pop\n        /* \"#utility.yul\":4274:4817   */\n      swap5\n      swap4\n      pop\n      pop\n      pop\n      pop\n      jump\t// out\n        /* \"#utility.yul\":4823:5003   */\n    tag_65:\n        /* \"#utility.yul\":4871:4948   */\n      0x4e487b7100000000000000000000000000000000000000000000000000000000\n        /* \"#utility.yul\":4868:4869   */\n      0x00\n        /* \"#utility.yul\":4861:4949   */\n      mstore\n        /* \"#utility.yul\":4968:4972   */\n      0x11\n        /* \"#utility.yul\":4965:4966   */\n      0x04\n        /* \"#utility.yul\":4958:4973   */\n      mstore\n        /* \"#utility.yul\":4992:4996   */\n      0x24\n        /* \"#utility.yul\":4989:4990   */\n      0x00\n        /* \"#utility.yul\":4982:4997   */\n      revert\n        /* \"#utility.yul\":5009:5200   */\n    tag_38:\n        /* \"#utility.yul\":5049:5052   */\n      0x00\n        /* \"#utility.yul\":5068:5088   */\n      tag_118\n        /* \"#utility.yul\":5086:5087   */\n      dup3\n        /* \"#utility.yul\":5068:5088   */\n      tag_50\n      jump\t// in\n    tag_118:\n        /* \"#utility.yul\":5063:5088   */\n      swap2\n      pop\n        /* \"#utility.yul\":5102:5122   */\n      tag_119\n        /* \"#utility.yul\":5120:5121   */\n      dup4\n        /* \"#utility.yul\":5102:5122   */\n      tag_50\n      jump\t// in\n    tag_119:\n        /* \"#utility.yul\":5097:5122   */\n      swap3\n      pop\n        /* \"#utility.yul\":5145:5146   */\n      dup3\n        /* \"#utility.yul\":5142:5143   */\n      dup3\n        /* \"#utility.yul\":5138:5147   */\n      add\n        /* \"#utility.yul\":5131:5147   */\n      swap1\n      pop\n        /* \"#utility.yul\":5166:5169   */\n      dup1\n        /* \"#utility.yul\":5163:5164   */\n      dup3\n        /* \"#utility.yul\":5160:5170   */\n      gt\n        /* \"#utility.yul\":5157:5193   */\n      iszero\n      tag_120\n      jumpi\n        /* \"#utility.yul\":5173:5191   */\n      tag_121\n      tag_65\n      jump\t// in\n    tag_121:\n        /* \"#utility.yul\":5157:5193   */\n    tag_120:\n        /* \"#utility.yul\":5009:5200   */\n      swap3\n      swap2\n      pop\n      pop\n      jump\t// out\n        /* \"#utility.yul\":5206:5391   */\n    tag_44:\n        /* \"#utility.yul\":5246:5247   */\n      0x00\n        /* \"#utility.yul\":5263:5283   */\n      tag_123\n        /* \"#utility.yul\":5281:5282   */\n      dup3\n        /* \"#utility.yul\":5263:5283   */\n      tag_50\n      jump\t// in\n    tag_123:\n        /* \"#utility.yul\":5258:5283   */\n      swap2\n      pop\n        /* \"#utility.yul\":5297:5317   */\n      tag_124\n        /* \"#utility.yul\":5315:5316   */\n      dup4\n        /* \"#utility.yul\":5297:5317   */\n      tag_50\n      jump\t// in\n    tag_124:\n        /* \"#utility.yul\":5292:5317   */\n      swap3\n      pop\n        /* \"#utility.yul\":5336:5337   */\n      dup3\n        /* \"#utility.yul\":5326:5361   */\n      tag_125\n      jumpi\n        /* \"#utility.yul\":5341:5359   */\n      tag_126\n      tag_58\n      jump\t// in\n    tag_126:\n        /* \"#utility.yul\":5326:5361   */\n    tag_125:\n        /* \"#utility.yul\":5383:5384   */\n      dup3\n        /* \"#utility.yul\":5380:5381   */\n      dup3\n        /* \"#utility.yul\":5376:5385   */\n      div\n        /* \"#utility.yul\":5371:5385   */\n      swap1\n      pop\n        /* \"#utility.yul\":5206:5391   */\n      swap3\n      swap2\n      pop\n      pop\n      jump\t// out\n        /* \"#utility.yul\":5397:5630   */\n    tag_46:\n        /* \"#utility.yul\":5436:5439   */\n      0x00\n        /* \"#utility.yul\":5459:5483   */\n      tag_128\n        /* \"#utility.yul\":5477:5482   */\n      dup3\n        /* \"#utility.yul\":5459:5483   */\n      tag_50\n      jump\t// in\n    tag_128:\n        /* \"#utility.yul\":5450:5483   */\n      swap2\n      pop\n        /* \"#utility.yul\":5505:5571   */\n      0xffffffffffffffffffffffffffffffffffffffffffffffffffffffffffffffff\n        /* \"#utility.yul\":5498:5503   */\n      dup3\n        /* \"#utility.yul\":5495:5572   */\n      sub\n        /* \"#utility.yul\":5492:5595   */\n      tag_129\n      jumpi\n        /* \"#utility.yul\":5575:5593   */\n      tag_130\n      tag_65\n      jump\t// in\n    tag_130:\n        /* \"#utility.yul\":5492:5595   */\n    tag_129:\n        /* \"#utility.yul\":5622:5623   */\n      0x01\n        /* \"#utility.yul\":5615:5620   */\n      dup3\n        /* \"#utility.yul\":5611:5624   */\n      add\n        /* \"#utility.yul\":5604:5624   */\n      swap1\n      pop\n        /* \"#utility.yul\":5397:5630   */\n      swap2\n      swap1\n      pop\n      jump\t// out\n\n    auxdata: 0xa264697066735822122065fdfc2a94c173499824f108fb554ae844fb20ffbc6cdaa98ffe29fa50d340d864736f6c634300081f0033\n}\n",
				"bytecode": {
					"linkReferences": {},
					"object": "608060405234801561000f575f5ffd5b5060405180608001604052807f49000000000000000000000000000000000000000000000000000000000000007effffffffffffffffffffffffffffffffffffffffffffffffffffffffffffff19167effffffffffffffffffffffffffffffffffffffffffffffffffffffffffffff191681526020017f58000000000000000000000000000000000000000000000000000000000000007effffffffffffffffffffffffffffffffffffffffffffffffffffffffffffff191681526020017f43000000000000000000000000000000000000000000000000000000000000007effffffffffffffffffffffffffffffffffffffffffffffffffffffffffffff191681526020017f4d000000000000000000000000000000000000000000000000000000000000007effffffffffffffffffffffffffffffffffffffffffffffffffffffffffffff19168152505f90600461016a9291906102d1565b5060405180608001604052807f56000000000000000000000000000000000000000000000000000000000000007effffffffffffffffffffffffffffffffffffffffffffffffffffffffffffff19167effffffffffffffffffffffffffffffffffffffffffffffffffffffffffffff191681526020017f4c000000000000000000000000000000000000000000000000000000000000007effffffffffffffffffffffffffffffffffffffffffffffffffffffffffffff191681526020017f44000000000000000000000000000000000000000000000000000000000000007effffffffffffffffffffffffffffffffffffffffffffffffffffffffffffff191681526020015f60f81b7effffffffffffffffffffffffffffffffffffffffffffffffffffffffffffff19167effffffffffffffffffffffffffffffffffffffffffffffffffffffffffffff191681525060019060046102cb9291906102d1565b50610383565b826004601f01602090048101928215610357579160200282015f5b8382111561032957835183826101000a81548160ff021916908360f81c021790555092602001926001016020815f010492830192600103026102ec565b80156103555782816101000a81549060ff02191690556001016020815f01049283019260010302610329565b505b5090506103649190610368565b5090565b5b8082111561037f575f815f905550600101610369565b5090565b61059c806103905f395ff3fe608060405234801561000f575f5ffd5b5060043610610029575f3560e01c80631ae1e4041461002d575b5f5ffd5b6100476004803603810190610042919061025c565b61005d565b60405161005491906102f7565b60405180910390f35b6060805f5f90505b5f84111561021b575f600a8561007b9190610344565b90505f5f836004811061009157610090610374565b5b602091828204019190069054906101000a900460f81b90505f600184600481106100be576100bd610374565b5b602091828204019190069054906101000a900460f81b905060046005846100e59190610344565b14610167575f5f90505b6005846100fc9190610344565b811015610134578286604051602001610116929190610430565b604051602081830303815290604052955080806001019150506100ef565b5060058310610162578085604051602001610150929190610430565b60405160208183030381529060405294505b6101f6565b6004830361019a5781818660405160200161018493929190610457565b60405160208183030381529060405294506101f5565b815f6001866101a991906104bc565b600481106101ba576101b9610374565b5b602091828204019190069054906101000a900460f81b866040516020016101e393929190610457565b60405160208183030381529060405294505b5b600a8761020391906104ef565b965083806102109061051f565b945050505050610065565b8192505050919050565b5f5ffd5b5f819050919050565b61023b81610229565b8114610245575f5ffd5b50565b5f8135905061025681610232565b92915050565b5f6020828403121561027157610270610225565b5b5f61027e84828501610248565b91505092915050565b5f81519050919050565b5f82825260208201905092915050565b8281835e5f83830152505050565b5f601f19601f8301169050919050565b5f6102c982610287565b6102d38185610291565b93506102e38185602086016102a1565b6102ec816102af565b840191505092915050565b5f6020820190508181035f83015261030f81846102bf565b905092915050565b7f4e487b71000000000000000000000000000000000000000000000000000000005f52601260045260245ffd5b5f61034e82610229565b915061035983610229565b92508261036957610368610317565b5b828206905092915050565b7f4e487b71000000000000000000000000000000000000000000000000000000005f52603260045260245ffd5b5f7fff0000000000000000000000000000000000000000000000000000000000000082169050919050565b5f819050919050565b6103e66103e1826103a1565b6103cc565b82525050565b5f81519050919050565b5f81905092915050565b5f61040a826103ec565b61041481856103f6565b93506104248185602086016102a1565b80840191505092915050565b5f61043b82856103d5565b60018201915061044b8284610400565b91508190509392505050565b5f61046282866103d5565b60018201915061047282856103d5565b6001820191506104828284610400565b9150819050949350505050565b7f4e487b71000000000000000000000000000000000000000000000000000000005f52601160045260245ffd5b5f6104c682610229565b91506104d183610229565b92508282019050808211156104e9576104e861048f565b5b92915050565b5f6104f982610229565b915061050483610229565b92508261051457610513610317565b5b828204905092915050565b5f61052982610229565b91507fffffffffffffffffffffffffffffffffffffffffffffffffffffffffffffffff820361055b5761055a61048f565b5b60018201905091905056fea264697066735822122065fdfc2a94c173499824f108fb554ae844fb20ffbc6cdaa98ffe29fa50d340d864736f6c634300081f0033",
					"opcodes": "PUSH1 0x80 PUSH1 0x40 MSTORE CALLVALUE DUP1 ISZERO PUSH2 0xF JUMPI PUSH0 PUSH0 REVERT JUMPDEST POP PUSH1 0x40 MLOAD DUP1 PUSH1 0x80 ADD PUSH1 0x40 MSTORE DUP1 PUSH32 0x4900000000000000000000000000000000000000000000000000000000000000 PUSH31 0xFFFFFFFFFFFFFFFFFFFFFFFFFFFFFFFFFFFFFFFFFFFFFFFFFFFFFFFFFFFFFF NOT AND PUSH31 0xFFFFFFFFFFFFFFFFFFFFFFFFFFFFFFFFFFFFFFFFFFFFFFFFFFFFFFFFFFFFFF NOT AND DUP2 MSTORE PUSH1 0x20 ADD PUSH32 0x5800000000000000000000000000000000000000000000000000000000000000 PUSH31 0xFFFFFFFFFFFFFFFFFFFFFFFFFFFFFFFFFFFFFFFFFFFFFFFFFFFFFFFFFFFFFF NOT AND DUP2 MSTORE PUSH1 0x20 ADD PUSH32 0x4300000000000000000000000000000000000000000000000000000000000000 PUSH31 0xFFFFFFFFFFFFFFFFFFFFFFFFFFFFFFFFFFFFFFFFFFFFFFFFFFFFFFFFFFFFFF NOT AND DUP2 MSTORE PUSH1 0x20 ADD PUSH32 0x4D00000000000000000000000000000000000000000000000000000000000000 PUSH31 0xFFFFFFFFFFFFFFFFFFFFFFFFFFFFFFFFFFFFFFFFFFFFFFFFFFFFFFFFFFFFFF NOT AND DUP2 MSTORE POP PUSH0 SWAP1 PUSH1 0x4 PUSH2 0x16A SWAP3 SWAP2 SWAP1 PUSH2 0x2D1 JUMP JUMPDEST POP PUSH1 0x40 MLOAD DUP1 PUSH1 0x80 ADD PUSH1 0x40 MSTORE DUP1 PUSH32 0x5600000000000000000000000000000000000000000000000000000000000000 PUSH31 0xFFFFFFFFFFFFFFFFFFFFFFFFFFFFFFFFFFFFFFFFFFFFFFFFFFFFFFFFFFFFFF NOT AND PUSH31 0xFFFFFFFFFFFFFFFFFFFFFFFFFFFFFFFFFFFFFFFFFFFFFFFFFFFFFFFFFFFFFF NOT AND DUP2 MSTORE PUSH1 0x20 ADD PUSH32 0x4C00000000000000000000000000000000000000000000000000000000000000 PUSH31 0xFFFFFFFFFFFFFFFFFFFFFFFFFFFFFFFFFFFFFFFFFFFFFFFFFFFFFFFFFFFFFF NOT AND DUP2 MSTORE PUSH1 0x20 ADD PUSH32 0x4400000000000000000000000000000000000000000000000000000000000000 PUSH31 0xFFFFFFFFFFFFFFFFFFFFFFFFFFFFFFFFFFFFFFFFFFFFFFFFFFFFFFFFFFFFFF NOT AND DUP2 MSTORE PUSH1 0x20 ADD PUSH0 PUSH1 0xF8 SHL PUSH31 0xFFFFFFFFFFFFFFFFFFFFFFFFFFFFFFFFFFFFFFFFFFFFFFFFFFFFFFFFFFFFFF NOT AND PUSH31 0xFFFFFFFFFFFFFFFFFFFFFFFFFFFFFFFFFFFFFFFFFFFFFFFFFFFFFFFFFFFFFF NOT AND DUP2 MSTORE POP PUSH1 0x1 SWAP1 PUSH1 0x4 PUSH2 0x2CB SWAP3 SWAP2 SWAP1 PUSH2 0x2D1 JUMP JUMPDEST POP PUSH2 0x383 JUMP JUMPDEST DUP3 PUSH1 0x4 PUSH1 0x1F ADD PUSH1 0x20 SWAP1 DIV DUP2 ADD SWAP3 DUP3 ISZERO PUSH2 0x357 JUMPI SWAP2 PUSH1 0x20 MUL DUP3 ADD PUSH0 JUMPDEST DUP4 DUP3 GT ISZERO PUSH2 0x329 JUMPI DUP4 MLOAD DUP4 DUP3 PUSH2 0x100 EXP DUP2 SLOAD DUP2 PUSH1 0xFF MUL NOT AND SWAP1 DUP4 PUSH1 0xF8 SHR MUL OR SWAP1 SSTORE POP SWAP3 PUSH1 0x20 ADD SWAP3 PUSH1 0x1 ADD PUSH1 0x20 DUP2 PUSH0 ADD DIV SWAP3 DUP4 ADD SWAP3 PUSH1 0x1 SUB MUL PUSH2 0x2EC JUMP JUMPDEST DUP1 ISZERO PUSH2 0x355 JUMPI DUP3 DUP2 PUSH2 0x100 EXP DUP2 SLOAD SWAP1 PUSH1 0xFF MUL NOT AND SWAP1 SSTORE PUSH1 0x1 ADD PUSH1 0x20 DUP2 PUSH0 ADD DIV SWAP3 DUP4 ADD SWAP3 PUSH1 0x1 SUB MUL PUSH2 0x329 JUMP JUMPDEST POP JUMPDEST POP SWAP1 POP PUSH2 0x364 SWAP2 SWAP1 PUSH2 0x368 JUMP JUMPDEST POP SWAP1 JUMP JUMPDEST JUMPDEST DUP1 DUP3 GT ISZERO PUSH2 0x37F JUMPI PUSH0 DUP2 PUSH0 SWAP1 SSTORE POP PUSH1 0x1 ADD PUSH2 0x369 JUMP JUMPDEST POP SWAP1 JUMP JUMPDEST PUSH2 0x59C DUP1 PUSH2 0x390 PUSH0 CODECOPY PUSH0 RETURN INVALID PUSH1 0x80 PUSH1 0x40 MSTORE CALLVALUE DUP1 ISZERO PUSH2 0xF JUMPI PUSH0 PUSH0 REVERT JUMPDEST POP PUSH1 0x4 CALLDATASIZE LT PUSH2 0x29 JUMPI PUSH0 CALLDATALOAD PUSH1 0xE0 SHR DUP1 PUSH4 0x1AE1E404 EQ PUSH2 0x2D JUMPI JUMPDEST PUSH0 PUSH0 REVERT JUMPDEST PUSH2 0x47 PUSH1 0x4 DUP1 CALLDATASIZE SUB DUP2 ADD SWAP1 PUSH2 0x42 SWAP2 SWAP1 PUSH2 0x25C JUMP JUMPDEST PUSH2 0x5D JUMP JUMPDEST PUSH1 0x40 MLOAD PUSH2 0x54 SWAP2 SWAP1 PUSH2 0x2F7 JUMP JUMPDEST PUSH1 0x40 MLOAD DUP1 SWAP2 SUB SWAP1 RETURN JUMPDEST PUSH1 0x60 DUP1 PUSH0 PUSH0 SWAP1 POP JUMPDEST PUSH0 DUP5 GT ISZERO PUSH2 0x21B JUMPI PUSH0 PUSH1 0xA DUP6 PUSH2 0x7B SWAP2 SWAP1 PUSH2 0x344 JUMP JUMPDEST SWAP1 POP PUSH0 PUSH0 DUP4 PUSH1 0x4 DUP2 LT PUSH2 0x91 JUMPI PUSH2 0x90 PUSH2 0x374 JUMP JUMPDEST JUMPDEST PUSH1 0x20 SWAP2 DUP3 DUP3 DIV ADD SWAP2 SWAP1 MOD SWAP1 SLOAD SWAP1 PUSH2 0x100 EXP SWAP1 DIV PUSH1 0xF8 SHL SWAP1 POP PUSH0 PUSH1 0x1 DUP5 PUSH1 0x4 DUP2 LT PUSH2 0xBE JUMPI PUSH2 0xBD PUSH2 0x374 JUMP JUMPDEST JUMPDEST PUSH1 0x20 SWAP2 DUP3 DUP3 DIV ADD SWAP2 SWAP1 MOD SWAP1 SLOAD SWAP1 PUSH2 0x100 EXP SWAP1 DIV PUSH1 0xF8 SHL SWAP1 POP PUSH1 0x4 PUSH1 0x5 DUP5 PUSH2 0xE5 SWAP2 SWAP1 PUSH2 0x344 JUMP JUMPDEST EQ PUSH2 0x167 JUMPI PUSH0 PUSH0 SWAP1 POP JUMPDEST PUSH1 0x5 DUP5 PUSH2 0xFC SWAP2 SWAP1 PUSH2 0x344 JUMP JUMPDEST DUP2 LT ISZERO PUSH2 0x134 JUMPI DUP3 DUP7 PUSH1 0x40 MLOAD PUSH1 0x20 ADD PUSH2 0x116 SWAP3 SWAP2 SWAP1 PUSH2 0x430 JUMP JUMPDEST PUSH1 0x40 MLOAD PUSH1 0x20 DUP2 DUP4 SUB SUB DUP2 MSTORE SWAP1 PUSH1 0x40 MSTORE SWAP6 POP DUP1 DUP1 PUSH1 0x1 ADD SWAP2 POP POP PUSH2 0xEF JUMP JUMPDEST POP PUSH1 0x5 DUP4 LT PUSH2 0x162 JUMPI DUP1 DUP6 PUSH1 0x40 MLOAD PUSH1 0x20 ADD PUSH2 0x150 SWAP3 SWAP2 SWAP1 PUSH2 0x430 JUMP JUMPDEST PUSH1 0x40 MLOAD PUSH1 0x20 DUP2 DUP4 SUB SUB DUP2 MSTORE SWAP1 PUSH1 0x40 MSTORE SWAP5 POP JUMPDEST PUSH2 0x1F6 JUMP JUMPDEST PUSH1 0x4 DUP4 SUB PUSH2 0x19A JUMPI DUP2 DUP2 DUP7 PUSH1 0x40 MLOAD PUSH1 0x20 ADD PUSH2 0x184 SWAP4 SWAP3 SWAP2 SWAP1 PUSH2 0x457 JUMP JUMPDEST PUSH1 0x40 MLOAD PUSH1 0x20 DUP2 DUP4 SUB SUB DUP2 MSTORE SWAP1 PUSH1 0x40 MSTORE SWAP5 POP PUSH2 0x1F5 JUMP JUMPDEST DUP2 PUSH0 PUSH1 0x1 DUP7 PUSH2 0x1A9 SWAP2 SWAP1 PUSH2 0x4BC JUMP JUMPDEST PUSH1 0x4 DUP2 LT PUSH2 0x1BA JUMPI PUSH2 0x1B9 PUSH2 0x374 JUMP JUMPDEST JUMPDEST PUSH1 0x20 SWAP2 DUP3 DUP3 DIV ADD SWAP2 SWAP1 MOD SWAP1 SLOAD SWAP1 PUSH2 0x100 EXP SWAP1 DIV PUSH1 0xF8 SHL DUP7 PUSH1 0x40 MLOAD PUSH1 0x20 ADD PUSH2 0x1E3 SWAP4 SWAP3 SWAP2 SWAP1 PUSH2 0x457 JUMP JUMPDEST PUSH1 0x40 MLOAD PUSH1 0x20 DUP2 DUP4 SUB SUB DUP2 MSTORE SWAP1 PUSH1 0x40 MSTORE SWAP5 POP JUMPDEST JUMPDEST PUSH1 0xA DUP8 PUSH2 0x203 SWAP2 SWAP1 PUSH2 0x4EF JUMP JUMPDEST SWAP7 POP DUP4 DUP1 PUSH2 0x210 SWAP1 PUSH2 0x51F JUMP JUMPDEST SWAP5 POP POP POP POP POP PUSH2 0x65 JUMP JUMPDEST DUP2 SWAP3 POP POP POP SWAP2 SWAP1 POP JUMP JUMPDEST PUSH0 PUSH0 REVERT JUMPDEST PUSH0 DUP2 SWAP1 POP SWAP2 SWAP1 POP JUMP JUMPDEST PUSH2 0x23B DUP2 PUSH2 0x229 JUMP JUMPDEST DUP2 EQ PUSH2 0x245 JUMPI PUSH0 PUSH0 REVERT JUMPDEST POP JUMP JUMPDEST PUSH0 DUP2 CALLDATALOAD SWAP1 POP PUSH2 0x256 DUP2 PUSH2 0x232 JUMP JUMPDEST SWAP3 SWAP2 POP POP JUMP JUMPDEST PUSH0 PUSH1 0x20 DUP3 DUP5 SUB SLT ISZERO PUSH2 0x271 JUMPI PUSH2 0x270 PUSH2 0x225 JUMP JUMPDEST JUMPDEST PUSH0 PUSH2 0x27E DUP5 DUP3 DUP6 ADD PUSH2 0x248 JUMP JUMPDEST SWAP2 POP POP SWAP3 SWAP2 POP POP JUMP JUMPDEST PUSH0 DUP2 MLOAD SWAP1 POP SWAP2 SWAP1 POP JUMP JUMPDEST PUSH0 DUP3 DUP3 MSTORE PUSH1 0x20 DUP3 ADD SWAP1 POP SWAP3 SWAP2 POP POP JUMP JUMPDEST DUP3 DUP2 DUP4 MCOPY PUSH0 DUP4 DUP4 ADD MSTORE POP POP POP JUMP JUMPDEST PUSH0 PUSH1 0x1F NOT PUSH1 0x1F DUP4 ADD AND SWAP1 POP SWAP2 SWAP1 POP JUMP JUMPDEST PUSH0 PUSH2 0x2C9 DUP3 PUSH2 0x287 JUMP JUMPDEST PUSH2 0x2D3 DUP2 DUP6 PUSH2 0x291 JUMP JUMPDEST SWAP4 POP PUSH2 0x2E3 DUP2 DUP6 PUSH1 0x20 DUP7 ADD PUSH2 0x2A1 JUMP JUMPDEST PUSH2 0x2EC DUP2 PUSH2 0x2AF JUMP JUMPDEST DUP5 ADD SWAP2 POP POP SWAP3 SWAP2 POP POP JUMP JUMPDEST PUSH0 PUSH1 0x20 DUP3 ADD SWAP1 POP DUP2 DUP2 SUB PUSH0 DUP4 ADD MSTORE PUSH2 0x30F DUP2 DUP5 PUSH2 0x2BF JUMP JUMPDEST SWAP1 POP SWAP3 SWAP2 POP POP JUMP JUMPDEST PUSH32 0x4E487B7100000000000000000000000000000000000000000000000000000000 PUSH0 MSTORE PUSH1 0x12 PUSH1 0x4 MSTORE PUSH1 0x24 PUSH0 REVERT JUMPDEST PUSH0 PUSH2 0x34E DUP3 PUSH2 0x229 JUMP JUMPDEST SWAP2 POP PUSH2 0x359 DUP4 PUSH2 0x229 JUMP JUMPDEST SWAP3 POP DUP3 PUSH2 0x369 JUMPI PUSH2 0x368 PUSH2 0x317 JUMP JUMPDEST JUMPDEST DUP3 DUP3 MOD SWAP1 POP SWAP3 SWAP2 POP POP JUMP JUMPDEST PUSH32 0x4E487B7100000000000000000000000000000000000000000000000000000000 PUSH0 MSTORE PUSH1 0x32 PUSH1 0x4 MSTORE PUSH1 0x24 PUSH0 REVERT JUMPDEST PUSH0 PUSH32 0xFF00000000000000000000000000000000000000000000000000000000000000 DUP3 AND SWAP1 POP SWAP2 SWAP1 POP JUMP JUMPDEST PUSH0 DUP2 SWAP1 POP SWAP2 SWAP1 POP JUMP JUMPDEST PUSH2 0x3E6 PUSH2 0x3E1 DUP3 PUSH2 0x3A1 JUMP JUMPDEST PUSH2 0x3CC JUMP JUMPDEST DUP3 MSTORE POP POP JUMP JUMPDEST PUSH0 DUP2 MLOAD SWAP1 POP SWAP2 SWAP1 POP JUMP JUMPDEST PUSH0 DUP2 SWAP1 POP SWAP3 SWAP2 POP POP JUMP JUMPDEST PUSH0 PUSH2 0x40A DUP3 PUSH2 0x3EC JUMP JUMPDEST PUSH2 0x414 DUP2 DUP6 PUSH2 0x3F6 JUMP JUMPDEST SWAP4 POP PUSH2 0x424 DUP2 DUP6 PUSH1 0x20 DUP7 ADD PUSH2 0x2A1 JUMP JUMPDEST DUP1 DUP5 ADD SWAP2 POP POP SWAP3 SWAP2 POP POP JUMP JUMPDEST PUSH0 PUSH2 0x43B DUP3 DUP6 PUSH2 0x3D5 JUMP JUMPDEST PUSH1 0x1 DUP3 ADD SWAP2 POP PUSH2 0x44B DUP3 DUP5 PUSH2 0x400 JUMP JUMPDEST SWAP2 POP DUP2 SWAP1 POP SWAP4 SWAP3 POP POP POP JUMP JUMPDEST PUSH0 PUSH2 0x462 DUP3 DUP7 PUSH2 0x3D5 JUMP JUMPDEST PUSH1 0x1 DUP3 ADD SWAP2 POP PUSH2 0x472 DUP3 DUP6 PUSH2 0x3D5 JUMP JUMPDEST PUSH1 0x1 DUP3 ADD SWAP2 POP PUSH2 0x482 DUP3 DUP5 PUSH2 0x400 JUMP JUMPDEST SWAP2 POP DUP2 SWAP1 POP SWAP5 SWAP4 POP POP POP POP JUMP JUMPDEST PUSH32 0x4E487B7100000000000000000000000000000000000000000000000000000000 PUSH0 MSTORE PUSH1 0x11 PUSH1 0x4 MSTORE PUSH1 0x24 PUSH0 REVERT JUMPDEST PUSH0 PUSH2 0x4C6 DUP3 PUSH2 0x229 JUMP JUMPDEST SWAP2 POP PUSH2 0x4D1 DUP4 PUSH2 0x229 JUMP JUMPDEST SWAP3 POP DUP3 DUP3 ADD SWAP1 POP DUP1 DUP3 GT ISZERO PUSH2 0x4E9 JUMPI PUSH2 0x4E8 PUSH2 0x48F JUMP JUMPDEST JUMPDEST SWAP3 SWAP2 POP POP JUMP JUMPDEST PUSH0 PUSH2 0x4F9 DUP3 PUSH2 0x229 JUMP JUMPDEST SWAP2 POP PUSH2 0x504 DUP4 PUSH2 0x229 JUMP JUMPDEST SWAP3 POP DUP3 PUSH2 0x514 JUMPI PUSH2 0x513 PUSH2 0x317 JUMP JUMPDEST JUMPDEST DUP3 DUP3 DIV SWAP1 POP SWAP3 SWAP2 POP POP JUMP JUMPDEST PUSH0 PUSH2 0x529 DUP3 PUSH2 0x229 JUMP JUMPDEST SWAP2 POP PUSH32 0xFFFFFFFFFFFFFFFFFFFFFFFFFFFFFFFFFFFFFFFFFFFFFFFFFFFFFFFFFFFFFFFF DUP3 SUB PUSH2 0x55B JUMPI PUSH2 0x55A PUSH2 0x48F JUMP JUMPDEST JUMPDEST PUSH1 0x1 DUP3 ADD SWAP1 POP SWAP2 SWAP1 POP JUMP INVALID LOG2 PUSH5 0x6970667358 0x22 SLT KECCAK256 PUSH6 0xFDFC2A94C173 BLOBHASH SWAP9 0x24 CALL ADDMOD EXTSTATICCALL SSTORE BLOBBASEFEE 0xE8 PREVRANDAO EXTSTATICCALL KECCAK256 SELFDESTRUCT 0xBC PUSH13 0xDAA98FFE29FA50D340D864736F PUSH13 0x634300081F0033000000000000 "
				},
				"gasEstimates": {
					"creation": {
						"codeDepositCost": "287200",
						"executionCost": "infinite",
						"totalCost": "infinite"
					},
					"external": {
						"intToRoma(uint256)": "infinite"
					}
				},
				"methodIdentifiers": {
					"intToRoma(uint256)": "1ae1e404"
				}
			},
			"storageLayout": {
				"storage": [
					{
						"astId": 5,
						"contract": "contracts/IntToRoman.sol:IntToRoma",
						"label": "ones",
						"offset": 0,
						"slot": "0",
						"type": "t_array(t_bytes1)4_storage"
					},
					{
						"astId": 9,
						"contract": "contracts/IntToRoman.sol:IntToRoma",
						"label": "fives",
						"offset": 0,
						"slot": "1",
						"type": "t_array(t_bytes1)4_storage"
					}
				],
				"types": {
					"t_array(t_bytes1)4_storage": {
						"base": "t_bytes1",
						"encoding": "inplace",
						"label": "bytes1[4]",
						"numberOfBytes": "32"
					},
					"t_bytes1": {
						"encoding": "inplace",
						"label": "bytes1",
						"numberOfBytes": "1"
					}
				}
			},
			"userdoc": {
				"kind": "user",
				"methods": {},
				"version": 1
			}
		}
	}
}