{
	"contracts/Voting.sol": {
		"Voting": {
			"abi": [
				{
					"inputs": [
						{
							"internalType": "string",
							"name": "name",
							"type": "string"
						}
					],
					"name": "getVotes",
					"outputs": [
						{
							"internalType": "uint256",
							"name": "",
							"type": "uint256"
						}
					],
					"stateMutability": "view",
					"type": "function"
				},
				{
					"inputs": [],
					"name": "resetVotes",
					"outputs": [],
					"stateMutability": "nonpayable",
					"type": "function"
				},
				{
					"inputs": [
						{
							"internalType": "string",
							"name": "name",
							"type": "string"
						}
					],
					"name": "vote",
					"outputs": [],
					"stateMutability": "nonpayable",
					"type": "function"
				}
			],
			"devdoc": {
				"kind": "dev",
				"methods": {},
				"version": 1
			},
			"evm": {
				"assembly": "    /* \"contracts/Voting.sol\":58:730  contract Voting {... */\n  mstore(0x40, 0x80)\n  callvalue\n  dup1\n  iszero\n  tag_1\n  jumpi\n  revert(0x00, 0x00)\ntag_1:\n  pop\n  dataSize(sub_0)\n  dup1\n  dataOffset(sub_0)\n  0x00\n  codecopy\n  0x00\n  return\nstop\n\nsub_0: assembly {\n        /* \"contracts/Voting.sol\":58:730  contract Voting {... */\n      mstore(0x40, 0x80)\n      callvalue\n      dup1\n      iszero\n      tag_1\n      jumpi\n      revert(0x00, 0x00)\n    tag_1:\n      pop\n      jumpi(tag_2, lt(calldatasize, 0x04))\n      shr(0xe0, calldataload(0x00))\n      dup1\n      0x805265e5\n      eq\n      tag_3\n      jumpi\n      dup1\n      0xb9830ff1\n      eq\n      tag_4\n      jumpi\n      dup1\n      0xfc36e15b\n      eq\n      tag_5\n      jumpi\n    tag_2:\n      revert(0x00, 0x00)\n        /* \"contracts/Voting.sol\":391:526  function getVotes(string calldata name)... */\n    tag_3:\n      tag_6\n      0x04\n      dup1\n      calldatasize\n      sub\n      dup2\n      add\n      swap1\n      tag_7\n      swap2\n      swap1\n      tag_8\n      jump\t// in\n    tag_7:\n      tag_9\n      jump\t// in\n    tag_6:\n      mload(0x40)\n      tag_10\n      swap2\n      swap1\n      tag_11\n      jump\t// in\n    tag_10:\n      mload(0x40)\n      dup1\n      swap2\n      sub\n      swap1\n      return\n        /* \"contracts/Voting.sol\":581:728  function resetVotes() external {... */\n    tag_4:\n      tag_12\n      tag_13\n      jump\t// in\n    tag_12:\n      stop\n        /* \"contracts/Voting.sol\":204:385  function vote(string calldata name) external {... */\n    tag_5:\n      tag_14\n      0x04\n      dup1\n      calldatasize\n      sub\n      dup2\n      add\n      swap1\n      tag_15\n      swap2\n      swap1\n      tag_8\n      jump\t// in\n    tag_15:\n      tag_16\n      jump\t// in\n    tag_14:\n      stop\n        /* \"contracts/Voting.sol\":391:526  function getVotes(string calldata name)... */\n    tag_9:\n        /* \"contracts/Voting.sol\":478:485  uint256 */\n      0x00\n        /* \"contracts/Voting.sol\":508:513  votes */\n      0x00\n        /* \"contracts/Voting.sol\":514:518  name */\n      dup4\n      dup4\n        /* \"contracts/Voting.sol\":508:519  votes[name] */\n      mload(0x40)\n      tag_18\n      swap3\n      swap2\n      swap1\n      tag_19\n      jump\t// in\n    tag_18:\n      swap1\n      dup2\n      mstore\n      0x20\n      add\n      mload(0x40)\n      dup1\n      swap2\n      sub\n      swap1\n      keccak256\n      sload\n        /* \"contracts/Voting.sol\":501:519  return votes[name] */\n      swap1\n      pop\n        /* \"contracts/Voting.sol\":391:526  function getVotes(string calldata name)... */\n      swap3\n      swap2\n      pop\n      pop\n      jump\t// out\n        /* \"contracts/Voting.sol\":581:728  function resetVotes() external {... */\n    tag_13:\n        /* \"contracts/Voting.sol\":627:636  uint256 i */\n      0x00\n        /* \"contracts/Voting.sol\":639:640  0 */\n      0x00\n        /* \"contracts/Voting.sol\":627:640  uint256 i = 0 */\n      swap1\n      pop\n        /* \"contracts/Voting.sol\":622:722  for (uint256 i = 0; i < candidates.length; i++) {... */\n    tag_21:\n        /* \"contracts/Voting.sol\":646:656  candidates */\n      0x01\n        /* \"contracts/Voting.sol\":646:663  candidates.length */\n      dup1\n      sload\n      swap1\n      pop\n        /* \"contracts/Voting.sol\":642:643  i */\n      dup2\n        /* \"contracts/Voting.sol\":642:663  i < candidates.length */\n      lt\n        /* \"contracts/Voting.sol\":622:722  for (uint256 i = 0; i < candidates.length; i++) {... */\n      iszero\n      tag_22\n      jumpi\n        /* \"contracts/Voting.sol\":691:696  votes */\n      0x00\n        /* \"contracts/Voting.sol\":697:707  candidates */\n      0x01\n        /* \"contracts/Voting.sol\":708:709  i */\n      dup3\n        /* \"contracts/Voting.sol\":697:710  candidates[i] */\n      dup2\n      sload\n      dup2\n      lt\n      tag_24\n      jumpi\n      tag_25\n      tag_26\n      jump\t// in\n    tag_25:\n    tag_24:\n      swap1\n      0x00\n      mstore\n      keccak256(0x00, 0x20)\n      add\n        /* \"contracts/Voting.sol\":691:711  votes[candidates[i]] */\n      mload(0x40)\n      tag_28\n      swap2\n      swap1\n      tag_29\n      jump\t// in\n    tag_28:\n      swap1\n      dup2\n      mstore\n      0x20\n      add\n      mload(0x40)\n      dup1\n      swap2\n      sub\n      swap1\n      keccak256\n        /* \"contracts/Voting.sol\":684:711  delete votes[candidates[i]] */\n      0x00\n      swap1\n      sstore\n        /* \"contracts/Voting.sol\":665:668  i++ */\n      dup1\n      dup1\n      0x01\n      add\n      swap2\n      pop\n      pop\n        /* \"contracts/Voting.sol\":622:722  for (uint256 i = 0; i < candidates.length; i++) {... */\n      jump(tag_21)\n    tag_22:\n      pop\n        /* \"contracts/Voting.sol\":581:728  function resetVotes() external {... */\n      jump\t// out\n        /* \"contracts/Voting.sol\":204:385  function vote(string calldata name) external {... */\n    tag_16:\n        /* \"contracts/Voting.sol\":264:268  seen */\n      0x02\n        /* \"contracts/Voting.sol\":269:273  name */\n      dup3\n      dup3\n        /* \"contracts/Voting.sol\":264:274  seen[name] */\n      mload(0x40)\n      tag_31\n      swap3\n      swap2\n      swap1\n      tag_19\n      jump\t// in\n    tag_31:\n      swap1\n      dup2\n      mstore\n      0x20\n      add\n      mload(0x40)\n      dup1\n      swap2\n      sub\n      swap1\n      keccak256\n      0x00\n      swap1\n      sload\n      swap1\n      0x0100\n      exp\n      swap1\n      div\n      0xff\n      and\n        /* \"contracts/Voting.sol\":259:353  if (!seen[name]) {... */\n      tag_32\n      jumpi\n        /* \"contracts/Voting.sol\":303:307  true */\n      0x01\n        /* \"contracts/Voting.sol\":290:294  seen */\n      0x02\n        /* \"contracts/Voting.sol\":295:299  name */\n      dup4\n      dup4\n        /* \"contracts/Voting.sol\":290:300  seen[name] */\n      mload(0x40)\n      tag_33\n      swap3\n      swap2\n      swap1\n      tag_19\n      jump\t// in\n    tag_33:\n      swap1\n      dup2\n      mstore\n      0x20\n      add\n      mload(0x40)\n      dup1\n      swap2\n      sub\n      swap1\n      keccak256\n      0x00\n        /* \"contracts/Voting.sol\":290:307  seen[name] = true */\n      0x0100\n      exp\n      dup2\n      sload\n      dup2\n      0xff\n      mul\n      not\n      and\n      swap1\n      dup4\n      iszero\n      iszero\n      mul\n      or\n      swap1\n      sstore\n      pop\n        /* \"contracts/Voting.sol\":321:331  candidates */\n      0x01\n        /* \"contracts/Voting.sol\":337:341  name */\n      dup3\n      dup3\n        /* \"contracts/Voting.sol\":321:342  candidates.push(name) */\n      swap1\n      swap2\n      dup1\n      0x01\n      dup2\n      sload\n      add\n      dup1\n      dup3\n      sstore\n      dup1\n      swap2\n      pop\n      pop\n      0x01\n      swap1\n      sub\n      swap1\n      0x00\n      mstore\n      keccak256(0x00, 0x20)\n      add\n      0x00\n      swap1\n      swap2\n      swap3\n      swap1\n      swap2\n      swap3\n      swap1\n      swap2\n      swap3\n      swap1\n      swap2\n      swap3\n      pop\n      swap2\n      dup3\n      tag_35\n      swap3\n      swap2\n      swap1\n      tag_36\n      jump\t// in\n    tag_35:\n      pop\n        /* \"contracts/Voting.sol\":259:353  if (!seen[name]) {... */\n    tag_32:\n        /* \"contracts/Voting.sol\":377:378  1 */\n      0x01\n        /* \"contracts/Voting.sol\":362:367  votes */\n      0x00\n        /* \"contracts/Voting.sol\":368:372  name */\n      dup4\n      dup4\n        /* \"contracts/Voting.sol\":362:373  votes[name] */\n      mload(0x40)\n      tag_37\n      swap3\n      swap2\n      swap1\n      tag_19\n      jump\t// in\n    tag_37:\n      swap1\n      dup2\n      mstore\n      0x20\n      add\n      mload(0x40)\n      dup1\n      swap2\n      sub\n      swap1\n      keccak256\n      0x00\n        /* \"contracts/Voting.sol\":362:378  votes[name] += 1 */\n      dup3\n      dup3\n      sload\n      tag_38\n      swap2\n      swap1\n      tag_39\n      jump\t// in\n    tag_38:\n      swap3\n      pop\n      pop\n      dup2\n      swap1\n      sstore\n      pop\n        /* \"contracts/Voting.sol\":204:385  function vote(string calldata name) external {... */\n      pop\n      pop\n      jump\t// out\n        /* \"#utility.yul\":88:205   */\n    tag_41:\n        /* \"#utility.yul\":197:198   */\n      0x00\n        /* \"#utility.yul\":194:195   */\n      0x00\n        /* \"#utility.yul\":187:199   */\n      revert\n        /* \"#utility.yul\":211:328   */\n    tag_42:\n        /* \"#utility.yul\":320:321   */\n      0x00\n        /* \"#utility.yul\":317:318   */\n      0x00\n        /* \"#utility.yul\":310:322   */\n      revert\n        /* \"#utility.yul\":334:451   */\n    tag_43:\n        /* \"#utility.yul\":443:444   */\n      0x00\n        /* \"#utility.yul\":440:441   */\n      0x00\n        /* \"#utility.yul\":433:445   */\n      revert\n        /* \"#utility.yul\":457:574   */\n    tag_44:\n        /* \"#utility.yul\":566:567   */\n      0x00\n        /* \"#utility.yul\":563:564   */\n      0x00\n        /* \"#utility.yul\":556:568   */\n      revert\n        /* \"#utility.yul\":580:697   */\n    tag_45:\n        /* \"#utility.yul\":689:690   */\n      0x00\n        /* \"#utility.yul\":686:687   */\n      0x00\n        /* \"#utility.yul\":679:691   */\n      revert\n        /* \"#utility.yul\":717:1270   */\n    tag_46:\n        /* \"#utility.yul\":775:783   */\n      0x00\n        /* \"#utility.yul\":785:791   */\n      0x00\n        /* \"#utility.yul\":835:838   */\n      dup4\n        /* \"#utility.yul\":828:832   */\n      0x1f\n        /* \"#utility.yul\":820:826   */\n      dup5\n        /* \"#utility.yul\":816:833   */\n      add\n        /* \"#utility.yul\":812:839   */\n      slt\n        /* \"#utility.yul\":802:924   */\n      tag_81\n      jumpi\n        /* \"#utility.yul\":843:922   */\n      tag_82\n      tag_43\n      jump\t// in\n    tag_82:\n        /* \"#utility.yul\":802:924   */\n    tag_81:\n        /* \"#utility.yul\":956:962   */\n      dup3\n        /* \"#utility.yul\":943:963   */\n      calldataload\n        /* \"#utility.yul\":933:963   */\n      swap1\n      pop\n        /* \"#utility.yul\":986:1004   */\n      0xffffffffffffffff\n        /* \"#utility.yul\":978:984   */\n      dup2\n        /* \"#utility.yul\":975:1005   */\n      gt\n        /* \"#utility.yul\":972:1089   */\n      iszero\n      tag_83\n      jumpi\n        /* \"#utility.yul\":1008:1087   */\n      tag_84\n      tag_44\n      jump\t// in\n    tag_84:\n        /* \"#utility.yul\":972:1089   */\n    tag_83:\n        /* \"#utility.yul\":1122:1126   */\n      0x20\n        /* \"#utility.yul\":1114:1120   */\n      dup4\n        /* \"#utility.yul\":1110:1127   */\n      add\n        /* \"#utility.yul\":1098:1127   */\n      swap2\n      pop\n        /* \"#utility.yul\":1176:1179   */\n      dup4\n        /* \"#utility.yul\":1168:1172   */\n      0x01\n        /* \"#utility.yul\":1160:1166   */\n      dup3\n        /* \"#utility.yul\":1156:1173   */\n      mul\n        /* \"#utility.yul\":1146:1154   */\n      dup4\n        /* \"#utility.yul\":1142:1174   */\n      add\n        /* \"#utility.yul\":1139:1180   */\n      gt\n        /* \"#utility.yul\":1136:1264   */\n      iszero\n      tag_85\n      jumpi\n        /* \"#utility.yul\":1183:1262   */\n      tag_86\n      tag_45\n      jump\t// in\n    tag_86:\n        /* \"#utility.yul\":1136:1264   */\n    tag_85:\n        /* \"#utility.yul\":717:1270   */\n      swap3\n      pop\n      swap3\n      swap1\n      pop\n      jump\t// out\n        /* \"#utility.yul\":1276:1805   */\n    tag_8:\n        /* \"#utility.yul\":1347:1353   */\n      0x00\n        /* \"#utility.yul\":1355:1361   */\n      0x00\n        /* \"#utility.yul\":1404:1406   */\n      0x20\n        /* \"#utility.yul\":1392:1401   */\n      dup4\n        /* \"#utility.yul\":1383:1390   */\n      dup6\n        /* \"#utility.yul\":1379:1402   */\n      sub\n        /* \"#utility.yul\":1375:1407   */\n      slt\n        /* \"#utility.yul\":1372:1491   */\n      iszero\n      tag_88\n      jumpi\n        /* \"#utility.yul\":1410:1489   */\n      tag_89\n      tag_41\n      jump\t// in\n    tag_89:\n        /* \"#utility.yul\":1372:1491   */\n    tag_88:\n        /* \"#utility.yul\":1558:1559   */\n      0x00\n        /* \"#utility.yul\":1547:1556   */\n      dup4\n        /* \"#utility.yul\":1543:1560   */\n      add\n        /* \"#utility.yul\":1530:1561   */\n      calldataload\n        /* \"#utility.yul\":1588:1606   */\n      0xffffffffffffffff\n        /* \"#utility.yul\":1580:1586   */\n      dup2\n        /* \"#utility.yul\":1577:1607   */\n      gt\n        /* \"#utility.yul\":1574:1691   */\n      iszero\n      tag_90\n      jumpi\n        /* \"#utility.yul\":1610:1689   */\n      tag_91\n      tag_42\n      jump\t// in\n    tag_91:\n        /* \"#utility.yul\":1574:1691   */\n    tag_90:\n        /* \"#utility.yul\":1723:1788   */\n      tag_92\n        /* \"#utility.yul\":1780:1787   */\n      dup6\n        /* \"#utility.yul\":1771:1777   */\n      dup3\n        /* \"#utility.yul\":1760:1769   */\n      dup7\n        /* \"#utility.yul\":1756:1778   */\n      add\n        /* \"#utility.yul\":1723:1788   */\n      tag_46\n      jump\t// in\n    tag_92:\n        /* \"#utility.yul\":1705:1788   */\n      swap3\n      pop\n      swap3\n      pop\n        /* \"#utility.yul\":1501:1798   */\n      pop\n        /* \"#utility.yul\":1276:1805   */\n      swap3\n      pop\n      swap3\n      swap1\n      pop\n      jump\t// out\n        /* \"#utility.yul\":1811:1888   */\n    tag_47:\n        /* \"#utility.yul\":1848:1855   */\n      0x00\n        /* \"#utility.yul\":1877:1882   */\n      dup2\n        /* \"#utility.yul\":1866:1882   */\n      swap1\n      pop\n        /* \"#utility.yul\":1811:1888   */\n      swap2\n      swap1\n      pop\n      jump\t// out\n        /* \"#utility.yul\":1894:2012   */\n    tag_48:\n        /* \"#utility.yul\":1981:2005   */\n      tag_95\n        /* \"#utility.yul\":1999:2004   */\n      dup2\n        /* \"#utility.yul\":1981:2005   */\n      tag_47\n      jump\t// in\n    tag_95:\n        /* \"#utility.yul\":1976:1979   */\n      dup3\n        /* \"#utility.yul\":1969:2006   */\n      mstore\n        /* \"#utility.yul\":1894:2012   */\n      pop\n      pop\n      jump\t// out\n        /* \"#utility.yul\":2018:2240   */\n    tag_11:\n        /* \"#utility.yul\":2111:2115   */\n      0x00\n        /* \"#utility.yul\":2149:2151   */\n      0x20\n        /* \"#utility.yul\":2138:2147   */\n      dup3\n        /* \"#utility.yul\":2134:2152   */\n      add\n        /* \"#utility.yul\":2126:2152   */\n      swap1\n      pop\n        /* \"#utility.yul\":2162:2233   */\n      tag_97\n        /* \"#utility.yul\":2230:2231   */\n      0x00\n        /* \"#utility.yul\":2219:2228   */\n      dup4\n        /* \"#utility.yul\":2215:2232   */\n      add\n        /* \"#utility.yul\":2206:2212   */\n      dup5\n        /* \"#utility.yul\":2162:2233   */\n      tag_48\n      jump\t// in\n    tag_97:\n        /* \"#utility.yul\":2018:2240   */\n      swap3\n      swap2\n      pop\n      pop\n      jump\t// out\n        /* \"#utility.yul\":2246:2394   */\n    tag_49:\n        /* \"#utility.yul\":2348:2359   */\n      0x00\n        /* \"#utility.yul\":2385:2388   */\n      dup2\n        /* \"#utility.yul\":2370:2388   */\n      swap1\n      pop\n        /* \"#utility.yul\":2246:2394   */\n      swap3\n      swap2\n      pop\n      pop\n      jump\t// out\n        /* \"#utility.yul\":2400:2548   */\n    tag_50:\n        /* \"#utility.yul\":2498:2504   */\n      dup3\n        /* \"#utility.yul\":2493:2496   */\n      dup2\n        /* \"#utility.yul\":2488:2491   */\n      dup4\n        /* \"#utility.yul\":2475:2505   */\n      calldatacopy\n        /* \"#utility.yul\":2539:2540   */\n      0x00\n        /* \"#utility.yul\":2530:2536   */\n      dup4\n        /* \"#utility.yul\":2525:2528   */\n      dup4\n        /* \"#utility.yul\":2521:2537   */\n      add\n        /* \"#utility.yul\":2514:2541   */\n      mstore\n        /* \"#utility.yul\":2400:2548   */\n      pop\n      pop\n      pop\n      jump\t// out\n        /* \"#utility.yul\":2578:2908   */\n    tag_51:\n        /* \"#utility.yul\":2694:2697   */\n      0x00\n        /* \"#utility.yul\":2715:2804   */\n      tag_101\n        /* \"#utility.yul\":2797:2803   */\n      dup4\n        /* \"#utility.yul\":2792:2795   */\n      dup6\n        /* \"#utility.yul\":2715:2804   */\n      tag_49\n      jump\t// in\n    tag_101:\n        /* \"#utility.yul\":2708:2804   */\n      swap4\n      pop\n        /* \"#utility.yul\":2814:2870   */\n      tag_102\n        /* \"#utility.yul\":2863:2869   */\n      dup4\n        /* \"#utility.yul\":2858:2861   */\n      dup6\n        /* \"#utility.yul\":2851:2856   */\n      dup5\n        /* \"#utility.yul\":2814:2870   */\n      tag_50\n      jump\t// in\n    tag_102:\n        /* \"#utility.yul\":2895:2901   */\n      dup3\n        /* \"#utility.yul\":2890:2893   */\n      dup5\n        /* \"#utility.yul\":2886:2902   */\n      add\n        /* \"#utility.yul\":2879:2902   */\n      swap1\n      pop\n        /* \"#utility.yul\":2578:2908   */\n      swap4\n      swap3\n      pop\n      pop\n      pop\n      jump\t// out\n        /* \"#utility.yul\":2914:3209   */\n    tag_19:\n        /* \"#utility.yul\":3056:3059   */\n      0x00\n        /* \"#utility.yul\":3078:3183   */\n      tag_104\n        /* \"#utility.yul\":3179:3182   */\n      dup3\n        /* \"#utility.yul\":3170:3176   */\n      dup5\n        /* \"#utility.yul\":3162:3168   */\n      dup7\n        /* \"#utility.yul\":3078:3183   */\n      tag_51\n      jump\t// in\n    tag_104:\n        /* \"#utility.yul\":3071:3183   */\n      swap2\n      pop\n        /* \"#utility.yul\":3200:3203   */\n      dup2\n        /* \"#utility.yul\":3193:3203   */\n      swap1\n      pop\n        /* \"#utility.yul\":2914:3209   */\n      swap4\n      swap3\n      pop\n      pop\n      pop\n      jump\t// out\n        /* \"#utility.yul\":3215:3395   */\n    tag_26:\n        /* \"#utility.yul\":3263:3340   */\n      0x4e487b7100000000000000000000000000000000000000000000000000000000\n        /* \"#utility.yul\":3260:3261   */\n      0x00\n        /* \"#utility.yul\":3253:3341   */\n      mstore\n        /* \"#utility.yul\":3360:3364   */\n      0x32\n        /* \"#utility.yul\":3357:3358   */\n      0x04\n        /* \"#utility.yul\":3350:3365   */\n      mstore\n        /* \"#utility.yul\":3384:3388   */\n      0x24\n        /* \"#utility.yul\":3381:3382   */\n      0x00\n        /* \"#utility.yul\":3374:3389   */\n      revert\n        /* \"#utility.yul\":3401:3581   */\n    tag_52:\n        /* \"#utility.yul\":3449:3526   */\n      0x4e487b7100000000000000000000000000000000000000000000000000000000\n        /* \"#utility.yul\":3446:3447   */\n      0x00\n        /* \"#utility.yul\":3439:3527   */\n      mstore\n        /* \"#utility.yul\":3546:3550   */\n      0x22\n        /* \"#utility.yul\":3543:3544   */\n      0x04\n        /* \"#utility.yul\":3536:3551   */\n      mstore\n        /* \"#utility.yul\":3570:3574   */\n      0x24\n        /* \"#utility.yul\":3567:3568   */\n      0x00\n        /* \"#utility.yul\":3560:3575   */\n      revert\n        /* \"#utility.yul\":3587:3907   */\n    tag_53:\n        /* \"#utility.yul\":3631:3637   */\n      0x00\n        /* \"#utility.yul\":3668:3669   */\n      0x02\n        /* \"#utility.yul\":3662:3666   */\n      dup3\n        /* \"#utility.yul\":3658:3670   */\n      div\n        /* \"#utility.yul\":3648:3670   */\n      swap1\n      pop\n        /* \"#utility.yul\":3715:3716   */\n      0x01\n        /* \"#utility.yul\":3709:3713   */\n      dup3\n        /* \"#utility.yul\":3705:3717   */\n      and\n        /* \"#utility.yul\":3736:3754   */\n      dup1\n        /* \"#utility.yul\":3726:3807   */\n      tag_108\n      jumpi\n        /* \"#utility.yul\":3792:3796   */\n      0x7f\n        /* \"#utility.yul\":3784:3790   */\n      dup3\n        /* \"#utility.yul\":3780:3797   */\n      and\n        /* \"#utility.yul\":3770:3797   */\n      swap2\n      pop\n        /* \"#utility.yul\":3726:3807   */\n    tag_108:\n        /* \"#utility.yul\":3854:3856   */\n      0x20\n        /* \"#utility.yul\":3846:3852   */\n      dup3\n        /* \"#utility.yul\":3843:3857   */\n      lt\n        /* \"#utility.yul\":3823:3841   */\n      dup2\n        /* \"#utility.yul\":3820:3858   */\n      sub\n        /* \"#utility.yul\":3817:3901   */\n      tag_109\n      jumpi\n        /* \"#utility.yul\":3873:3891   */\n      tag_110\n      tag_52\n      jump\t// in\n    tag_110:\n        /* \"#utility.yul\":3817:3901   */\n    tag_109:\n        /* \"#utility.yul\":3638:3907   */\n      pop\n        /* \"#utility.yul\":3587:3907   */\n      swap2\n      swap1\n      pop\n      jump\t// out\n        /* \"#utility.yul\":3913:4054   */\n    tag_54:\n        /* \"#utility.yul\":3962:3966   */\n      0x00\n        /* \"#utility.yul\":3985:3988   */\n      dup2\n        /* \"#utility.yul\":3977:3988   */\n      swap1\n      pop\n        /* \"#utility.yul\":4008:4011   */\n      dup2\n        /* \"#utility.yul\":4005:4006   */\n      0x00\n        /* \"#utility.yul\":3998:4012   */\n      mstore\n        /* \"#utility.yul\":4042:4046   */\n      0x20\n        /* \"#utility.yul\":4039:4040   */\n      0x00\n        /* \"#utility.yul\":4029:4047   */\n      keccak256\n        /* \"#utility.yul\":4021:4047   */\n      swap1\n      pop\n        /* \"#utility.yul\":3913:4054   */\n      swap2\n      swap1\n      pop\n      jump\t// out\n        /* \"#utility.yul\":4084:4958   */\n    tag_55:\n        /* \"#utility.yul\":4187:4190   */\n      0x00\n        /* \"#utility.yul\":4224:4229   */\n      dup2\n        /* \"#utility.yul\":4218:4230   */\n      sload\n        /* \"#utility.yul\":4253:4289   */\n      tag_113\n        /* \"#utility.yul\":4279:4288   */\n      dup2\n        /* \"#utility.yul\":4253:4289   */\n      tag_53\n      jump\t// in\n    tag_113:\n        /* \"#utility.yul\":4305:4394   */\n      tag_114\n        /* \"#utility.yul\":4387:4393   */\n      dup2\n        /* \"#utility.yul\":4382:4385   */\n      dup7\n        /* \"#utility.yul\":4305:4394   */\n      tag_49\n      jump\t// in\n    tag_114:\n        /* \"#utility.yul\":4298:4394   */\n      swap5\n      pop\n        /* \"#utility.yul\":4425:4426   */\n      0x01\n        /* \"#utility.yul\":4414:4423   */\n      dup3\n        /* \"#utility.yul\":4410:4427   */\n      and\n        /* \"#utility.yul\":4441:4442   */\n      0x00\n        /* \"#utility.yul\":4436:4602   */\n      dup2\n      eq\n      tag_116\n      jumpi\n        /* \"#utility.yul\":4616:4617   */\n      0x01\n        /* \"#utility.yul\":4611:4952   */\n      dup2\n      eq\n      tag_117\n      jumpi\n        /* \"#utility.yul\":4403:4952   */\n      jump(tag_115)\n        /* \"#utility.yul\":4436:4602   */\n    tag_116:\n        /* \"#utility.yul\":4520:4524   */\n      0xff\n        /* \"#utility.yul\":4516:4525   */\n      not\n        /* \"#utility.yul\":4505:4514   */\n      dup4\n        /* \"#utility.yul\":4501:4526   */\n      and\n        /* \"#utility.yul\":4496:4499   */\n      dup7\n        /* \"#utility.yul\":4489:4527   */\n      mstore\n        /* \"#utility.yul\":4582:4588   */\n      dup2\n        /* \"#utility.yul\":4575:4589   */\n      iszero\n        /* \"#utility.yul\":4568:4590   */\n      iszero\n        /* \"#utility.yul\":4560:4566   */\n      dup3\n        /* \"#utility.yul\":4556:4591   */\n      mul\n        /* \"#utility.yul\":4551:4554   */\n      dup7\n        /* \"#utility.yul\":4547:4592   */\n      add\n        /* \"#utility.yul\":4540:4592   */\n      swap4\n      pop\n        /* \"#utility.yul\":4436:4602   */\n      jump(tag_115)\n        /* \"#utility.yul\":4611:4952   */\n    tag_117:\n        /* \"#utility.yul\":4678:4716   */\n      tag_118\n        /* \"#utility.yul\":4710:4715   */\n      dup6\n        /* \"#utility.yul\":4678:4716   */\n      tag_54\n      jump\t// in\n    tag_118:\n        /* \"#utility.yul\":4738:4739   */\n      0x00\n        /* \"#utility.yul\":4752:4906   */\n    tag_119:\n        /* \"#utility.yul\":4766:4772   */\n      dup4\n        /* \"#utility.yul\":4763:4764   */\n      dup2\n        /* \"#utility.yul\":4760:4773   */\n      lt\n        /* \"#utility.yul\":4752:4906   */\n      iszero\n      tag_121\n      jumpi\n        /* \"#utility.yul\":4840:4847   */\n      dup2\n        /* \"#utility.yul\":4834:4848   */\n      sload\n        /* \"#utility.yul\":4830:4831   */\n      dup2\n        /* \"#utility.yul\":4825:4828   */\n      dup10\n        /* \"#utility.yul\":4821:4832   */\n      add\n        /* \"#utility.yul\":4814:4849   */\n      mstore\n        /* \"#utility.yul\":4890:4891   */\n      0x01\n        /* \"#utility.yul\":4881:4888   */\n      dup3\n        /* \"#utility.yul\":4877:4892   */\n      add\n        /* \"#utility.yul\":4866:4892   */\n      swap2\n      pop\n        /* \"#utility.yul\":4788:4792   */\n      0x20\n        /* \"#utility.yul\":4785:4786   */\n      dup2\n        /* \"#utility.yul\":4781:4793   */\n      add\n        /* \"#utility.yul\":4776:4793   */\n      swap1\n      pop\n        /* \"#utility.yul\":4752:4906   */\n      jump(tag_119)\n    tag_121:\n        /* \"#utility.yul\":4935:4941   */\n      dup4\n        /* \"#utility.yul\":4930:4933   */\n      dup9\n        /* \"#utility.yul\":4926:4942   */\n      add\n        /* \"#utility.yul\":4919:4942   */\n      swap6\n      pop\n        /* \"#utility.yul\":4618:4952   */\n      pop\n      pop\n        /* \"#utility.yul\":4403:4952   */\n    tag_115:\n      pop\n        /* \"#utility.yul\":4191:4958   */\n      pop\n      pop\n        /* \"#utility.yul\":4084:4958   */\n      swap3\n      swap2\n      pop\n      pop\n      jump\t// out\n        /* \"#utility.yul\":4964:5233   */\n    tag_29:\n        /* \"#utility.yul\":5093:5096   */\n      0x00\n        /* \"#utility.yul\":5115:5207   */\n      tag_123\n        /* \"#utility.yul\":5203:5206   */\n      dup3\n        /* \"#utility.yul\":5194:5200   */\n      dup5\n        /* \"#utility.yul\":5115:5207   */\n      tag_55\n      jump\t// in\n    tag_123:\n        /* \"#utility.yul\":5108:5207   */\n      swap2\n      pop\n        /* \"#utility.yul\":5224:5227   */\n      dup2\n        /* \"#utility.yul\":5217:5227   */\n      swap1\n      pop\n        /* \"#utility.yul\":4964:5233   */\n      swap3\n      swap2\n      pop\n      pop\n      jump\t// out\n        /* \"#utility.yul\":5239:5336   */\n    tag_56:\n        /* \"#utility.yul\":5298:5304   */\n      0x00\n        /* \"#utility.yul\":5326:5329   */\n      dup3\n        /* \"#utility.yul\":5316:5329   */\n      swap1\n      pop\n        /* \"#utility.yul\":5239:5336   */\n      swap3\n      swap2\n      pop\n      pop\n      jump\t// out\n        /* \"#utility.yul\":5342:5522   */\n    tag_57:\n        /* \"#utility.yul\":5390:5467   */\n      0x4e487b7100000000000000000000000000000000000000000000000000000000\n        /* \"#utility.yul\":5387:5388   */\n      0x00\n        /* \"#utility.yul\":5380:5468   */\n      mstore\n        /* \"#utility.yul\":5487:5491   */\n      0x41\n        /* \"#utility.yul\":5484:5485   */\n      0x04\n        /* \"#utility.yul\":5477:5492   */\n      mstore\n        /* \"#utility.yul\":5511:5515   */\n      0x24\n        /* \"#utility.yul\":5508:5509   */\n      0x00\n        /* \"#utility.yul\":5501:5516   */\n      revert\n        /* \"#utility.yul\":5528:5621   */\n    tag_58:\n        /* \"#utility.yul\":5565:5571   */\n      0x00\n        /* \"#utility.yul\":5612:5614   */\n      0x20\n        /* \"#utility.yul\":5607:5609   */\n      0x1f\n        /* \"#utility.yul\":5600:5605   */\n      dup4\n        /* \"#utility.yul\":5596:5610   */\n      add\n        /* \"#utility.yul\":5592:5615   */\n      div\n        /* \"#utility.yul\":5582:5615   */\n      swap1\n      pop\n        /* \"#utility.yul\":5528:5621   */\n      swap2\n      swap1\n      pop\n      jump\t// out\n        /* \"#utility.yul\":5627:5734   */\n    tag_59:\n        /* \"#utility.yul\":5671:5679   */\n      0x00\n        /* \"#utility.yul\":5721:5726   */\n      dup3\n        /* \"#utility.yul\":5715:5719   */\n      dup3\n        /* \"#utility.yul\":5711:5727   */\n      shl\n        /* \"#utility.yul\":5690:5727   */\n      swap1\n      pop\n        /* \"#utility.yul\":5627:5734   */\n      swap3\n      swap2\n      pop\n      pop\n      jump\t// out\n        /* \"#utility.yul\":5740:6133   */\n    tag_60:\n        /* \"#utility.yul\":5809:5815   */\n      0x00\n        /* \"#utility.yul\":5859:5860   */\n      0x08\n        /* \"#utility.yul\":5847:5857   */\n      dup4\n        /* \"#utility.yul\":5843:5861   */\n      mul\n        /* \"#utility.yul\":5882:5979   */\n      tag_129\n        /* \"#utility.yul\":5912:5978   */\n      0xffffffffffffffffffffffffffffffffffffffffffffffffffffffffffffffff\n        /* \"#utility.yul\":5901:5910   */\n      dup3\n        /* \"#utility.yul\":5882:5979   */\n      tag_59\n      jump\t// in\n    tag_129:\n        /* \"#utility.yul\":6000:6039   */\n      tag_130\n        /* \"#utility.yul\":6030:6038   */\n      dup7\n        /* \"#utility.yul\":6019:6028   */\n      dup4\n        /* \"#utility.yul\":6000:6039   */\n      tag_59\n      jump\t// in\n    tag_130:\n        /* \"#utility.yul\":5988:6039   */\n      swap6\n      pop\n        /* \"#utility.yul\":6072:6076   */\n      dup1\n        /* \"#utility.yul\":6068:6077   */\n      not\n        /* \"#utility.yul\":6061:6066   */\n      dup5\n        /* \"#utility.yul\":6057:6078   */\n      and\n        /* \"#utility.yul\":6048:6078   */\n      swap4\n      pop\n        /* \"#utility.yul\":6121:6125   */\n      dup1\n        /* \"#utility.yul\":6111:6119   */\n      dup7\n        /* \"#utility.yul\":6107:6126   */\n      and\n        /* \"#utility.yul\":6100:6105   */\n      dup5\n        /* \"#utility.yul\":6097:6127   */\n      or\n        /* \"#utility.yul\":6087:6127   */\n      swap3\n      pop\n        /* \"#utility.yul\":5816:6133   */\n      pop\n      pop\n        /* \"#utility.yul\":5740:6133   */\n      swap4\n      swap3\n      pop\n      pop\n      pop\n      jump\t// out\n        /* \"#utility.yul\":6139:6199   */\n    tag_61:\n        /* \"#utility.yul\":6167:6170   */\n      0x00\n        /* \"#utility.yul\":6188:6193   */\n      dup2\n        /* \"#utility.yul\":6181:6193   */\n      swap1\n      pop\n        /* \"#utility.yul\":6139:6199   */\n      swap2\n      swap1\n      pop\n      jump\t// out\n        /* \"#utility.yul\":6205:6347   */\n    tag_62:\n        /* \"#utility.yul\":6255:6264   */\n      0x00\n        /* \"#utility.yul\":6288:6341   */\n      tag_133\n        /* \"#utility.yul\":6306:6340   */\n      tag_134\n        /* \"#utility.yul\":6315:6339   */\n      tag_135\n        /* \"#utility.yul\":6333:6338   */\n      dup5\n        /* \"#utility.yul\":6315:6339   */\n      tag_47\n      jump\t// in\n    tag_135:\n        /* \"#utility.yul\":6306:6340   */\n      tag_61\n      jump\t// in\n    tag_134:\n        /* \"#utility.yul\":6288:6341   */\n      tag_47\n      jump\t// in\n    tag_133:\n        /* \"#utility.yul\":6275:6341   */\n      swap1\n      pop\n        /* \"#utility.yul\":6205:6347   */\n      swap2\n      swap1\n      pop\n      jump\t// out\n        /* \"#utility.yul\":6353:6428   */\n    tag_63:\n        /* \"#utility.yul\":6396:6399   */\n      0x00\n        /* \"#utility.yul\":6417:6422   */\n      dup2\n        /* \"#utility.yul\":6410:6422   */\n      swap1\n      pop\n        /* \"#utility.yul\":6353:6428   */\n      swap2\n      swap1\n      pop\n      jump\t// out\n        /* \"#utility.yul\":6434:6703   */\n    tag_64:\n        /* \"#utility.yul\":6544:6583   */\n      tag_138\n        /* \"#utility.yul\":6575:6582   */\n      dup4\n        /* \"#utility.yul\":6544:6583   */\n      tag_62\n      jump\t// in\n    tag_138:\n        /* \"#utility.yul\":6605:6696   */\n      tag_139\n        /* \"#utility.yul\":6654:6695   */\n      tag_140\n        /* \"#utility.yul\":6678:6694   */\n      dup3\n        /* \"#utility.yul\":6654:6695   */\n      tag_63\n      jump\t// in\n    tag_140:\n        /* \"#utility.yul\":6646:6652   */\n      dup5\n        /* \"#utility.yul\":6639:6643   */\n      dup5\n        /* \"#utility.yul\":6633:6644   */\n      sload\n        /* \"#utility.yul\":6605:6696   */\n      tag_60\n      jump\t// in\n    tag_139:\n        /* \"#utility.yul\":6599:6603   */\n      dup3\n        /* \"#utility.yul\":6592:6697   */\n      sstore\n        /* \"#utility.yul\":6510:6703   */\n      pop\n        /* \"#utility.yul\":6434:6703   */\n      pop\n      pop\n      pop\n      jump\t// out\n        /* \"#utility.yul\":6709:6782   */\n    tag_65:\n        /* \"#utility.yul\":6754:6757   */\n      0x00\n        /* \"#utility.yul\":6775:6776   */\n      0x00\n        /* \"#utility.yul\":6768:6776   */\n      swap1\n      pop\n        /* \"#utility.yul\":6709:6782   */\n      swap1\n      jump\t// out\n        /* \"#utility.yul\":6788:6977   */\n    tag_66:\n        /* \"#utility.yul\":6865:6897   */\n      tag_143\n      tag_65\n      jump\t// in\n    tag_143:\n        /* \"#utility.yul\":6906:6971   */\n      tag_144\n        /* \"#utility.yul\":6964:6970   */\n      dup2\n        /* \"#utility.yul\":6956:6962   */\n      dup5\n        /* \"#utility.yul\":6950:6954   */\n      dup5\n        /* \"#utility.yul\":6906:6971   */\n      tag_64\n      jump\t// in\n    tag_144:\n        /* \"#utility.yul\":6841:6977   */\n      pop\n        /* \"#utility.yul\":6788:6977   */\n      pop\n      pop\n      jump\t// out\n        /* \"#utility.yul\":6983:7169   */\n    tag_67:\n        /* \"#utility.yul\":7043:7163   */\n    tag_146:\n        /* \"#utility.yul\":7060:7063   */\n      dup2\n        /* \"#utility.yul\":7053:7058   */\n      dup2\n        /* \"#utility.yul\":7050:7064   */\n      lt\n        /* \"#utility.yul\":7043:7163   */\n      iszero\n      tag_148\n      jumpi\n        /* \"#utility.yul\":7114:7153   */\n      tag_149\n        /* \"#utility.yul\":7151:7152   */\n      0x00\n        /* \"#utility.yul\":7144:7149   */\n      dup3\n        /* \"#utility.yul\":7114:7153   */\n      tag_66\n      jump\t// in\n    tag_149:\n        /* \"#utility.yul\":7087:7088   */\n      0x01\n        /* \"#utility.yul\":7080:7085   */\n      dup2\n        /* \"#utility.yul\":7076:7089   */\n      add\n        /* \"#utility.yul\":7067:7089   */\n      swap1\n      pop\n        /* \"#utility.yul\":7043:7163   */\n      jump(tag_146)\n    tag_148:\n        /* \"#utility.yul\":6983:7169   */\n      pop\n      pop\n      jump\t// out\n        /* \"#utility.yul\":7175:7718   */\n    tag_68:\n        /* \"#utility.yul\":7276:7278   */\n      0x1f\n        /* \"#utility.yul\":7271:7274   */\n      dup3\n        /* \"#utility.yul\":7268:7279   */\n      gt\n        /* \"#utility.yul\":7265:7711   */\n      iszero\n      tag_151\n      jumpi\n        /* \"#utility.yul\":7310:7348   */\n      tag_152\n        /* \"#utility.yul\":7342:7347   */\n      dup2\n        /* \"#utility.yul\":7310:7348   */\n      tag_54\n      jump\t// in\n    tag_152:\n        /* \"#utility.yul\":7394:7423   */\n      tag_153\n        /* \"#utility.yul\":7412:7422   */\n      dup5\n        /* \"#utility.yul\":7394:7423   */\n      tag_58\n      jump\t// in\n    tag_153:\n        /* \"#utility.yul\":7384:7392   */\n      dup2\n        /* \"#utility.yul\":7380:7424   */\n      add\n        /* \"#utility.yul\":7577:7579   */\n      0x20\n        /* \"#utility.yul\":7565:7575   */\n      dup6\n        /* \"#utility.yul\":7562:7580   */\n      lt\n        /* \"#utility.yul\":7559:7608   */\n      iszero\n      tag_154\n      jumpi\n        /* \"#utility.yul\":7598:7606   */\n      dup2\n        /* \"#utility.yul\":7583:7606   */\n      swap1\n      pop\n        /* \"#utility.yul\":7559:7608   */\n    tag_154:\n        /* \"#utility.yul\":7621:7701   */\n      tag_155\n        /* \"#utility.yul\":7677:7699   */\n      tag_156\n        /* \"#utility.yul\":7695:7698   */\n      dup6\n        /* \"#utility.yul\":7677:7699   */\n      tag_58\n      jump\t// in\n    tag_156:\n        /* \"#utility.yul\":7667:7675   */\n      dup4\n        /* \"#utility.yul\":7663:7700   */\n      add\n        /* \"#utility.yul\":7650:7661   */\n      dup3\n        /* \"#utility.yul\":7621:7701   */\n      tag_67\n      jump\t// in\n    tag_155:\n        /* \"#utility.yul\":7280:7711   */\n      pop\n      pop\n        /* \"#utility.yul\":7265:7711   */\n    tag_151:\n        /* \"#utility.yul\":7175:7718   */\n      pop\n      pop\n      pop\n      jump\t// out\n        /* \"#utility.yul\":7724:7841   */\n    tag_69:\n        /* \"#utility.yul\":7778:7786   */\n      0x00\n        /* \"#utility.yul\":7828:7833   */\n      dup3\n        /* \"#utility.yul\":7822:7826   */\n      dup3\n        /* \"#utility.yul\":7818:7834   */\n      shr\n        /* \"#utility.yul\":7797:7834   */\n      swap1\n      pop\n        /* \"#utility.yul\":7724:7841   */\n      swap3\n      swap2\n      pop\n      pop\n      jump\t// out\n        /* \"#utility.yul\":7847:8016   */\n    tag_70:\n        /* \"#utility.yul\":7891:7897   */\n      0x00\n        /* \"#utility.yul\":7924:7975   */\n      tag_159\n        /* \"#utility.yul\":7972:7973   */\n      0x00\n        /* \"#utility.yul\":7968:7974   */\n      not\n        /* \"#utility.yul\":7960:7965   */\n      dup5\n        /* \"#utility.yul\":7957:7958   */\n      0x08\n        /* \"#utility.yul\":7953:7966   */\n      mul\n        /* \"#utility.yul\":7924:7975   */\n      tag_69\n      jump\t// in\n    tag_159:\n        /* \"#utility.yul\":7920:7976   */\n      not\n        /* \"#utility.yul\":8005:8009   */\n      dup1\n        /* \"#utility.yul\":7999:8003   */\n      dup4\n        /* \"#utility.yul\":7995:8010   */\n      and\n        /* \"#utility.yul\":7985:8010   */\n      swap2\n      pop\n        /* \"#utility.yul\":7898:8016   */\n      pop\n        /* \"#utility.yul\":7847:8016   */\n      swap3\n      swap2\n      pop\n      pop\n      jump\t// out\n        /* \"#utility.yul\":8021:8316   */\n    tag_71:\n        /* \"#utility.yul\":8097:8101   */\n      0x00\n        /* \"#utility.yul\":8243:8272   */\n      tag_161\n        /* \"#utility.yul\":8268:8271   */\n      dup4\n        /* \"#utility.yul\":8262:8266   */\n      dup4\n        /* \"#utility.yul\":8243:8272   */\n      tag_70\n      jump\t// in\n    tag_161:\n        /* \"#utility.yul\":8235:8272   */\n      swap2\n      pop\n        /* \"#utility.yul\":8305:8308   */\n      dup3\n        /* \"#utility.yul\":8302:8303   */\n      0x02\n        /* \"#utility.yul\":8298:8309   */\n      mul\n        /* \"#utility.yul\":8292:8296   */\n      dup3\n        /* \"#utility.yul\":8289:8310   */\n      or\n        /* \"#utility.yul\":8281:8310   */\n      swap1\n      pop\n        /* \"#utility.yul\":8021:8316   */\n      swap3\n      swap2\n      pop\n      pop\n      jump\t// out\n        /* \"#utility.yul\":8321:9724   */\n    tag_36:\n        /* \"#utility.yul\":8445:8489   */\n      tag_163\n        /* \"#utility.yul\":8485:8488   */\n      dup4\n        /* \"#utility.yul\":8480:8483   */\n      dup4\n        /* \"#utility.yul\":8445:8489   */\n      tag_56\n      jump\t// in\n    tag_163:\n        /* \"#utility.yul\":8554:8572   */\n      0xffffffffffffffff\n        /* \"#utility.yul\":8546:8552   */\n      dup2\n        /* \"#utility.yul\":8543:8573   */\n      gt\n        /* \"#utility.yul\":8540:8596   */\n      iszero\n      tag_164\n      jumpi\n        /* \"#utility.yul\":8576:8594   */\n      tag_165\n      tag_57\n      jump\t// in\n    tag_165:\n        /* \"#utility.yul\":8540:8596   */\n    tag_164:\n        /* \"#utility.yul\":8620:8658   */\n      tag_166\n        /* \"#utility.yul\":8652:8656   */\n      dup3\n        /* \"#utility.yul\":8646:8657   */\n      sload\n        /* \"#utility.yul\":8620:8658   */\n      tag_53\n      jump\t// in\n    tag_166:\n        /* \"#utility.yul\":8705:8772   */\n      tag_167\n        /* \"#utility.yul\":8765:8771   */\n      dup3\n        /* \"#utility.yul\":8757:8763   */\n      dup3\n        /* \"#utility.yul\":8751:8755   */\n      dup6\n        /* \"#utility.yul\":8705:8772   */\n      tag_68\n      jump\t// in\n    tag_167:\n        /* \"#utility.yul\":8799:8800   */\n      0x00\n        /* \"#utility.yul\":8828:8830   */\n      0x1f\n        /* \"#utility.yul\":8820:8826   */\n      dup4\n        /* \"#utility.yul\":8817:8831   */\n      gt\n        /* \"#utility.yul\":8845:8846   */\n      0x01\n        /* \"#utility.yul\":8840:9472   */\n      dup2\n      eq\n      tag_169\n      jumpi\n        /* \"#utility.yul\":9516:9517   */\n      0x00\n        /* \"#utility.yul\":9533:9539   */\n      dup5\n        /* \"#utility.yul\":9530:9614   */\n      iszero\n      tag_170\n      jumpi\n        /* \"#utility.yul\":9589:9598   */\n      dup3\n        /* \"#utility.yul\":9584:9587   */\n      dup8\n        /* \"#utility.yul\":9580:9599   */\n      add\n        /* \"#utility.yul\":9567:9600   */\n      calldataload\n        /* \"#utility.yul\":9558:9600   */\n      swap1\n      pop\n        /* \"#utility.yul\":9530:9614   */\n    tag_170:\n        /* \"#utility.yul\":9640:9707   */\n      tag_171\n        /* \"#utility.yul\":9700:9706   */\n      dup6\n        /* \"#utility.yul\":9693:9698   */\n      dup3\n        /* \"#utility.yul\":9640:9707   */\n      tag_71\n      jump\t// in\n    tag_171:\n        /* \"#utility.yul\":9634:9638   */\n      dup7\n        /* \"#utility.yul\":9627:9708   */\n      sstore\n        /* \"#utility.yul\":9489:9718   */\n      pop\n        /* \"#utility.yul\":8810:9718   */\n      jump(tag_168)\n        /* \"#utility.yul\":8840:9472   */\n    tag_169:\n        /* \"#utility.yul\":8892:8896   */\n      0x1f\n        /* \"#utility.yul\":8888:8897   */\n      not\n        /* \"#utility.yul\":8880:8886   */\n      dup5\n        /* \"#utility.yul\":8876:8898   */\n      and\n        /* \"#utility.yul\":8926:8963   */\n      tag_172\n        /* \"#utility.yul\":8958:8962   */\n      dup7\n        /* \"#utility.yul\":8926:8963   */\n      tag_54\n      jump\t// in\n    tag_172:\n        /* \"#utility.yul\":8985:8986   */\n      0x00\n        /* \"#utility.yul\":8999:9214   */\n    tag_173:\n        /* \"#utility.yul\":9013:9020   */\n      dup3\n        /* \"#utility.yul\":9010:9011   */\n      dup2\n        /* \"#utility.yul\":9007:9021   */\n      lt\n        /* \"#utility.yul\":8999:9214   */\n      iszero\n      tag_175\n      jumpi\n        /* \"#utility.yul\":9099:9108   */\n      dup5\n        /* \"#utility.yul\":9094:9097   */\n      dup10\n        /* \"#utility.yul\":9090:9109   */\n      add\n        /* \"#utility.yul\":9077:9110   */\n      calldataload\n        /* \"#utility.yul\":9069:9075   */\n      dup3\n        /* \"#utility.yul\":9062:9111   */\n      sstore\n        /* \"#utility.yul\":9150:9151   */\n      0x01\n        /* \"#utility.yul\":9142:9148   */\n      dup3\n        /* \"#utility.yul\":9138:9152   */\n      add\n        /* \"#utility.yul\":9128:9152   */\n      swap2\n      pop\n        /* \"#utility.yul\":9197:9199   */\n      0x20\n        /* \"#utility.yul\":9186:9195   */\n      dup6\n        /* \"#utility.yul\":9182:9200   */\n      add\n        /* \"#utility.yul\":9169:9200   */\n      swap5\n      pop\n        /* \"#utility.yul\":9036:9040   */\n      0x20\n        /* \"#utility.yul\":9033:9034   */\n      dup2\n        /* \"#utility.yul\":9029:9041   */\n      add\n        /* \"#utility.yul\":9024:9041   */\n      swap1\n      pop\n        /* \"#utility.yul\":8999:9214   */\n      jump(tag_173)\n    tag_175:\n        /* \"#utility.yul\":9242:9248   */\n      dup7\n        /* \"#utility.yul\":9233:9240   */\n      dup4\n        /* \"#utility.yul\":9230:9249   */\n      lt\n        /* \"#utility.yul\":9227:9413   */\n      iszero\n      tag_176\n      jumpi\n        /* \"#utility.yul\":9307:9316   */\n      dup5\n        /* \"#utility.yul\":9302:9305   */\n      dup10\n        /* \"#utility.yul\":9298:9317   */\n      add\n        /* \"#utility.yul\":9285:9318   */\n      calldataload\n        /* \"#utility.yul\":9350:9398   */\n      tag_177\n        /* \"#utility.yul\":9392:9396   */\n      0x1f\n        /* \"#utility.yul\":9384:9390   */\n      dup10\n        /* \"#utility.yul\":9380:9397   */\n      and\n        /* \"#utility.yul\":9369:9378   */\n      dup3\n        /* \"#utility.yul\":9350:9398   */\n      tag_70\n      jump\t// in\n    tag_177:\n        /* \"#utility.yul\":9342:9348   */\n      dup4\n        /* \"#utility.yul\":9335:9399   */\n      sstore\n        /* \"#utility.yul\":9250:9413   */\n      pop\n        /* \"#utility.yul\":9227:9413   */\n    tag_176:\n        /* \"#utility.yul\":9459:9460   */\n      0x01\n        /* \"#utility.yul\":9455:9456   */\n      0x02\n        /* \"#utility.yul\":9447:9453   */\n      dup9\n        /* \"#utility.yul\":9443:9457   */\n      mul\n        /* \"#utility.yul\":9439:9461   */\n      add\n        /* \"#utility.yul\":9433:9437   */\n      dup9\n        /* \"#utility.yul\":9426:9462   */\n      sstore\n        /* \"#utility.yul\":8847:9472   */\n      pop\n      pop\n      pop\n        /* \"#utility.yul\":8810:9718   */\n    tag_168:\n      pop\n        /* \"#utility.yul\":8420:9724   */\n      pop\n      pop\n      pop\n        /* \"#utility.yul\":8321:9724   */\n      pop\n      pop\n      pop\n      jump\t// out\n        /* \"#utility.yul\":9730:9910   */\n    tag_72:\n        /* \"#utility.yul\":9778:9855   */\n      0x4e487b7100000000000000000000000000000000000000000000000000000000\n        /* \"#utility.yul\":9775:9776   */\n      0x00\n        /* \"#utility.yul\":9768:9856   */\n      mstore\n        /* \"#utility.yul\":9875:9879   */\n      0x11\n        /* \"#utility.yul\":9872:9873   */\n      0x04\n        /* \"#utility.yul\":9865:9880   */\n      mstore\n        /* \"#utility.yul\":9899:9903   */\n      0x24\n        /* \"#utility.yul\":9896:9897   */\n      0x00\n        /* \"#utility.yul\":9889:9904   */\n      revert\n        /* \"#utility.yul\":9916:10107   */\n    tag_39:\n        /* \"#utility.yul\":9956:9959   */\n      0x00\n        /* \"#utility.yul\":9975:9995   */\n      tag_180\n        /* \"#utility.yul\":9993:9994   */\n      dup3\n        /* \"#utility.yul\":9975:9995   */\n      tag_47\n      jump\t// in\n    tag_180:\n        /* \"#utility.yul\":9970:9995   */\n      swap2\n      pop\n        /* \"#utility.yul\":10009:10029   */\n      tag_181\n        /* \"#utility.yul\":10027:10028   */\n      dup4\n        /* \"#utility.yul\":10009:10029   */\n      tag_47\n      jump\t// in\n    tag_181:\n        /* \"#utility.yul\":10004:10029   */\n      swap3\n      pop\n        /* \"#utility.yul\":10052:10053   */\n      dup3\n        /* \"#utility.yul\":10049:10050   */\n      dup3\n        /* \"#utility.yul\":10045:10054   */\n      add\n        /* \"#utility.yul\":10038:10054   */\n      swap1\n      pop\n        /* \"#utility.yul\":10073:10076   */\n      dup1\n        /* \"#utility.yul\":10070:10071   */\n      dup3\n        /* \"#utility.yul\":10067:10077   */\n      gt\n        /* \"#utility.yul\":10064:10100   */\n      iszero\n      tag_182\n      jumpi\n        /* \"#utility.yul\":10080:10098   */\n      tag_183\n      tag_72\n      jump\t// in\n    tag_183:\n        /* \"#utility.yul\":10064:10100   */\n    tag_182:\n        /* \"#utility.yul\":9916:10107   */\n      swap3\n      swap2\n      pop\n      pop\n      jump\t// out\n\n    auxdata: 0xa26469706673582212200750800838bf9b72f4aa03c4b2adfef64067350bb692adcaf7e318b7aba33c4964736f6c634300081f0033\n}\n",
				"bytecode": {
					"linkReferences": {},
					"object": "6080604052348015600e575f5ffd5b506107918061001c5f395ff3fe608060405234801561000f575f5ffd5b506004361061003f575f3560e01c8063805265e514610043578063b9830ff114610073578063fc36e15b1461007d575b5f5ffd5b61005d60048036038101906100589190610267565b610099565b60405161006a91906102ca565b60405180910390f35b61007b6100c2565b005b61009760048036038101906100929190610267565b61011f565b005b5f5f83836040516100ab92919061031f565b908152602001604051809103902054905092915050565b5f5f90505b60018054905081101561011c575f600182815481106100e9576100e8610337565b5b905f5260205f20016040516100fe9190610453565b90815260200160405180910390205f905580806001019150506100c7565b50565b6002828260405161013192919061031f565b90815260200160405180910390205f9054906101000a900460ff166101c45760016002838360405161016492919061031f565b90815260200160405180910390205f6101000a81548160ff0219169083151502179055506001828290918060018154018082558091505060019003905f5260205f20015f9091929091929091929091925091826101c292919061062e565b505b60015f83836040516101d792919061031f565b90815260200160405180910390205f8282546101f39190610728565b925050819055505050565b5f5ffd5b5f5ffd5b5f5ffd5b5f5ffd5b5f5ffd5b5f5f83601f84011261022757610226610206565b5b8235905067ffffffffffffffff8111156102445761024361020a565b5b6020830191508360018202830111156102605761025f61020e565b5b9250929050565b5f5f6020838503121561027d5761027c6101fe565b5b5f83013567ffffffffffffffff81111561029a57610299610202565b5b6102a685828601610212565b92509250509250929050565b5f819050919050565b6102c4816102b2565b82525050565b5f6020820190506102dd5f8301846102bb565b92915050565b5f81905092915050565b828183375f83830152505050565b5f61030683856102e3565b93506103138385846102ed565b82840190509392505050565b5f61032b8284866102fb565b91508190509392505050565b7f4e487b71000000000000000000000000000000000000000000000000000000005f52603260045260245ffd5b7f4e487b71000000000000000000000000000000000000000000000000000000005f52602260045260245ffd5b5f60028204905060018216806103a857607f821691505b6020821081036103bb576103ba610364565b5b50919050565b5f819050815f5260205f209050919050565b5f81546103df81610391565b6103e981866102e3565b9450600182165f811461040357600181146104185761044a565b60ff198316865281151582028601935061044a565b610421856103c1565b5f5b8381101561044257815481890152600182019150602081019050610423565b838801955050505b50505092915050565b5f61045e82846103d3565b915081905092915050565b5f82905092915050565b7f4e487b71000000000000000000000000000000000000000000000000000000005f52604160045260245ffd5b5f6020601f8301049050919050565b5f82821b905092915050565b5f600883026104ea7fffffffffffffffffffffffffffffffffffffffffffffffffffffffffffffffff826104af565b6104f486836104af565b95508019841693508086168417925050509392505050565b5f819050919050565b5f61052f61052a610525846102b2565b61050c565b6102b2565b9050919050565b5f819050919050565b61054883610515565b61055c61055482610536565b8484546104bb565b825550505050565b5f5f905090565b610573610564565b61057e81848461053f565b505050565b5b818110156105a1576105965f8261056b565b600181019050610584565b5050565b601f8211156105e6576105b7816103c1565b6105c0846104a0565b810160208510156105cf578190505b6105e36105db856104a0565b830182610583565b50505b505050565b5f82821c905092915050565b5f6106065f19846008026105eb565b1980831691505092915050565b5f61061e83836105f7565b9150826002028217905092915050565b6106388383610469565b67ffffffffffffffff81111561065157610650610473565b5b61065b8254610391565b6106668282856105a5565b5f601f831160018114610693575f8415610681578287013590505b61068b8582610613565b8655506106f2565b601f1984166106a1866103c1565b5f5b828110156106c8578489013582556001820191506020850194506020810190506106a3565b868310156106e557848901356106e1601f8916826105f7565b8355505b6001600288020188555050505b50505050505050565b7f4e487b71000000000000000000000000000000000000000000000000000000005f52601160045260245ffd5b5f610732826102b2565b915061073d836102b2565b9250828201905080821115610755576107546106fb565b5b9291505056fea26469706673582212200750800838bf9b72f4aa03c4b2adfef64067350bb692adcaf7e318b7aba33c4964736f6c634300081f0033",
					"opcodes": "PUSH1 0x80 PUSH1 0x40 MSTORE CALLVALUE DUP1 ISZERO PUSH1 0xE JUMPI PUSH0 PUSH0 REVERT JUMPDEST POP PUSH2 0x791 DUP1 PUSH2 0x1C PUSH0 CODECOPY PUSH0 RETURN INVALID PUSH1 0x80 PUSH1 0x40 MSTORE CALLVALUE DUP1 ISZERO PUSH2 0xF JUMPI PUSH0 PUSH0 REVERT JUMPDEST POP PUSH1 0x4 CALLDATASIZE LT PUSH2 0x3F JUMPI PUSH0 CALLDATALOAD PUSH1 0xE0 SHR DUP1 PUSH4 0x805265E5 EQ PUSH2 0x43 JUMPI DUP1 PUSH4 0xB9830FF1 EQ PUSH2 0x73 JUMPI DUP1 PUSH4 0xFC36E15B EQ PUSH2 0x7D JUMPI JUMPDEST PUSH0 PUSH0 REVERT JUMPDEST PUSH2 0x5D PUSH1 0x4 DUP1 CALLDATASIZE SUB DUP2 ADD SWAP1 PUSH2 0x58 SWAP2 SWAP1 PUSH2 0x267 JUMP JUMPDEST PUSH2 0x99 JUMP JUMPDEST PUSH1 0x40 MLOAD PUSH2 0x6A SWAP2 SWAP1 PUSH2 0x2CA JUMP JUMPDEST PUSH1 0x40 MLOAD DUP1 SWAP2 SUB SWAP1 RETURN JUMPDEST PUSH2 0x7B PUSH2 0xC2 JUMP JUMPDEST STOP JUMPDEST PUSH2 0x97 PUSH1 0x4 DUP1 CALLDATASIZE SUB DUP2 ADD SWAP1 PUSH2 0x92 SWAP2 SWAP1 PUSH2 0x267 JUMP JUMPDEST PUSH2 0x11F JUMP JUMPDEST STOP JUMPDEST PUSH0 PUSH0 DUP4 DUP4 PUSH1 0x40 MLOAD PUSH2 0xAB SWAP3 SWAP2 SWAP1 PUSH2 0x31F JUMP JUMPDEST SWAP1 DUP2 MSTORE PUSH1 0x20 ADD PUSH1 0x40 MLOAD DUP1 SWAP2 SUB SWAP1 KECCAK256 SLOAD SWAP1 POP SWAP3 SWAP2 POP POP JUMP JUMPDEST PUSH0 PUSH0 SWAP1 POP JUMPDEST PUSH1 0x1 DUP1 SLOAD SWAP1 POP DUP2 LT ISZERO PUSH2 0x11C JUMPI PUSH0 PUSH1 0x1 DUP3 DUP2 SLOAD DUP2 LT PUSH2 0xE9 JUMPI PUSH2 0xE8 PUSH2 0x337 JUMP JUMPDEST JUMPDEST SWAP1 PUSH0 MSTORE PUSH1 0x20 PUSH0 KECCAK256 ADD PUSH1 0x40 MLOAD PUSH2 0xFE SWAP2 SWAP1 PUSH2 0x453 JUMP JUMPDEST SWAP1 DUP2 MSTORE PUSH1 0x20 ADD PUSH1 0x40 MLOAD DUP1 SWAP2 SUB SWAP1 KECCAK256 PUSH0 SWAP1 SSTORE DUP1 DUP1 PUSH1 0x1 ADD SWAP2 POP POP PUSH2 0xC7 JUMP JUMPDEST POP JUMP JUMPDEST PUSH1 0x2 DUP3 DUP3 PUSH1 0x40 MLOAD PUSH2 0x131 SWAP3 SWAP2 SWAP1 PUSH2 0x31F JUMP JUMPDEST SWAP1 DUP2 MSTORE PUSH1 0x20 ADD PUSH1 0x40 MLOAD DUP1 SWAP2 SUB SWAP1 KECCAK256 PUSH0 SWAP1 SLOAD SWAP1 PUSH2 0x100 EXP SWAP1 DIV PUSH1 0xFF AND PUSH2 0x1C4 JUMPI PUSH1 0x1 PUSH1 0x2 DUP4 DUP4 PUSH1 0x40 MLOAD PUSH2 0x164 SWAP3 SWAP2 SWAP1 PUSH2 0x31F JUMP JUMPDEST SWAP1 DUP2 MSTORE PUSH1 0x20 ADD PUSH1 0x40 MLOAD DUP1 SWAP2 SUB SWAP1 KECCAK256 PUSH0 PUSH2 0x100 EXP DUP2 SLOAD DUP2 PUSH1 0xFF MUL NOT AND SWAP1 DUP4 ISZERO ISZERO MUL OR SWAP1 SSTORE POP PUSH1 0x1 DUP3 DUP3 SWAP1 SWAP2 DUP1 PUSH1 0x1 DUP2 SLOAD ADD DUP1 DUP3 SSTORE DUP1 SWAP2 POP POP PUSH1 0x1 SWAP1 SUB SWAP1 PUSH0 MSTORE PUSH1 0x20 PUSH0 KECCAK256 ADD PUSH0 SWAP1 SWAP2 SWAP3 SWAP1 SWAP2 SWAP3 SWAP1 SWAP2 SWAP3 SWAP1 SWAP2 SWAP3 POP SWAP2 DUP3 PUSH2 0x1C2 SWAP3 SWAP2 SWAP1 PUSH2 0x62E JUMP JUMPDEST POP JUMPDEST PUSH1 0x1 PUSH0 DUP4 DUP4 PUSH1 0x40 MLOAD PUSH2 0x1D7 SWAP3 SWAP2 SWAP1 PUSH2 0x31F JUMP JUMPDEST SWAP1 DUP2 MSTORE PUSH1 0x20 ADD PUSH1 0x40 MLOAD DUP1 SWAP2 SUB SWAP1 KECCAK256 PUSH0 DUP3 DUP3 SLOAD PUSH2 0x1F3 SWAP2 SWAP1 PUSH2 0x728 JUMP JUMPDEST SWAP3 POP POP DUP2 SWAP1 SSTORE POP POP POP JUMP JUMPDEST PUSH0 PUSH0 REVERT JUMPDEST PUSH0 PUSH0 REVERT JUMPDEST PUSH0 PUSH0 REVERT JUMPDEST PUSH0 PUSH0 REVERT JUMPDEST PUSH0 PUSH0 REVERT JUMPDEST PUSH0 PUSH0 DUP4 PUSH1 0x1F DUP5 ADD SLT PUSH2 0x227 JUMPI PUSH2 0x226 PUSH2 0x206 JUMP JUMPDEST JUMPDEST DUP3 CALLDATALOAD SWAP1 POP PUSH8 0xFFFFFFFFFFFFFFFF DUP2 GT ISZERO PUSH2 0x244 JUMPI PUSH2 0x243 PUSH2 0x20A JUMP JUMPDEST JUMPDEST PUSH1 0x20 DUP4 ADD SWAP2 POP DUP4 PUSH1 0x1 DUP3 MUL DUP4 ADD GT ISZERO PUSH2 0x260 JUMPI PUSH2 0x25F PUSH2 0x20E JUMP JUMPDEST JUMPDEST SWAP3 POP SWAP3 SWAP1 POP JUMP JUMPDEST PUSH0 PUSH0 PUSH1 0x20 DUP4 DUP6 SUB SLT ISZERO PUSH2 0x27D JUMPI PUSH2 0x27C PUSH2 0x1FE JUMP JUMPDEST JUMPDEST PUSH0 DUP4 ADD CALLDATALOAD PUSH8 0xFFFFFFFFFFFFFFFF DUP2 GT ISZERO PUSH2 0x29A JUMPI PUSH2 0x299 PUSH2 0x202 JUMP JUMPDEST JUMPDEST PUSH2 0x2A6 DUP6 DUP3 DUP7 ADD PUSH2 0x212 JUMP JUMPDEST SWAP3 POP SWAP3 POP POP SWAP3 POP SWAP3 SWAP1 POP JUMP JUMPDEST PUSH0 DUP2 SWAP1 POP SWAP2 SWAP1 POP JUMP JUMPDEST PUSH2 0x2C4 DUP2 PUSH2 0x2B2 JUMP JUMPDEST DUP3 MSTORE POP POP JUMP JUMPDEST PUSH0 PUSH1 0x20 DUP3 ADD SWAP1 POP PUSH2 0x2DD PUSH0 DUP4 ADD DUP5 PUSH2 0x2BB JUMP JUMPDEST SWAP3 SWAP2 POP POP JUMP JUMPDEST PUSH0 DUP2 SWAP1 POP SWAP3 SWAP2 POP POP JUMP JUMPDEST DUP3 DUP2 DUP4 CALLDATACOPY PUSH0 DUP4 DUP4 ADD MSTORE POP POP POP JUMP JUMPDEST PUSH0 PUSH2 0x306 DUP4 DUP6 PUSH2 0x2E3 JUMP JUMPDEST SWAP4 POP PUSH2 0x313 DUP4 DUP6 DUP5 PUSH2 0x2ED JUMP JUMPDEST DUP3 DUP5 ADD SWAP1 POP SWAP4 SWAP3 POP POP POP JUMP JUMPDEST PUSH0 PUSH2 0x32B DUP3 DUP5 DUP7 PUSH2 0x2FB JUMP JUMPDEST SWAP2 POP DUP2 SWAP1 POP SWAP4 SWAP3 POP POP POP JUMP JUMPDEST PUSH32 0x4E487B7100000000000000000000000000000000000000000000000000000000 PUSH0 MSTORE PUSH1 0x32 PUSH1 0x4 MSTORE PUSH1 0x24 PUSH0 REVERT JUMPDEST PUSH32 0x4E487B7100000000000000000000000000000000000000000000000000000000 PUSH0 MSTORE PUSH1 0x22 PUSH1 0x4 MSTORE PUSH1 0x24 PUSH0 REVERT JUMPDEST PUSH0 PUSH1 0x2 DUP3 DIV SWAP1 POP PUSH1 0x1 DUP3 AND DUP1 PUSH2 0x3A8 JUMPI PUSH1 0x7F DUP3 AND SWAP2 POP JUMPDEST PUSH1 0x20 DUP3 LT DUP2 SUB PUSH2 0x3BB JUMPI PUSH2 0x3BA PUSH2 0x364 JUMP JUMPDEST JUMPDEST POP SWAP2 SWAP1 POP JUMP JUMPDEST PUSH0 DUP2 SWAP1 POP DUP2 PUSH0 MSTORE PUSH1 0x20 PUSH0 KECCAK256 SWAP1 POP SWAP2 SWAP1 POP JUMP JUMPDEST PUSH0 DUP2 SLOAD PUSH2 0x3DF DUP2 PUSH2 0x391 JUMP JUMPDEST PUSH2 0x3E9 DUP2 DUP7 PUSH2 0x2E3 JUMP JUMPDEST SWAP5 POP PUSH1 0x1 DUP3 AND PUSH0 DUP2 EQ PUSH2 0x403 JUMPI PUSH1 0x1 DUP2 EQ PUSH2 0x418 JUMPI PUSH2 0x44A JUMP JUMPDEST PUSH1 0xFF NOT DUP4 AND DUP7 MSTORE DUP2 ISZERO ISZERO DUP3 MUL DUP7 ADD SWAP4 POP PUSH2 0x44A JUMP JUMPDEST PUSH2 0x421 DUP6 PUSH2 0x3C1 JUMP JUMPDEST PUSH0 JUMPDEST DUP4 DUP2 LT ISZERO PUSH2 0x442 JUMPI DUP2 SLOAD DUP2 DUP10 ADD MSTORE PUSH1 0x1 DUP3 ADD SWAP2 POP PUSH1 0x20 DUP2 ADD SWAP1 POP PUSH2 0x423 JUMP JUMPDEST DUP4 DUP9 ADD SWAP6 POP POP POP JUMPDEST POP POP POP SWAP3 SWAP2 POP POP JUMP JUMPDEST PUSH0 PUSH2 0x45E DUP3 DUP5 PUSH2 0x3D3 JUMP JUMPDEST SWAP2 POP DUP2 SWAP1 POP SWAP3 SWAP2 POP POP JUMP JUMPDEST PUSH0 DUP3 SWAP1 POP SWAP3 SWAP2 POP POP JUMP JUMPDEST PUSH32 0x4E487B7100000000000000000000000000000000000000000000000000000000 PUSH0 MSTORE PUSH1 0x41 PUSH1 0x4 MSTORE PUSH1 0x24 PUSH0 REVERT JUMPDEST PUSH0 PUSH1 0x20 PUSH1 0x1F DUP4 ADD DIV SWAP1 POP SWAP2 SWAP1 POP JUMP JUMPDEST PUSH0 DUP3 DUP3 SHL SWAP1 POP SWAP3 SWAP2 POP POP JUMP JUMPDEST PUSH0 PUSH1 0x8 DUP4 MUL PUSH2 0x4EA PUSH32 0xFFFFFFFFFFFFFFFFFFFFFFFFFFFFFFFFFFFFFFFFFFFFFFFFFFFFFFFFFFFFFFFF DUP3 PUSH2 0x4AF JUMP JUMPDEST PUSH2 0x4F4 DUP7 DUP4 PUSH2 0x4AF JUMP JUMPDEST SWAP6 POP DUP1 NOT DUP5 AND SWAP4 POP DUP1 DUP7 AND DUP5 OR SWAP3 POP POP POP SWAP4 SWAP3 POP POP POP JUMP JUMPDEST PUSH0 DUP2 SWAP1 POP SWAP2 SWAP1 POP JUMP JUMPDEST PUSH0 PUSH2 0x52F PUSH2 0x52A PUSH2 0x525 DUP5 PUSH2 0x2B2 JUMP JUMPDEST PUSH2 0x50C JUMP JUMPDEST PUSH2 0x2B2 JUMP JUMPDEST SWAP1 POP SWAP2 SWAP1 POP JUMP JUMPDEST PUSH0 DUP2 SWAP1 POP SWAP2 SWAP1 POP JUMP JUMPDEST PUSH2 0x548 DUP4 PUSH2 0x515 JUMP JUMPDEST PUSH2 0x55C PUSH2 0x554 DUP3 PUSH2 0x536 JUMP JUMPDEST DUP5 DUP5 SLOAD PUSH2 0x4BB JUMP JUMPDEST DUP3 SSTORE POP POP POP POP JUMP JUMPDEST PUSH0 PUSH0 SWAP1 POP SWAP1 JUMP JUMPDEST PUSH2 0x573 PUSH2 0x564 JUMP JUMPDEST PUSH2 0x57E DUP2 DUP5 DUP5 PUSH2 0x53F JUMP JUMPDEST POP POP POP JUMP JUMPDEST JUMPDEST DUP2 DUP2 LT ISZERO PUSH2 0x5A1 JUMPI PUSH2 0x596 PUSH0 DUP3 PUSH2 0x56B JUMP JUMPDEST PUSH1 0x1 DUP2 ADD SWAP1 POP PUSH2 0x584 JUMP JUMPDEST POP POP JUMP JUMPDEST PUSH1 0x1F DUP3 GT ISZERO PUSH2 0x5E6 JUMPI PUSH2 0x5B7 DUP2 PUSH2 0x3C1 JUMP JUMPDEST PUSH2 0x5C0 DUP5 PUSH2 0x4A0 JUMP JUMPDEST DUP2 ADD PUSH1 0x20 DUP6 LT ISZERO PUSH2 0x5CF JUMPI DUP2 SWAP1 POP JUMPDEST PUSH2 0x5E3 PUSH2 0x5DB DUP6 PUSH2 0x4A0 JUMP JUMPDEST DUP4 ADD DUP3 PUSH2 0x583 JUMP JUMPDEST POP POP JUMPDEST POP POP POP JUMP JUMPDEST PUSH0 DUP3 DUP3 SHR SWAP1 POP SWAP3 SWAP2 POP POP JUMP JUMPDEST PUSH0 PUSH2 0x606 PUSH0 NOT DUP5 PUSH1 0x8 MUL PUSH2 0x5EB JUMP JUMPDEST NOT DUP1 DUP4 AND SWAP2 POP POP SWAP3 SWAP2 POP POP JUMP JUMPDEST PUSH0 PUSH2 0x61E DUP4 DUP4 PUSH2 0x5F7 JUMP JUMPDEST SWAP2 POP DUP3 PUSH1 0x2 MUL DUP3 OR SWAP1 POP SWAP3 SWAP2 POP POP JUMP JUMPDEST PUSH2 0x638 DUP4 DUP4 PUSH2 0x469 JUMP JUMPDEST PUSH8 0xFFFFFFFFFFFFFFFF DUP2 GT ISZERO PUSH2 0x651 JUMPI PUSH2 0x650 PUSH2 0x473 JUMP JUMPDEST JUMPDEST PUSH2 0x65B DUP3 SLOAD PUSH2 0x391 JUMP JUMPDEST PUSH2 0x666 DUP3 DUP3 DUP6 PUSH2 0x5A5 JUMP JUMPDEST PUSH0 PUSH1 0x1F DUP4 GT PUSH1 0x1 DUP2 EQ PUSH2 0x693 JUMPI PUSH0 DUP5 ISZERO PUSH2 0x681 JUMPI DUP3 DUP8 ADD CALLDATALOAD SWAP1 POP JUMPDEST PUSH2 0x68B DUP6 DUP3 PUSH2 0x613 JUMP JUMPDEST DUP7 SSTORE POP PUSH2 0x6F2 JUMP JUMPDEST PUSH1 0x1F NOT DUP5 AND PUSH2 0x6A1 DUP7 PUSH2 0x3C1 JUMP JUMPDEST PUSH0 JUMPDEST DUP3 DUP2 LT ISZERO PUSH2 0x6C8 JUMPI DUP5 DUP10 ADD CALLDATALOAD DUP3 SSTORE PUSH1 0x1 DUP3 ADD SWAP2 POP PUSH1 0x20 DUP6 ADD SWAP5 POP PUSH1 0x20 DUP2 ADD SWAP1 POP PUSH2 0x6A3 JUMP JUMPDEST DUP7 DUP4 LT ISZERO PUSH2 0x6E5 JUMPI DUP5 DUP10 ADD CALLDATALOAD PUSH2 0x6E1 PUSH1 0x1F DUP10 AND DUP3 PUSH2 0x5F7 JUMP JUMPDEST DUP4 SSTORE POP JUMPDEST PUSH1 0x1 PUSH1 0x2 DUP9 MUL ADD DUP9 SSTORE POP POP POP JUMPDEST POP POP POP POP POP POP POP JUMP JUMPDEST PUSH32 0x4E487B7100000000000000000000000000000000000000000000000000000000 PUSH0 MSTORE PUSH1 0x11 PUSH1 0x4 MSTORE PUSH1 0x24 PUSH0 REVERT JUMPDEST PUSH0 PUSH2 0x732 DUP3 PUSH2 0x2B2 JUMP JUMPDEST SWAP2 POP PUSH2 0x73D DUP4 PUSH2 0x2B2 JUMP JUMPDEST SWAP3 POP DUP3 DUP3 ADD SWAP1 POP DUP1 DUP3 GT ISZERO PUSH2 0x755 JUMPI PUSH2 0x754 PUSH2 0x6FB JUMP JUMPDEST JUMPDEST SWAP3 SWAP2 POP POP JUMP INVALID LOG2 PUSH5 0x6970667358 0x22 SLT KECCAK256 SMOD POP DUP1 ADDMOD CODESIZE 0xBF SWAP12 PUSH19 0xF4AA03C4B2ADFEF64067350BB692ADCAF7E318 0xB7 0xAB LOG3 EXTCODECOPY BLOBHASH PUSH5 0x736F6C6343 STOP ADDMOD 0x1F STOP CALLER "
				},
				"gasEstimates": {
					"creation": {
						"codeDepositCost": "387400",
						"executionCost": "422",
						"totalCost": "387822"
					},
					"external": {
						"getVotes(string)": "infinite",
						"resetVotes()": "infinite",
						"vote(string)": "infinite"
					}
				},
				"methodIdentifiers": {
					"getVotes(string)": "805265e5",
					"resetVotes()": "b9830ff1",
					"vote(string)": "fc36e15b"
				}
			},
			"storageLayout": {
				"storage": [
					{
						"astId": 5,
						"contract": "contracts/Voting.sol:Voting",
						"label": "votes",
						"offset": 0,
						"slot": "0",
						"type": "t_mapping(t_string_memory_ptr,t_uint256)"
					},
					{
						"astId": 8,
						"contract": "contracts/Voting.sol:Voting",
						"label": "candidates",
						"offset": 0,
						"slot": "1",
						"type": "t_array(t_string_storage)dyn_storage"
					},
					{
						"astId": 12,
						"contract": "contracts/Voting.sol:Voting",
						"label": "seen",
						"offset": 0,
						"slot": "2",
						"type": "t_mapping(t_string_memory_ptr,t_bool)"
					}
				],
				"types": {
					"t_array(t_string_storage)dyn_storage": {
						"base": "t_string_storage",
						"encoding": "dynamic_array",
						"label": "string[]",
						"numberOfBytes": "32"
					},
					"t_bool": {
						"encoding": "inplace",
						"label": "bool",
						"numberOfBytes": "1"
					},
					"t_mapping(t_string_memory_ptr,t_bool)": {
						"encoding": "mapping",
						"key": "t_string_memory_ptr",
						"label": "mapping(string => bool)",
						"numberOfBytes": "32",
						"value": "t_bool"
					},
					"t_mapping(t_string_memory_ptr,t_uint256)": {
						"encoding": "mapping",
						"key": "t_string_memory_ptr",
						"label": "mapping(string => uint256)",
						"numberOfBytes": "32",
						"value": "t_uint256"
					},
					"t_string_memory_ptr": {
						"encoding": "bytes",
						"label": "string",
						"numberOfBytes": "32"
					},
					"t_string_storage": {
						"encoding": "bytes",
						"label": "string",
						"numberOfBytes": "32"
					},
					"t_uint256": {
						"encoding": "inplace",
						"label": "uint256",
						"numberOfBytes": "32"
					}
				}
			},
			"userdoc": {
				"kind": "user",
				"methods": {},
				"version": 1
			}
		}
	}
}