{
	"contracts/MergeSortedArrays.sol": {
		"MergeSortedArray": {
			"abi": [
				{
					"inputs": [
						{
							"internalType": "uint256[]",
							"name": "nums1",
							"type": "uint256[]"
						},
						{
							"internalType": "uint256",
							"name": "m",
							"type": "uint256"
						},
						{
							"internalType": "uint256[]",
							"name": "nums2",
							"type": "uint256[]"
						},
						{
							"internalType": "uint256",
							"name": "n",
							"type": "uint256"
						}
					],
					"name": "mergeSortedArray",
					"outputs": [
						{
							"internalType": "uint256[]",
							"name": "",
							"type": "uint256[]"
						}
					],
					"stateMutability": "pure",
					"type": "function"
				}
			],
			"devdoc": {
				"kind": "dev",
				"methods": {},
				"version": 1
			},
			"evm": {
				"assembly": "    /* \"contracts/MergeSortedArrays.sol\":57:753  contract MergeSortedArray {... */\n  mstore(0x40, 0x80)\n  callvalue\n  dup1\n  iszero\n  tag_1\n  jumpi\n  revert(0x00, 0x00)\ntag_1:\n  pop\n  dataSize(sub_0)\n  dup1\n  dataOffset(sub_0)\n  0x00\n  codecopy\n  0x00\n  return\nstop\n\nsub_0: assembly {\n        /* \"contracts/MergeSortedArrays.sol\":57:753  contract MergeSortedArray {... */\n      mstore(0x40, 0x80)\n      callvalue\n      dup1\n      iszero\n      tag_1\n      jumpi\n      revert(0x00, 0x00)\n    tag_1:\n      pop\n      jumpi(tag_2, lt(calldatasize, 0x04))\n      shr(0xe0, calldataload(0x00))\n      dup1\n      0x6932871a\n      eq\n      tag_3\n      jumpi\n    tag_2:\n      revert(0x00, 0x00)\n        /* \"contracts/MergeSortedArrays.sol\":89:751  function mergeSortedArray (uint[] calldata nums1, uint m, uint[] calldata nums2, uint n) public pure returns (uint[] memory){... */\n    tag_3:\n      tag_4\n      0x04\n      dup1\n      calldatasize\n      sub\n      dup2\n      add\n      swap1\n      tag_5\n      swap2\n      swap1\n      tag_6\n      jump\t// in\n    tag_5:\n      tag_7\n      jump\t// in\n    tag_4:\n      mload(0x40)\n      tag_8\n      swap2\n      swap1\n      tag_9\n      jump\t// in\n    tag_8:\n      mload(0x40)\n      dup1\n      swap2\n      sub\n      swap1\n      return\n    tag_7:\n        /* \"contracts/MergeSortedArrays.sol\":199:212  uint[] memory */\n      0x60\n        /* \"contracts/MergeSortedArrays.sol\":223:240  uint[] memory res */\n      0x00\n        /* \"contracts/MergeSortedArrays.sol\":258:259  n */\n      dup3\n        /* \"contracts/MergeSortedArrays.sol\":254:255  m */\n      dup7\n        /* \"contracts/MergeSortedArrays.sol\":254:259  m + n */\n      tag_11\n      swap2\n      swap1\n      tag_12\n      jump\t// in\n    tag_11:\n        /* \"contracts/MergeSortedArrays.sol\":243:260  new uint[](m + n) */\n      0xffffffffffffffff\n      dup2\n      gt\n      iszero\n      tag_13\n      jumpi\n      tag_14\n      tag_15\n      jump\t// in\n    tag_14:\n    tag_13:\n      mload(0x40)\n      swap1\n      dup1\n      dup3\n      mstore\n      dup1\n      0x20\n      mul\n      0x20\n      add\n      dup3\n      add\n      0x40\n      mstore\n      dup1\n      iszero\n      tag_16\n      jumpi\n      dup2\n      0x20\n      add\n      0x20\n      dup3\n      mul\n      dup1\n      calldatasize\n      dup4\n      calldatacopy\n      dup1\n      dup3\n      add\n      swap2\n      pop\n      pop\n      swap1\n      pop\n    tag_16:\n      pop\n        /* \"contracts/MergeSortedArrays.sol\":223:260  uint[] memory res = new uint[](m + n) */\n      swap1\n      pop\n        /* \"contracts/MergeSortedArrays.sol\":271:277  uint i */\n      0x00\n        /* \"contracts/MergeSortedArrays.sol\":280:281  0 */\n      0x00\n        /* \"contracts/MergeSortedArrays.sol\":271:281  uint i = 0 */\n      swap1\n      pop\n        /* \"contracts/MergeSortedArrays.sol\":307:313  uint j */\n      0x00\n        /* \"contracts/MergeSortedArrays.sol\":316:317  0 */\n      0x00\n        /* \"contracts/MergeSortedArrays.sol\":307:317  uint j = 0 */\n      swap1\n      pop\n        /* \"contracts/MergeSortedArrays.sol\":343:349  uint k */\n      0x00\n        /* \"contracts/MergeSortedArrays.sol\":352:353  0 */\n      0x00\n        /* \"contracts/MergeSortedArrays.sol\":343:353  uint k = 0 */\n      swap1\n      pop\n        /* \"contracts/MergeSortedArrays.sol\":378:565  while (i < m && j < n) {... */\n    tag_17:\n        /* \"contracts/MergeSortedArrays.sol\":389:390  m */\n      dup9\n        /* \"contracts/MergeSortedArrays.sol\":385:386  i */\n      dup4\n        /* \"contracts/MergeSortedArrays.sol\":385:390  i < m */\n      lt\n        /* \"contracts/MergeSortedArrays.sol\":385:399  i < m && j < n */\n      dup1\n      iszero\n      tag_19\n      jumpi\n      pop\n        /* \"contracts/MergeSortedArrays.sol\":398:399  n */\n      dup6\n        /* \"contracts/MergeSortedArrays.sol\":394:395  j */\n      dup3\n        /* \"contracts/MergeSortedArrays.sol\":394:399  j < n */\n      lt\n        /* \"contracts/MergeSortedArrays.sol\":385:399  i < m && j < n */\n    tag_19:\n        /* \"contracts/MergeSortedArrays.sol\":378:565  while (i < m && j < n) {... */\n      iszero\n      tag_18\n      jumpi\n        /* \"contracts/MergeSortedArrays.sol\":431:436  nums2 */\n      dup8\n      dup8\n        /* \"contracts/MergeSortedArrays.sol\":437:438  j */\n      dup4\n        /* \"contracts/MergeSortedArrays.sol\":431:439  nums2[j] */\n      dup2\n      dup2\n      lt\n      tag_20\n      jumpi\n      tag_21\n      tag_22\n      jump\t// in\n    tag_21:\n    tag_20:\n      swap1\n      pop\n      0x20\n      mul\n      add\n      calldataload\n        /* \"contracts/MergeSortedArrays.sol\":419:424  nums1 */\n      dup12\n      dup12\n        /* \"contracts/MergeSortedArrays.sol\":425:426  i */\n      dup6\n        /* \"contracts/MergeSortedArrays.sol\":419:427  nums1[i] */\n      dup2\n      dup2\n      lt\n      tag_23\n      jumpi\n      tag_24\n      tag_22\n      jump\t// in\n    tag_24:\n    tag_23:\n      swap1\n      pop\n      0x20\n      mul\n      add\n      calldataload\n        /* \"contracts/MergeSortedArrays.sol\":419:439  nums1[i] <= nums2[j] */\n      gt\n        /* \"contracts/MergeSortedArrays.sol\":415:555  if (nums1[i] <= nums2[j]) {... */\n      tag_25\n      jumpi\n        /* \"contracts/MergeSortedArrays.sol\":470:475  nums1 */\n      dup11\n      dup11\n        /* \"contracts/MergeSortedArrays.sol\":476:479  i++ */\n      dup5\n      dup1\n      tag_26\n      swap1\n      tag_27\n      jump\t// in\n    tag_26:\n      swap6\n      pop\n        /* \"contracts/MergeSortedArrays.sol\":470:480  nums1[i++] */\n      dup2\n      dup2\n      lt\n      tag_28\n      jumpi\n      tag_29\n      tag_22\n      jump\t// in\n    tag_29:\n    tag_28:\n      swap1\n      pop\n      0x20\n      mul\n      add\n      calldataload\n        /* \"contracts/MergeSortedArrays.sol\":459:462  res */\n      dup5\n        /* \"contracts/MergeSortedArrays.sol\":463:466  k++ */\n      dup3\n      dup1\n      tag_30\n      swap1\n      tag_27\n      jump\t// in\n    tag_30:\n      swap4\n      pop\n        /* \"contracts/MergeSortedArrays.sol\":459:467  res[k++] */\n      dup2\n      mload\n      dup2\n      lt\n      tag_31\n      jumpi\n      tag_32\n      tag_22\n      jump\t// in\n    tag_32:\n    tag_31:\n      0x20\n      mul\n      0x20\n      add\n      add\n        /* \"contracts/MergeSortedArrays.sol\":459:480  res[k++] = nums1[i++] */\n      dup2\n      dup2\n      mstore\n      pop\n      pop\n        /* \"contracts/MergeSortedArrays.sol\":415:555  if (nums1[i] <= nums2[j]) {... */\n      jump(tag_33)\n    tag_25:\n        /* \"contracts/MergeSortedArrays.sol\":530:535  nums2 */\n      dup8\n      dup8\n        /* \"contracts/MergeSortedArrays.sol\":536:539  j++ */\n      dup4\n      dup1\n      tag_34\n      swap1\n      tag_27\n      jump\t// in\n    tag_34:\n      swap5\n      pop\n        /* \"contracts/MergeSortedArrays.sol\":530:540  nums2[j++] */\n      dup2\n      dup2\n      lt\n      tag_35\n      jumpi\n      tag_36\n      tag_22\n      jump\t// in\n    tag_36:\n    tag_35:\n      swap1\n      pop\n      0x20\n      mul\n      add\n      calldataload\n        /* \"contracts/MergeSortedArrays.sol\":519:522  res */\n      dup5\n        /* \"contracts/MergeSortedArrays.sol\":523:526  k++ */\n      dup3\n      dup1\n      tag_37\n      swap1\n      tag_27\n      jump\t// in\n    tag_37:\n      swap4\n      pop\n        /* \"contracts/MergeSortedArrays.sol\":519:527  res[k++] */\n      dup2\n      mload\n      dup2\n      lt\n      tag_38\n      jumpi\n      tag_39\n      tag_22\n      jump\t// in\n    tag_39:\n    tag_38:\n      0x20\n      mul\n      0x20\n      add\n      add\n        /* \"contracts/MergeSortedArrays.sol\":519:540  res[k++] = nums2[j++] */\n      dup2\n      dup2\n      mstore\n      pop\n      pop\n        /* \"contracts/MergeSortedArrays.sol\":415:555  if (nums1[i] <= nums2[j]) {... */\n    tag_33:\n        /* \"contracts/MergeSortedArrays.sol\":378:565  while (i < m && j < n) {... */\n      jump(tag_17)\n    tag_18:\n        /* \"contracts/MergeSortedArrays.sol\":593:653  while (i < m) {... */\n    tag_40:\n        /* \"contracts/MergeSortedArrays.sol\":604:605  m */\n      dup9\n        /* \"contracts/MergeSortedArrays.sol\":600:601  i */\n      dup4\n        /* \"contracts/MergeSortedArrays.sol\":600:605  i < m */\n      lt\n        /* \"contracts/MergeSortedArrays.sol\":593:653  while (i < m) {... */\n      iszero\n      tag_41\n      jumpi\n        /* \"contracts/MergeSortedArrays.sol\":632:637  nums1 */\n      dup11\n      dup11\n        /* \"contracts/MergeSortedArrays.sol\":638:641  i++ */\n      dup5\n      dup1\n      tag_42\n      swap1\n      tag_27\n      jump\t// in\n    tag_42:\n      swap6\n      pop\n        /* \"contracts/MergeSortedArrays.sol\":632:642  nums1[i++] */\n      dup2\n      dup2\n      lt\n      tag_43\n      jumpi\n      tag_44\n      tag_22\n      jump\t// in\n    tag_44:\n    tag_43:\n      swap1\n      pop\n      0x20\n      mul\n      add\n      calldataload\n        /* \"contracts/MergeSortedArrays.sol\":621:624  res */\n      dup5\n        /* \"contracts/MergeSortedArrays.sol\":625:628  k++ */\n      dup3\n      dup1\n      tag_45\n      swap1\n      tag_27\n      jump\t// in\n    tag_45:\n      swap4\n      pop\n        /* \"contracts/MergeSortedArrays.sol\":621:629  res[k++] */\n      dup2\n      mload\n      dup2\n      lt\n      tag_46\n      jumpi\n      tag_47\n      tag_22\n      jump\t// in\n    tag_47:\n    tag_46:\n      0x20\n      mul\n      0x20\n      add\n      add\n        /* \"contracts/MergeSortedArrays.sol\":621:642  res[k++] = nums1[i++] */\n      dup2\n      dup2\n      mstore\n      pop\n      pop\n        /* \"contracts/MergeSortedArrays.sol\":593:653  while (i < m) {... */\n      jump(tag_40)\n    tag_41:\n        /* \"contracts/MergeSortedArrays.sol\":663:723  while (j < n) {... */\n    tag_48:\n        /* \"contracts/MergeSortedArrays.sol\":674:675  n */\n      dup6\n        /* \"contracts/MergeSortedArrays.sol\":670:671  j */\n      dup3\n        /* \"contracts/MergeSortedArrays.sol\":670:675  j < n */\n      lt\n        /* \"contracts/MergeSortedArrays.sol\":663:723  while (j < n) {... */\n      iszero\n      tag_49\n      jumpi\n        /* \"contracts/MergeSortedArrays.sol\":702:707  nums2 */\n      dup8\n      dup8\n        /* \"contracts/MergeSortedArrays.sol\":708:711  j++ */\n      dup4\n      dup1\n      tag_50\n      swap1\n      tag_27\n      jump\t// in\n    tag_50:\n      swap5\n      pop\n        /* \"contracts/MergeSortedArrays.sol\":702:712  nums2[j++] */\n      dup2\n      dup2\n      lt\n      tag_51\n      jumpi\n      tag_52\n      tag_22\n      jump\t// in\n    tag_52:\n    tag_51:\n      swap1\n      pop\n      0x20\n      mul\n      add\n      calldataload\n        /* \"contracts/MergeSortedArrays.sol\":691:694  res */\n      dup5\n        /* \"contracts/MergeSortedArrays.sol\":695:698  k++ */\n      dup3\n      dup1\n      tag_53\n      swap1\n      tag_27\n      jump\t// in\n    tag_53:\n      swap4\n      pop\n        /* \"contracts/MergeSortedArrays.sol\":691:699  res[k++] */\n      dup2\n      mload\n      dup2\n      lt\n      tag_54\n      jumpi\n      tag_55\n      tag_22\n      jump\t// in\n    tag_55:\n    tag_54:\n      0x20\n      mul\n      0x20\n      add\n      add\n        /* \"contracts/MergeSortedArrays.sol\":691:712  res[k++] = nums2[j++] */\n      dup2\n      dup2\n      mstore\n      pop\n      pop\n        /* \"contracts/MergeSortedArrays.sol\":663:723  while (j < n) {... */\n      jump(tag_48)\n    tag_49:\n        /* \"contracts/MergeSortedArrays.sol\":740:743  res */\n      dup4\n        /* \"contracts/MergeSortedArrays.sol\":733:743  return res */\n      swap5\n      pop\n      pop\n      pop\n      pop\n      pop\n        /* \"contracts/MergeSortedArrays.sol\":89:751  function mergeSortedArray (uint[] calldata nums1, uint m, uint[] calldata nums2, uint n) public pure returns (uint[] memory){... */\n      swap7\n      swap6\n      pop\n      pop\n      pop\n      pop\n      pop\n      pop\n      jump\t// out\n        /* \"#utility.yul\":88:205   */\n    tag_57:\n        /* \"#utility.yul\":197:198   */\n      0x00\n        /* \"#utility.yul\":194:195   */\n      0x00\n        /* \"#utility.yul\":187:199   */\n      revert\n        /* \"#utility.yul\":211:328   */\n    tag_58:\n        /* \"#utility.yul\":320:321   */\n      0x00\n        /* \"#utility.yul\":317:318   */\n      0x00\n        /* \"#utility.yul\":310:322   */\n      revert\n        /* \"#utility.yul\":334:451   */\n    tag_59:\n        /* \"#utility.yul\":443:444   */\n      0x00\n        /* \"#utility.yul\":440:441   */\n      0x00\n        /* \"#utility.yul\":433:445   */\n      revert\n        /* \"#utility.yul\":457:574   */\n    tag_60:\n        /* \"#utility.yul\":566:567   */\n      0x00\n        /* \"#utility.yul\":563:564   */\n      0x00\n        /* \"#utility.yul\":556:568   */\n      revert\n        /* \"#utility.yul\":580:697   */\n    tag_61:\n        /* \"#utility.yul\":689:690   */\n      0x00\n        /* \"#utility.yul\":686:687   */\n      0x00\n        /* \"#utility.yul\":679:691   */\n      revert\n        /* \"#utility.yul\":720:1288   */\n    tag_62:\n        /* \"#utility.yul\":793:801   */\n      0x00\n        /* \"#utility.yul\":803:809   */\n      0x00\n        /* \"#utility.yul\":853:856   */\n      dup4\n        /* \"#utility.yul\":846:850   */\n      0x1f\n        /* \"#utility.yul\":838:844   */\n      dup5\n        /* \"#utility.yul\":834:851   */\n      add\n        /* \"#utility.yul\":830:857   */\n      slt\n        /* \"#utility.yul\":820:942   */\n      tag_82\n      jumpi\n        /* \"#utility.yul\":861:940   */\n      tag_83\n      tag_59\n      jump\t// in\n    tag_83:\n        /* \"#utility.yul\":820:942   */\n    tag_82:\n        /* \"#utility.yul\":974:980   */\n      dup3\n        /* \"#utility.yul\":961:981   */\n      calldataload\n        /* \"#utility.yul\":951:981   */\n      swap1\n      pop\n        /* \"#utility.yul\":1004:1022   */\n      0xffffffffffffffff\n        /* \"#utility.yul\":996:1002   */\n      dup2\n        /* \"#utility.yul\":993:1023   */\n      gt\n        /* \"#utility.yul\":990:1107   */\n      iszero\n      tag_84\n      jumpi\n        /* \"#utility.yul\":1026:1105   */\n      tag_85\n      tag_60\n      jump\t// in\n    tag_85:\n        /* \"#utility.yul\":990:1107   */\n    tag_84:\n        /* \"#utility.yul\":1140:1144   */\n      0x20\n        /* \"#utility.yul\":1132:1138   */\n      dup4\n        /* \"#utility.yul\":1128:1145   */\n      add\n        /* \"#utility.yul\":1116:1145   */\n      swap2\n      pop\n        /* \"#utility.yul\":1194:1197   */\n      dup4\n        /* \"#utility.yul\":1186:1190   */\n      0x20\n        /* \"#utility.yul\":1178:1184   */\n      dup3\n        /* \"#utility.yul\":1174:1191   */\n      mul\n        /* \"#utility.yul\":1164:1172   */\n      dup4\n        /* \"#utility.yul\":1160:1192   */\n      add\n        /* \"#utility.yul\":1157:1198   */\n      gt\n        /* \"#utility.yul\":1154:1282   */\n      iszero\n      tag_86\n      jumpi\n        /* \"#utility.yul\":1201:1280   */\n      tag_87\n      tag_61\n      jump\t// in\n    tag_87:\n        /* \"#utility.yul\":1154:1282   */\n    tag_86:\n        /* \"#utility.yul\":720:1288   */\n      swap3\n      pop\n      swap3\n      swap1\n      pop\n      jump\t// out\n        /* \"#utility.yul\":1294:1371   */\n    tag_63:\n        /* \"#utility.yul\":1331:1338   */\n      0x00\n        /* \"#utility.yul\":1360:1365   */\n      dup2\n        /* \"#utility.yul\":1349:1365   */\n      swap1\n      pop\n        /* \"#utility.yul\":1294:1371   */\n      swap2\n      swap1\n      pop\n      jump\t// out\n        /* \"#utility.yul\":1377:1499   */\n    tag_64:\n        /* \"#utility.yul\":1450:1474   */\n      tag_90\n        /* \"#utility.yul\":1468:1473   */\n      dup2\n        /* \"#utility.yul\":1450:1474   */\n      tag_63\n      jump\t// in\n    tag_90:\n        /* \"#utility.yul\":1443:1448   */\n      dup2\n        /* \"#utility.yul\":1440:1475   */\n      eq\n        /* \"#utility.yul\":1430:1493   */\n      tag_91\n      jumpi\n        /* \"#utility.yul\":1489:1490   */\n      0x00\n        /* \"#utility.yul\":1486:1487   */\n      0x00\n        /* \"#utility.yul\":1479:1491   */\n      revert\n        /* \"#utility.yul\":1430:1493   */\n    tag_91:\n        /* \"#utility.yul\":1377:1499   */\n      pop\n      jump\t// out\n        /* \"#utility.yul\":1505:1644   */\n    tag_65:\n        /* \"#utility.yul\":1551:1556   */\n      0x00\n        /* \"#utility.yul\":1589:1595   */\n      dup2\n        /* \"#utility.yul\":1576:1596   */\n      calldataload\n        /* \"#utility.yul\":1567:1596   */\n      swap1\n      pop\n        /* \"#utility.yul\":1605:1638   */\n      tag_93\n        /* \"#utility.yul\":1632:1637   */\n      dup2\n        /* \"#utility.yul\":1605:1638   */\n      tag_64\n      jump\t// in\n    tag_93:\n        /* \"#utility.yul\":1505:1644   */\n      swap3\n      swap2\n      pop\n      pop\n      jump\t// out\n        /* \"#utility.yul\":1650:2875   */\n    tag_6:\n        /* \"#utility.yul\":1790:1796   */\n      0x00\n        /* \"#utility.yul\":1798:1804   */\n      0x00\n        /* \"#utility.yul\":1806:1812   */\n      0x00\n        /* \"#utility.yul\":1814:1820   */\n      0x00\n        /* \"#utility.yul\":1822:1828   */\n      0x00\n        /* \"#utility.yul\":1830:1836   */\n      0x00\n        /* \"#utility.yul\":1879:1882   */\n      0x80\n        /* \"#utility.yul\":1867:1876   */\n      dup8\n        /* \"#utility.yul\":1858:1865   */\n      dup10\n        /* \"#utility.yul\":1854:1877   */\n      sub\n        /* \"#utility.yul\":1850:1883   */\n      slt\n        /* \"#utility.yul\":1847:1967   */\n      iszero\n      tag_95\n      jumpi\n        /* \"#utility.yul\":1886:1965   */\n      tag_96\n      tag_57\n      jump\t// in\n    tag_96:\n        /* \"#utility.yul\":1847:1967   */\n    tag_95:\n        /* \"#utility.yul\":2034:2035   */\n      0x00\n        /* \"#utility.yul\":2023:2032   */\n      dup8\n        /* \"#utility.yul\":2019:2036   */\n      add\n        /* \"#utility.yul\":2006:2037   */\n      calldataload\n        /* \"#utility.yul\":2064:2082   */\n      0xffffffffffffffff\n        /* \"#utility.yul\":2056:2062   */\n      dup2\n        /* \"#utility.yul\":2053:2083   */\n      gt\n        /* \"#utility.yul\":2050:2167   */\n      iszero\n      tag_97\n      jumpi\n        /* \"#utility.yul\":2086:2165   */\n      tag_98\n      tag_58\n      jump\t// in\n    tag_98:\n        /* \"#utility.yul\":2050:2167   */\n    tag_97:\n        /* \"#utility.yul\":2199:2279   */\n      tag_99\n        /* \"#utility.yul\":2271:2278   */\n      dup10\n        /* \"#utility.yul\":2262:2268   */\n      dup3\n        /* \"#utility.yul\":2251:2260   */\n      dup11\n        /* \"#utility.yul\":2247:2269   */\n      add\n        /* \"#utility.yul\":2199:2279   */\n      tag_62\n      jump\t// in\n    tag_99:\n        /* \"#utility.yul\":2181:2279   */\n      swap7\n      pop\n      swap7\n      pop\n        /* \"#utility.yul\":1977:2289   */\n      pop\n        /* \"#utility.yul\":2328:2330   */\n      0x20\n        /* \"#utility.yul\":2354:2407   */\n      tag_100\n        /* \"#utility.yul\":2399:2406   */\n      dup10\n        /* \"#utility.yul\":2390:2396   */\n      dup3\n        /* \"#utility.yul\":2379:2388   */\n      dup11\n        /* \"#utility.yul\":2375:2397   */\n      add\n        /* \"#utility.yul\":2354:2407   */\n      tag_65\n      jump\t// in\n    tag_100:\n        /* \"#utility.yul\":2344:2407   */\n      swap5\n      pop\n        /* \"#utility.yul\":2299:2417   */\n      pop\n        /* \"#utility.yul\":2484:2486   */\n      0x40\n        /* \"#utility.yul\":2473:2482   */\n      dup8\n        /* \"#utility.yul\":2469:2487   */\n      add\n        /* \"#utility.yul\":2456:2488   */\n      calldataload\n        /* \"#utility.yul\":2515:2533   */\n      0xffffffffffffffff\n        /* \"#utility.yul\":2507:2513   */\n      dup2\n        /* \"#utility.yul\":2504:2534   */\n      gt\n        /* \"#utility.yul\":2501:2618   */\n      iszero\n      tag_101\n      jumpi\n        /* \"#utility.yul\":2537:2616   */\n      tag_102\n      tag_58\n      jump\t// in\n    tag_102:\n        /* \"#utility.yul\":2501:2618   */\n    tag_101:\n        /* \"#utility.yul\":2650:2730   */\n      tag_103\n        /* \"#utility.yul\":2722:2729   */\n      dup10\n        /* \"#utility.yul\":2713:2719   */\n      dup3\n        /* \"#utility.yul\":2702:2711   */\n      dup11\n        /* \"#utility.yul\":2698:2720   */\n      add\n        /* \"#utility.yul\":2650:2730   */\n      tag_62\n      jump\t// in\n    tag_103:\n        /* \"#utility.yul\":2632:2730   */\n      swap4\n      pop\n      swap4\n      pop\n        /* \"#utility.yul\":2427:2740   */\n      pop\n        /* \"#utility.yul\":2779:2781   */\n      0x60\n        /* \"#utility.yul\":2805:2858   */\n      tag_104\n        /* \"#utility.yul\":2850:2857   */\n      dup10\n        /* \"#utility.yul\":2841:2847   */\n      dup3\n        /* \"#utility.yul\":2830:2839   */\n      dup11\n        /* \"#utility.yul\":2826:2848   */\n      add\n        /* \"#utility.yul\":2805:2858   */\n      tag_65\n      jump\t// in\n    tag_104:\n        /* \"#utility.yul\":2795:2858   */\n      swap2\n      pop\n        /* \"#utility.yul\":2750:2868   */\n      pop\n        /* \"#utility.yul\":1650:2875   */\n      swap3\n      swap6\n      pop\n      swap3\n      swap6\n      pop\n      swap3\n      swap6\n      jump\t// out\n        /* \"#utility.yul\":2881:2995   */\n    tag_66:\n        /* \"#utility.yul\":2948:2954   */\n      0x00\n        /* \"#utility.yul\":2982:2987   */\n      dup2\n        /* \"#utility.yul\":2976:2988   */\n      mload\n        /* \"#utility.yul\":2966:2988   */\n      swap1\n      pop\n        /* \"#utility.yul\":2881:2995   */\n      swap2\n      swap1\n      pop\n      jump\t// out\n        /* \"#utility.yul\":3001:3185   */\n    tag_67:\n        /* \"#utility.yul\":3100:3111   */\n      0x00\n        /* \"#utility.yul\":3134:3140   */\n      dup3\n        /* \"#utility.yul\":3129:3132   */\n      dup3\n        /* \"#utility.yul\":3122:3141   */\n      mstore\n        /* \"#utility.yul\":3174:3178   */\n      0x20\n        /* \"#utility.yul\":3169:3172   */\n      dup3\n        /* \"#utility.yul\":3165:3179   */\n      add\n        /* \"#utility.yul\":3150:3179   */\n      swap1\n      pop\n        /* \"#utility.yul\":3001:3185   */\n      swap3\n      swap2\n      pop\n      pop\n      jump\t// out\n        /* \"#utility.yul\":3191:3323   */\n    tag_68:\n        /* \"#utility.yul\":3258:3262   */\n      0x00\n        /* \"#utility.yul\":3281:3284   */\n      dup2\n        /* \"#utility.yul\":3273:3284   */\n      swap1\n      pop\n        /* \"#utility.yul\":3311:3315   */\n      0x20\n        /* \"#utility.yul\":3306:3309   */\n      dup3\n        /* \"#utility.yul\":3302:3316   */\n      add\n        /* \"#utility.yul\":3294:3316   */\n      swap1\n      pop\n        /* \"#utility.yul\":3191:3323   */\n      swap2\n      swap1\n      pop\n      jump\t// out\n        /* \"#utility.yul\":3329:3437   */\n    tag_69:\n        /* \"#utility.yul\":3406:3430   */\n      tag_109\n        /* \"#utility.yul\":3424:3429   */\n      dup2\n        /* \"#utility.yul\":3406:3430   */\n      tag_63\n      jump\t// in\n    tag_109:\n        /* \"#utility.yul\":3401:3404   */\n      dup3\n        /* \"#utility.yul\":3394:3431   */\n      mstore\n        /* \"#utility.yul\":3329:3437   */\n      pop\n      pop\n      jump\t// out\n        /* \"#utility.yul\":3443:3622   */\n    tag_70:\n        /* \"#utility.yul\":3512:3522   */\n      0x00\n        /* \"#utility.yul\":3533:3579   */\n      tag_111\n        /* \"#utility.yul\":3575:3578   */\n      dup4\n        /* \"#utility.yul\":3567:3573   */\n      dup4\n        /* \"#utility.yul\":3533:3579   */\n      tag_69\n      jump\t// in\n    tag_111:\n        /* \"#utility.yul\":3611:3615   */\n      0x20\n        /* \"#utility.yul\":3606:3609   */\n      dup4\n        /* \"#utility.yul\":3602:3616   */\n      add\n        /* \"#utility.yul\":3588:3616   */\n      swap1\n      pop\n        /* \"#utility.yul\":3443:3622   */\n      swap3\n      swap2\n      pop\n      pop\n      jump\t// out\n        /* \"#utility.yul\":3628:3741   */\n    tag_71:\n        /* \"#utility.yul\":3698:3702   */\n      0x00\n        /* \"#utility.yul\":3730:3734   */\n      0x20\n        /* \"#utility.yul\":3725:3728   */\n      dup3\n        /* \"#utility.yul\":3721:3735   */\n      add\n        /* \"#utility.yul\":3713:3735   */\n      swap1\n      pop\n        /* \"#utility.yul\":3628:3741   */\n      swap2\n      swap1\n      pop\n      jump\t// out\n        /* \"#utility.yul\":3777:4509   */\n    tag_72:\n        /* \"#utility.yul\":3896:3899   */\n      0x00\n        /* \"#utility.yul\":3925:3979   */\n      tag_114\n        /* \"#utility.yul\":3973:3978   */\n      dup3\n        /* \"#utility.yul\":3925:3979   */\n      tag_66\n      jump\t// in\n    tag_114:\n        /* \"#utility.yul\":3995:4081   */\n      tag_115\n        /* \"#utility.yul\":4074:4080   */\n      dup2\n        /* \"#utility.yul\":4069:4072   */\n      dup6\n        /* \"#utility.yul\":3995:4081   */\n      tag_67\n      jump\t// in\n    tag_115:\n        /* \"#utility.yul\":3988:4081   */\n      swap4\n      pop\n        /* \"#utility.yul\":4105:4161   */\n      tag_116\n        /* \"#utility.yul\":4155:4160   */\n      dup4\n        /* \"#utility.yul\":4105:4161   */\n      tag_68\n      jump\t// in\n    tag_116:\n        /* \"#utility.yul\":4184:4191   */\n      dup1\n        /* \"#utility.yul\":4215:4216   */\n      0x00\n        /* \"#utility.yul\":4200:4484   */\n    tag_117:\n        /* \"#utility.yul\":4225:4231   */\n      dup4\n        /* \"#utility.yul\":4222:4223   */\n      dup2\n        /* \"#utility.yul\":4219:4232   */\n      lt\n        /* \"#utility.yul\":4200:4484   */\n      iszero\n      tag_119\n      jumpi\n        /* \"#utility.yul\":4301:4307   */\n      dup2\n        /* \"#utility.yul\":4295:4308   */\n      mload\n        /* \"#utility.yul\":4328:4391   */\n      tag_120\n        /* \"#utility.yul\":4387:4390   */\n      dup9\n        /* \"#utility.yul\":4372:4385   */\n      dup3\n        /* \"#utility.yul\":4328:4391   */\n      tag_70\n      jump\t// in\n    tag_120:\n        /* \"#utility.yul\":4321:4391   */\n      swap8\n      pop\n        /* \"#utility.yul\":4414:4474   */\n      tag_121\n        /* \"#utility.yul\":4467:4473   */\n      dup4\n        /* \"#utility.yul\":4414:4474   */\n      tag_71\n      jump\t// in\n    tag_121:\n        /* \"#utility.yul\":4404:4474   */\n      swap3\n      pop\n        /* \"#utility.yul\":4260:4484   */\n      pop\n        /* \"#utility.yul\":4247:4248   */\n      0x01\n        /* \"#utility.yul\":4244:4245   */\n      dup2\n        /* \"#utility.yul\":4240:4249   */\n      add\n        /* \"#utility.yul\":4235:4249   */\n      swap1\n      pop\n        /* \"#utility.yul\":4200:4484   */\n      jump(tag_117)\n    tag_119:\n        /* \"#utility.yul\":4204:4218   */\n      pop\n        /* \"#utility.yul\":4500:4503   */\n      dup6\n        /* \"#utility.yul\":4493:4503   */\n      swap4\n      pop\n        /* \"#utility.yul\":3901:4509   */\n      pop\n      pop\n      pop\n        /* \"#utility.yul\":3777:4509   */\n      swap3\n      swap2\n      pop\n      pop\n      jump\t// out\n        /* \"#utility.yul\":4515:4888   */\n    tag_9:\n        /* \"#utility.yul\":4658:4662   */\n      0x00\n        /* \"#utility.yul\":4696:4698   */\n      0x20\n        /* \"#utility.yul\":4685:4694   */\n      dup3\n        /* \"#utility.yul\":4681:4699   */\n      add\n        /* \"#utility.yul\":4673:4699   */\n      swap1\n      pop\n        /* \"#utility.yul\":4745:4754   */\n      dup2\n        /* \"#utility.yul\":4739:4743   */\n      dup2\n        /* \"#utility.yul\":4735:4755   */\n      sub\n        /* \"#utility.yul\":4731:4732   */\n      0x00\n        /* \"#utility.yul\":4720:4729   */\n      dup4\n        /* \"#utility.yul\":4716:4733   */\n      add\n        /* \"#utility.yul\":4709:4756   */\n      mstore\n        /* \"#utility.yul\":4773:4881   */\n      tag_123\n        /* \"#utility.yul\":4876:4880   */\n      dup2\n        /* \"#utility.yul\":4867:4873   */\n      dup5\n        /* \"#utility.yul\":4773:4881   */\n      tag_72\n      jump\t// in\n    tag_123:\n        /* \"#utility.yul\":4765:4881   */\n      swap1\n      pop\n        /* \"#utility.yul\":4515:4888   */\n      swap3\n      swap2\n      pop\n      pop\n      jump\t// out\n        /* \"#utility.yul\":4894:5074   */\n    tag_73:\n        /* \"#utility.yul\":4942:5019   */\n      0x4e487b7100000000000000000000000000000000000000000000000000000000\n        /* \"#utility.yul\":4939:4940   */\n      0x00\n        /* \"#utility.yul\":4932:5020   */\n      mstore\n        /* \"#utility.yul\":5039:5043   */\n      0x11\n        /* \"#utility.yul\":5036:5037   */\n      0x04\n        /* \"#utility.yul\":5029:5044   */\n      mstore\n        /* \"#utility.yul\":5063:5067   */\n      0x24\n        /* \"#utility.yul\":5060:5061   */\n      0x00\n        /* \"#utility.yul\":5053:5068   */\n      revert\n        /* \"#utility.yul\":5080:5271   */\n    tag_12:\n        /* \"#utility.yul\":5120:5123   */\n      0x00\n        /* \"#utility.yul\":5139:5159   */\n      tag_126\n        /* \"#utility.yul\":5157:5158   */\n      dup3\n        /* \"#utility.yul\":5139:5159   */\n      tag_63\n      jump\t// in\n    tag_126:\n        /* \"#utility.yul\":5134:5159   */\n      swap2\n      pop\n        /* \"#utility.yul\":5173:5193   */\n      tag_127\n        /* \"#utility.yul\":5191:5192   */\n      dup4\n        /* \"#utility.yul\":5173:5193   */\n      tag_63\n      jump\t// in\n    tag_127:\n        /* \"#utility.yul\":5168:5193   */\n      swap3\n      pop\n        /* \"#utility.yul\":5216:5217   */\n      dup3\n        /* \"#utility.yul\":5213:5214   */\n      dup3\n        /* \"#utility.yul\":5209:5218   */\n      add\n        /* \"#utility.yul\":5202:5218   */\n      swap1\n      pop\n        /* \"#utility.yul\":5237:5240   */\n      dup1\n        /* \"#utility.yul\":5234:5235   */\n      dup3\n        /* \"#utility.yul\":5231:5241   */\n      gt\n        /* \"#utility.yul\":5228:5264   */\n      iszero\n      tag_128\n      jumpi\n        /* \"#utility.yul\":5244:5262   */\n      tag_129\n      tag_73\n      jump\t// in\n    tag_129:\n        /* \"#utility.yul\":5228:5264   */\n    tag_128:\n        /* \"#utility.yul\":5080:5271   */\n      swap3\n      swap2\n      pop\n      pop\n      jump\t// out\n        /* \"#utility.yul\":5277:5457   */\n    tag_15:\n        /* \"#utility.yul\":5325:5402   */\n      0x4e487b7100000000000000000000000000000000000000000000000000000000\n        /* \"#utility.yul\":5322:5323   */\n      0x00\n        /* \"#utility.yul\":5315:5403   */\n      mstore\n        /* \"#utility.yul\":5422:5426   */\n      0x41\n        /* \"#utility.yul\":5419:5420   */\n      0x04\n        /* \"#utility.yul\":5412:5427   */\n      mstore\n        /* \"#utility.yul\":5446:5450   */\n      0x24\n        /* \"#utility.yul\":5443:5444   */\n      0x00\n        /* \"#utility.yul\":5436:5451   */\n      revert\n        /* \"#utility.yul\":5463:5643   */\n    tag_22:\n        /* \"#utility.yul\":5511:5588   */\n      0x4e487b7100000000000000000000000000000000000000000000000000000000\n        /* \"#utility.yul\":5508:5509   */\n      0x00\n        /* \"#utility.yul\":5501:5589   */\n      mstore\n        /* \"#utility.yul\":5608:5612   */\n      0x32\n        /* \"#utility.yul\":5605:5606   */\n      0x04\n        /* \"#utility.yul\":5598:5613   */\n      mstore\n        /* \"#utility.yul\":5632:5636   */\n      0x24\n        /* \"#utility.yul\":5629:5630   */\n      0x00\n        /* \"#utility.yul\":5622:5637   */\n      revert\n        /* \"#utility.yul\":5649:5882   */\n    tag_27:\n        /* \"#utility.yul\":5688:5691   */\n      0x00\n        /* \"#utility.yul\":5711:5735   */\n      tag_133\n        /* \"#utility.yul\":5729:5734   */\n      dup3\n        /* \"#utility.yul\":5711:5735   */\n      tag_63\n      jump\t// in\n    tag_133:\n        /* \"#utility.yul\":5702:5735   */\n      swap2\n      pop\n        /* \"#utility.yul\":5757:5823   */\n      0xffffffffffffffffffffffffffffffffffffffffffffffffffffffffffffffff\n        /* \"#utility.yul\":5750:5755   */\n      dup3\n        /* \"#utility.yul\":5747:5824   */\n      sub\n        /* \"#utility.yul\":5744:5847   */\n      tag_134\n      jumpi\n        /* \"#utility.yul\":5827:5845   */\n      tag_135\n      tag_73\n      jump\t// in\n    tag_135:\n        /* \"#utility.yul\":5744:5847   */\n    tag_134:\n        /* \"#utility.yul\":5874:5875   */\n      0x01\n        /* \"#utility.yul\":5867:5872   */\n      dup3\n        /* \"#utility.yul\":5863:5876   */\n      add\n        /* \"#utility.yul\":5856:5876   */\n      swap1\n      pop\n        /* \"#utility.yul\":5649:5882   */\n      swap2\n      swap1\n      pop\n      jump\t// out\n\n    auxdata: 0xa2646970667358221220153c3a42b8b48f57a0d5a4bd0e3a2ff0f3b40fa1c28dcaba2ffcc064f6cbd5ef64736f6c634300081f0033\n}\n",
				"bytecode": {
					"linkReferences": {},
					"object": "6080604052348015600e575f5ffd5b506105d88061001c5f395ff3fe608060405234801561000f575f5ffd5b5060043610610029575f3560e01c80636932871a1461002d575b5f5ffd5b61004760048036038101906100429190610327565b61005d565b6040516100549190610481565b60405180910390f35b60605f828661006c91906104ce565b67ffffffffffffffff81111561008557610084610501565b5b6040519080825280602002602001820160405280156100b35781602001602082028036833780820191505090505b5090505f5f90505f5f90505f5f90505b88831080156100d157508582105b156101bc578787838181106100e9576100e861052e565b5b905060200201358b8b858181106101035761010261052e565b5b9050602002013511610165578a8a848061011c9061055b565b955081811061012e5761012d61052e565b5b905060200201358482806101419061055b565b9350815181106101545761015361052e565b5b6020026020010181815250506101b7565b878783806101729061055b565b94508181106101845761018361052e565b5b905060200201358482806101979061055b565b9350815181106101aa576101a961052e565b5b6020026020010181815250505b6100c3565b5b8883101561021b578a8a84806101d29061055b565b95508181106101e4576101e361052e565b5b905060200201358482806101f79061055b565b93508151811061020a5761020961052e565b5b6020026020010181815250506101bd565b5b8582101561027a57878783806102319061055b565b94508181106102435761024261052e565b5b905060200201358482806102569061055b565b9350815181106102695761026861052e565b5b60200260200101818152505061021c565b839450505050509695505050505050565b5f5ffd5b5f5ffd5b5f5ffd5b5f5ffd5b5f5ffd5b5f5f83601f8401126102b4576102b3610293565b5b8235905067ffffffffffffffff8111156102d1576102d0610297565b5b6020830191508360208202830111156102ed576102ec61029b565b5b9250929050565b5f819050919050565b610306816102f4565b8114610310575f5ffd5b50565b5f81359050610321816102fd565b92915050565b5f5f5f5f5f5f608087890312156103415761034061028b565b5b5f87013567ffffffffffffffff81111561035e5761035d61028f565b5b61036a89828a0161029f565b9650965050602061037d89828a01610313565b945050604087013567ffffffffffffffff81111561039e5761039d61028f565b5b6103aa89828a0161029f565b935093505060606103bd89828a01610313565b9150509295509295509295565b5f81519050919050565b5f82825260208201905092915050565b5f819050602082019050919050565b6103fc816102f4565b82525050565b5f61040d83836103f3565b60208301905092915050565b5f602082019050919050565b5f61042f826103ca565b61043981856103d4565b9350610444836103e4565b805f5b8381101561047457815161045b8882610402565b975061046683610419565b925050600181019050610447565b5085935050505092915050565b5f6020820190508181035f8301526104998184610425565b905092915050565b7f4e487b71000000000000000000000000000000000000000000000000000000005f52601160045260245ffd5b5f6104d8826102f4565b91506104e3836102f4565b92508282019050808211156104fb576104fa6104a1565b5b92915050565b7f4e487b71000000000000000000000000000000000000000000000000000000005f52604160045260245ffd5b7f4e487b71000000000000000000000000000000000000000000000000000000005f52603260045260245ffd5b5f610565826102f4565b91507fffffffffffffffffffffffffffffffffffffffffffffffffffffffffffffffff8203610597576105966104a1565b5b60018201905091905056fea2646970667358221220153c3a42b8b48f57a0d5a4bd0e3a2ff0f3b40fa1c28dcaba2ffcc064f6cbd5ef64736f6c634300081f0033",
					"opcodes": "PUSH1 0x80 PUSH1 0x40 MSTORE CALLVALUE DUP1 ISZERO PUSH1 0xE JUMPI PUSH0 PUSH0 REVERT JUMPDEST POP PUSH2 0x5D8 DUP1 PUSH2 0x1C PUSH0 CODECOPY PUSH0 RETURN INVALID PUSH1 0x80 PUSH1 0x40 MSTORE CALLVALUE DUP1 ISZERO PUSH2 0xF JUMPI PUSH0 PUSH0 REVERT JUMPDEST POP PUSH1 0x4 CALLDATASIZE LT PUSH2 0x29 JUMPI PUSH0 CALLDATALOAD PUSH1 0xE0 SHR DUP1 PUSH4 0x6932871A EQ PUSH2 0x2D JUMPI JUMPDEST PUSH0 PUSH0 REVERT JUMPDEST PUSH2 0x47 PUSH1 0x4 DUP1 CALLDATASIZE SUB DUP2 ADD SWAP1 PUSH2 0x42 SWAP2 SWAP1 PUSH2 0x327 JUMP JUMPDEST PUSH2 0x5D JUMP JUMPDEST PUSH1 0x40 MLOAD PUSH2 0x54 SWAP2 SWAP1 PUSH2 0x481 JUMP JUMPDEST PUSH1 0x40 MLOAD DUP1 SWAP2 SUB SWAP1 RETURN JUMPDEST PUSH1 0x60 PUSH0 DUP3 DUP7 PUSH2 0x6C SWAP2 SWAP1 PUSH2 0x4CE JUMP JUMPDEST PUSH8 0xFFFFFFFFFFFFFFFF DUP2 GT ISZERO PUSH2 0x85 JUMPI PUSH2 0x84 PUSH2 0x501 JUMP JUMPDEST JUMPDEST PUSH1 0x40 MLOAD SWAP1 DUP1 DUP3 MSTORE DUP1 PUSH1 0x20 MUL PUSH1 0x20 ADD DUP3 ADD PUSH1 0x40 MSTORE DUP1 ISZERO PUSH2 0xB3 JUMPI DUP2 PUSH1 0x20 ADD PUSH1 0x20 DUP3 MUL DUP1 CALLDATASIZE DUP4 CALLDATACOPY DUP1 DUP3 ADD SWAP2 POP POP SWAP1 POP JUMPDEST POP SWAP1 POP PUSH0 PUSH0 SWAP1 POP PUSH0 PUSH0 SWAP1 POP PUSH0 PUSH0 SWAP1 POP JUMPDEST DUP9 DUP4 LT DUP1 ISZERO PUSH2 0xD1 JUMPI POP DUP6 DUP3 LT JUMPDEST ISZERO PUSH2 0x1BC JUMPI DUP8 DUP8 DUP4 DUP2 DUP2 LT PUSH2 0xE9 JUMPI PUSH2 0xE8 PUSH2 0x52E JUMP JUMPDEST JUMPDEST SWAP1 POP PUSH1 0x20 MUL ADD CALLDATALOAD DUP12 DUP12 DUP6 DUP2 DUP2 LT PUSH2 0x103 JUMPI PUSH2 0x102 PUSH2 0x52E JUMP JUMPDEST JUMPDEST SWAP1 POP PUSH1 0x20 MUL ADD CALLDATALOAD GT PUSH2 0x165 JUMPI DUP11 DUP11 DUP5 DUP1 PUSH2 0x11C SWAP1 PUSH2 0x55B JUMP JUMPDEST SWAP6 POP DUP2 DUP2 LT PUSH2 0x12E JUMPI PUSH2 0x12D PUSH2 0x52E JUMP JUMPDEST JUMPDEST SWAP1 POP PUSH1 0x20 MUL ADD CALLDATALOAD DUP5 DUP3 DUP1 PUSH2 0x141 SWAP1 PUSH2 0x55B JUMP JUMPDEST SWAP4 POP DUP2 MLOAD DUP2 LT PUSH2 0x154 JUMPI PUSH2 0x153 PUSH2 0x52E JUMP JUMPDEST JUMPDEST PUSH1 0x20 MUL PUSH1 0x20 ADD ADD DUP2 DUP2 MSTORE POP POP PUSH2 0x1B7 JUMP JUMPDEST DUP8 DUP8 DUP4 DUP1 PUSH2 0x172 SWAP1 PUSH2 0x55B JUMP JUMPDEST SWAP5 POP DUP2 DUP2 LT PUSH2 0x184 JUMPI PUSH2 0x183 PUSH2 0x52E JUMP JUMPDEST JUMPDEST SWAP1 POP PUSH1 0x20 MUL ADD CALLDATALOAD DUP5 DUP3 DUP1 PUSH2 0x197 SWAP1 PUSH2 0x55B JUMP JUMPDEST SWAP4 POP DUP2 MLOAD DUP2 LT PUSH2 0x1AA JUMPI PUSH2 0x1A9 PUSH2 0x52E JUMP JUMPDEST JUMPDEST PUSH1 0x20 MUL PUSH1 0x20 ADD ADD DUP2 DUP2 MSTORE POP POP JUMPDEST PUSH2 0xC3 JUMP JUMPDEST JUMPDEST DUP9 DUP4 LT ISZERO PUSH2 0x21B JUMPI DUP11 DUP11 DUP5 DUP1 PUSH2 0x1D2 SWAP1 PUSH2 0x55B JUMP JUMPDEST SWAP6 POP DUP2 DUP2 LT PUSH2 0x1E4 JUMPI PUSH2 0x1E3 PUSH2 0x52E JUMP JUMPDEST JUMPDEST SWAP1 POP PUSH1 0x20 MUL ADD CALLDATALOAD DUP5 DUP3 DUP1 PUSH2 0x1F7 SWAP1 PUSH2 0x55B JUMP JUMPDEST SWAP4 POP DUP2 MLOAD DUP2 LT PUSH2 0x20A JUMPI PUSH2 0x209 PUSH2 0x52E JUMP JUMPDEST JUMPDEST PUSH1 0x20 MUL PUSH1 0x20 ADD ADD DUP2 DUP2 MSTORE POP POP PUSH2 0x1BD JUMP JUMPDEST JUMPDEST DUP6 DUP3 LT ISZERO PUSH2 0x27A JUMPI DUP8 DUP8 DUP4 DUP1 PUSH2 0x231 SWAP1 PUSH2 0x55B JUMP JUMPDEST SWAP5 POP DUP2 DUP2 LT PUSH2 0x243 JUMPI PUSH2 0x242 PUSH2 0x52E JUMP JUMPDEST JUMPDEST SWAP1 POP PUSH1 0x20 MUL ADD CALLDATALOAD DUP5 DUP3 DUP1 PUSH2 0x256 SWAP1 PUSH2 0x55B JUMP JUMPDEST SWAP4 POP DUP2 MLOAD DUP2 LT PUSH2 0x269 JUMPI PUSH2 0x268 PUSH2 0x52E JUMP JUMPDEST JUMPDEST PUSH1 0x20 MUL PUSH1 0x20 ADD ADD DUP2 DUP2 MSTORE POP POP PUSH2 0x21C JUMP JUMPDEST DUP4 SWAP5 POP POP POP POP POP SWAP7 SWAP6 POP POP POP POP POP POP JUMP JUMPDEST PUSH0 PUSH0 REVERT JUMPDEST PUSH0 PUSH0 REVERT JUMPDEST PUSH0 PUSH0 REVERT JUMPDEST PUSH0 PUSH0 REVERT JUMPDEST PUSH0 PUSH0 REVERT JUMPDEST PUSH0 PUSH0 DUP4 PUSH1 0x1F DUP5 ADD SLT PUSH2 0x2B4 JUMPI PUSH2 0x2B3 PUSH2 0x293 JUMP JUMPDEST JUMPDEST DUP3 CALLDATALOAD SWAP1 POP PUSH8 0xFFFFFFFFFFFFFFFF DUP2 GT ISZERO PUSH2 0x2D1 JUMPI PUSH2 0x2D0 PUSH2 0x297 JUMP JUMPDEST JUMPDEST PUSH1 0x20 DUP4 ADD SWAP2 POP DUP4 PUSH1 0x20 DUP3 MUL DUP4 ADD GT ISZERO PUSH2 0x2ED JUMPI PUSH2 0x2EC PUSH2 0x29B JUMP JUMPDEST JUMPDEST SWAP3 POP SWAP3 SWAP1 POP JUMP JUMPDEST PUSH0 DUP2 SWAP1 POP SWAP2 SWAP1 POP JUMP JUMPDEST PUSH2 0x306 DUP2 PUSH2 0x2F4 JUMP JUMPDEST DUP2 EQ PUSH2 0x310 JUMPI PUSH0 PUSH0 REVERT JUMPDEST POP JUMP JUMPDEST PUSH0 DUP2 CALLDATALOAD SWAP1 POP PUSH2 0x321 DUP2 PUSH2 0x2FD JUMP JUMPDEST SWAP3 SWAP2 POP POP JUMP JUMPDEST PUSH0 PUSH0 PUSH0 PUSH0 PUSH0 PUSH0 PUSH1 0x80 DUP8 DUP10 SUB SLT ISZERO PUSH2 0x341 JUMPI PUSH2 0x340 PUSH2 0x28B JUMP JUMPDEST JUMPDEST PUSH0 DUP8 ADD CALLDATALOAD PUSH8 0xFFFFFFFFFFFFFFFF DUP2 GT ISZERO PUSH2 0x35E JUMPI PUSH2 0x35D PUSH2 0x28F JUMP JUMPDEST JUMPDEST PUSH2 0x36A DUP10 DUP3 DUP11 ADD PUSH2 0x29F JUMP JUMPDEST SWAP7 POP SWAP7 POP POP PUSH1 0x20 PUSH2 0x37D DUP10 DUP3 DUP11 ADD PUSH2 0x313 JUMP JUMPDEST SWAP5 POP POP PUSH1 0x40 DUP8 ADD CALLDATALOAD PUSH8 0xFFFFFFFFFFFFFFFF DUP2 GT ISZERO PUSH2 0x39E JUMPI PUSH2 0x39D PUSH2 0x28F JUMP JUMPDEST JUMPDEST PUSH2 0x3AA DUP10 DUP3 DUP11 ADD PUSH2 0x29F JUMP JUMPDEST SWAP4 POP SWAP4 POP POP PUSH1 0x60 PUSH2 0x3BD DUP10 DUP3 DUP11 ADD PUSH2 0x313 JUMP JUMPDEST SWAP2 POP POP SWAP3 SWAP6 POP SWAP3 SWAP6 POP SWAP3 SWAP6 JUMP JUMPDEST PUSH0 DUP2 MLOAD SWAP1 POP SWAP2 SWAP1 POP JUMP JUMPDEST PUSH0 DUP3 DUP3 MSTORE PUSH1 0x20 DUP3 ADD SWAP1 POP SWAP3 SWAP2 POP POP JUMP JUMPDEST PUSH0 DUP2 SWAP1 POP PUSH1 0x20 DUP3 ADD SWAP1 POP SWAP2 SWAP1 POP JUMP JUMPDEST PUSH2 0x3FC DUP2 PUSH2 0x2F4 JUMP JUMPDEST DUP3 MSTORE POP POP JUMP JUMPDEST PUSH0 PUSH2 0x40D DUP4 DUP4 PUSH2 0x3F3 JUMP JUMPDEST PUSH1 0x20 DUP4 ADD SWAP1 POP SWAP3 SWAP2 POP POP JUMP JUMPDEST PUSH0 PUSH1 0x20 DUP3 ADD SWAP1 POP SWAP2 SWAP1 POP JUMP JUMPDEST PUSH0 PUSH2 0x42F DUP3 PUSH2 0x3CA JUMP JUMPDEST PUSH2 0x439 DUP2 DUP6 PUSH2 0x3D4 JUMP JUMPDEST SWAP4 POP PUSH2 0x444 DUP4 PUSH2 0x3E4 JUMP JUMPDEST DUP1 PUSH0 JUMPDEST DUP4 DUP2 LT ISZERO PUSH2 0x474 JUMPI DUP2 MLOAD PUSH2 0x45B DUP9 DUP3 PUSH2 0x402 JUMP JUMPDEST SWAP8 POP PUSH2 0x466 DUP4 PUSH2 0x419 JUMP JUMPDEST SWAP3 POP POP PUSH1 0x1 DUP2 ADD SWAP1 POP PUSH2 0x447 JUMP JUMPDEST POP DUP6 SWAP4 POP POP POP POP SWAP3 SWAP2 POP POP JUMP JUMPDEST PUSH0 PUSH1 0x20 DUP3 ADD SWAP1 POP DUP2 DUP2 SUB PUSH0 DUP4 ADD MSTORE PUSH2 0x499 DUP2 DUP5 PUSH2 0x425 JUMP JUMPDEST SWAP1 POP SWAP3 SWAP2 POP POP JUMP JUMPDEST PUSH32 0x4E487B7100000000000000000000000000000000000000000000000000000000 PUSH0 MSTORE PUSH1 0x11 PUSH1 0x4 MSTORE PUSH1 0x24 PUSH0 REVERT JUMPDEST PUSH0 PUSH2 0x4D8 DUP3 PUSH2 0x2F4 JUMP JUMPDEST SWAP2 POP PUSH2 0x4E3 DUP4 PUSH2 0x2F4 JUMP JUMPDEST SWAP3 POP DUP3 DUP3 ADD SWAP1 POP DUP1 DUP3 GT ISZERO PUSH2 0x4FB JUMPI PUSH2 0x4FA PUSH2 0x4A1 JUMP JUMPDEST JUMPDEST SWAP3 SWAP2 POP POP JUMP JUMPDEST PUSH32 0x4E487B7100000000000000000000000000000000000000000000000000000000 PUSH0 MSTORE PUSH1 0x41 PUSH1 0x4 MSTORE PUSH1 0x24 PUSH0 REVERT JUMPDEST PUSH32 0x4E487B7100000000000000000000000000000000000000000000000000000000 PUSH0 MSTORE PUSH1 0x32 PUSH1 0x4 MSTORE PUSH1 0x24 PUSH0 REVERT JUMPDEST PUSH0 PUSH2 0x565 DUP3 PUSH2 0x2F4 JUMP JUMPDEST SWAP2 POP PUSH32 0xFFFFFFFFFFFFFFFFFFFFFFFFFFFFFFFFFFFFFFFFFFFFFFFFFFFFFFFFFFFFFFFF DUP3 SUB PUSH2 0x597 JUMPI PUSH2 0x596 PUSH2 0x4A1 JUMP JUMPDEST JUMPDEST PUSH1 0x1 DUP3 ADD SWAP1 POP SWAP2 SWAP1 POP JUMP INVALID LOG2 PUSH5 0x6970667358 0x22 SLT KECCAK256 ISZERO EXTCODECOPY GASPRICE TIMESTAMP 0xB8 0xB4 DUP16 JUMPI LOG0 0xD5 LOG4 0xBD 0xE GASPRICE 0x2F CREATE RETURN 0xB4 0xF LOG1 0xC2 DUP14 0xCA 0xBA 0x2F 0xFC 0xC0 PUSH5 0xF6CBD5EF64 PUSH20 0x6F6C634300081F00330000000000000000000000 "
				},
				"gasEstimates": {
					"creation": {
						"codeDepositCost": "299200",
						"executionCost": "335",
						"totalCost": "299535"
					},
					"external": {
						"mergeSortedArray(uint256[],uint256,uint256[],uint256)": "infinite"
					}
				},
				"methodIdentifiers": {
					"mergeSortedArray(uint256[],uint256,uint256[],uint256)": "6932871a"
				}
			},
			"storageLayout": {
				"storage": [],
				"types": null
			},
			"userdoc": {
				"kind": "user",
				"methods": {},
				"version": 1
			}
		}
	}
}